:020000040800F2
:1000000090980020DD0100084F150008FD1300083E
:100010004D150008750200089D1900080000000039
:100020000000000000000000000000004501000882
:10003000770200080000000089010008751500081B
:10004000F7010008F7010008F7010008F7010008B0
:10005000F7010008F7010008F7010008F7010008A0
:10006000F7010008F7010008F7010008F701000890
:10007000F7010008F7010008F7010008F701000880
:10008000F7010008F7010008F7010008F701000870
:10009000F7010008F7010008F7010008F701000860
:1000A000F7010008F7010008F7010008F701000850
:1000B00031160008F7010008F7010008F7010008F1
:1000C000F7010008F7010008F7010008F701000830
:1000D000F701000891190008F7010008F70100086E
:1000E000F7010008F7010008F7010008F701000810
:1000F000F7010008F7010008F7010008F701000800
:10010000F7010008F7010008F7010008F7010008EF
:10011000F7010008F7010008F7010008F7010008DF
:10012000F7010008F7010008F7010008F7010008CF
:10013000DFF80CD000F08CF800480047D11B000815
:1001400090980020224B19680868B0E8F00F80F3FF
:100150000988BFF36F8F4FF0000080F311884EF0D5
:100160000D0E70470000000006480068006880F32C
:10017000088862B661B6BFF34F8FBFF36F8F00DFA1
:1001800000BF00BF08ED00E0EFF30980BFF36F8F01
:100190000F4B1A6820E9F00F106008B54FF05000BF
:1001A00080F31188BFF34F8FBFF36F8F02F01CFAFB
:1001B0004FF0000080F31188BDE808401968086816
:1001C000B0E8F00F80F30988BFF36F8F704700BF6E
:1001D0000C000020EFF305807047000006488047C0
:1001E00006480047FEE7FEE7FEE7FEE7FEE7FEE71C
:1001F000FEE7FEE7FEE7FEE7E9150008310100082B
:10020000D2B201E000F8012B491EFBD27047002258
:10021000F6E710B513460A4604461946FFF7F0FF05
:10022000204610BD30B50B46014600202022012497
:1002300009E021FA02F59D4205D303FA02F5491BB4
:1002400004FA02F52844151EA2F10102F1DC30BDCA
:10025000064C074D06E0E06840F0010394E8070013
:1002600098471034AC42F6D3FFF766FF74290008B4
:1002700094290008FEE77047704700002DE9F05F01
:10028000002590F82110022903D004218163012563
:1002900095E001680A6822F00E020A6001680A68A7
:1002A00022F001020A60474E464FB215DFF814C132
:1002B000DFF81081DFF80C91DFF808A1DFF804B156
:1002C0000168783F13011402ACF1640CA8F15008E6
:1002D000A9F13C09AAF1280AABF1140B4FF4801ED6
:1002E000B1422FD9B94201D1012227E0614501D1A4
:1002F000102223E0414521D0494501D11A461DE095
:10030000514501D1224619E0594501D1724615E007
:100310002D4EB14201D1012210E02B4E1436B142D4
:1003200001D110220AE0284E2836B14206D0264AD2
:100330003C32914201D11A4600E022462249091F6F
:100340000A6033E0B94201D101222CE0614501D1BC
:10035000102228E0414526D0494501D11A4622E025
:10036000514501D122461EE0594501D172461AE09D
:10037000B14202D14FF0807215E0134EB14201D16B
:10038000012210E0104E1436B14201D110220AE0D1
:100390000D4E2836B14206D00B4A3C32914201D173
:1003A0001A4600E02246074980394A60012180F858
:1003B0002110002180F82010416B01B188472846A8
:1003C000BDE8F09F80000240080402402DE9F84F8C
:1003D00000240023DFF8E0914FF00F0809F1040A30
:1003E0000AF1040B0BF1040EDFE00127A7403A40AD
:1003F000BA4275D1DFF8C4C14D68A5EB0C0665455E
:100400002BD00DDC032D34D005DC35B3012D19D0F4
:10041000022D2FD11BE0112D16D0122D2AD119E05B
:10042000B6F5881F19D006DCB6F5803F15D0B6F5B5
:10043000801F1FD111E0B6F5001F0ED0B6F5041FC6
:1004400018D10AE0CB6815E0CB681B1D12E0CB6821
:1004500008330FE0CB680C330CE08B6823B1012B21
:1004600004D00823476105E0042303E00823076163
:1004700000E00023FF2A01D8054601E000F1040551
:1004800002D84FEA840603E0A4F108064FEA860684
:100490002F6808FA06FC27EA0C0703FA06F647EA73
:1004A00006072F604D68ED007ED5454DAE6946F0DC
:1004B0000106AE61AD6905F001050095414D24F0DE
:1004C00003067719BE68A5072D0F08FA05FC26EA72
:1004D0000C06DFF8F4C0604503D14FF0000C25E0B6
:1004E00062E0DFF8E8C0604502D14FF0010C1DE08A
:1004F000DFF8DCC0604502D14FF0020C16E0DFF8F7
:10050000D4C0604502D14FF0030C0FE0DFF8C8C043
:10051000604502D14FF0040C08E0DFF8C0C0604530
:1005200002D14FF0050C01E04FF0060C0CFA05FC6F
:100530004CEA060CC7F808C04D68ED0305D5D9F89C
:1005400000501543C9F8005004E0D9F80050954315
:10055000C9F800504D68AD0305D5DAF800501543D1
:10056000CAF8005004E0DAF800509543CAF8005089
:100570004D68ED0205D5DBF800501543CBF800506F
:1005800004E0DBF800509543CBF800504D68AD0215
:1005900005D5DEF800501543CEF8005004E0DEF833
:1005A00000509543CEF80050641C0A6832FA04F5F6
:1005B0007FF41BAFBDE8F88F00040140000011106C
:1005C000001002400000014000080140000C014002
:1005D000001001400014014000180140001C0140BF
:1005E000002A01D0016170470904016170470000D1
:1005F00001488068704700006C00002070B5044618
:10060000002C04D094F83D00002510B106E0012034
:1006100070BD84F83C50204600F0B2F8242084F8E5
:100620003D002068016821F00101016000F074FACA
:100630004F4B6168994203D84E49884203D304E086
:100640004D49884201D2012070BD4C49B0FBF1F107
:100650002268566826F03F060E43566062689A424A
:1006600001D8491C07E04FF4967251434FF47A7257
:10067000B1FBF2F1491C2268166A26F03F063143AD
:1006800011626168994210D84900401EB0FBF1F236
:10069000521CC2F30B02042A01D2042022E0B0FB58
:1006A000F1F0401CC0F30B001CE0A268F2B301EBB8
:1006B000C10303EB0116431EB3FBF6F35B1C43F4CB
:1006C00080431B0549D092B301EBC10202EB01113B
:1006D000401EB0FBF1F0401CC0F30B0040F4804022
:1006E00040F400402168CA694CF6FF739A431043F6
:1006F000C861D4E9071001432068026822F0C002F3
:1007000011430160D4E9030101432068826848F283
:10071000FF339A4311438160D4E9051001432068F7
:10072000C26822F0FF021143C16001E00EE016E052
:100730002068016841F0010101602564202084F8EF
:100740003D00256384F83E50002070BD01EB41065A
:10075000431EB3FBF6F35B1CB3E70120C2E701EBDA
:100760004101401EB0FBF1F0401CC0F30B00B7E7A5
:10077000A086010080841E0000093D0040420F0059
:1007800030B585B0002101910291039104911E4D75
:1007900001681E4C122203231D48A94218D1A169E9
:1007A00041F00801A161A16901F008010091C02197
:1007B00001910292049301A9FFF708FEE06940F459
:1007C0000010E061E06900F40010009005B030BD59
:1007D000104DA942FAD1A16941F00801A161A169B6
:1007E00001F0080100914FF44061019102920493DD
:1007F00001A9FFF7EBFDE06940F48000E061E069EA
:1008000000F480000090E1E7005400400010024036
:10081000000C0140005800400248816802781144F1
:10082000816070476C00002010B50748016841F0F6
:1008300010010160032000F08FF8002000F006F89E
:1008400000F03EF8002010BD0020024000B587B047
:10085000014600221C2000F05FF81C2000F04EF83A
:100860001448C16941F00101C161C06900F0010093
:10087000009001A902A800F02BF900F04DF940000A
:100880000D49B0FBF1F1491E0C484FF08042026067
:1008900040F2E732C260416000210161816000F0F6
:1008A00059FB10B1012007B000BD044800F06FFBF8
:1008B000F9E700000010024040420F00280100202C
:1008C00008B50C48816941F001018161816901F03D
:1008D00001010091C16941F08051C161C06900F01E
:1008E000805000900449486820F0E06040F00070BB
:1008F000486008BD0010024000000140002809DBEC
:1009000000F01F02012191404009800000F1E02029
:10091000C0F8001170470000F0B40D460D4B1B6885
:10092000C3F30223C3F10704042C00D90424191DC6
:10093000072901D2002300E0DB1E012606FA04F19C
:10094000491E294099409E40761E16403143F0BC16
:1009500001F036B80CED00E000F00701054A106820
:100960004FF6FF03184040EA012003490843106096
:10097000704700000CED00E00000FA052DE9F0479B
:1009800004460D46002C17D0DFF83081D8F800005F
:1009900000F00700A84211D2D8F8000020F00700AC
:1009A0002843C8F80000D8F8000000F00700A8426B
:1009B00004D00120BDE8F0870120FBE72068404E0D
:1009C000810712D5400703D5706840F4E06070607D
:1009D0002078000703D5706840F46050706070683C
:1009E000A16820F0F000084370602078C0072CD088
:1009F0006068012806D0022809D0316889070BD425
:100A00000120D7E73168890306D40120D2E7316895
:100A1000890101D40120CDE7716821F00301014370
:100A20007160FFF7E5FD074641F2883906E0FFF700
:100A3000DFFDC01B484501D90320BBE77068616832
:100A400000F00C00B0EB810FF1D1D8F8000000F0FD
:100A50000700A8420ED9D8F8000020F0070028436C
:100A6000C8F80000D8F8000000F00700A84201D044
:100A700001209FE72078400705D57068E16820F4E1
:100A8000E060084370602078000706D5706821692F
:100A900020F4605040EAC100706000F05DF87168B9
:100AA000084AC1F30311515CC84007490860074870
:100AB0000068FFF7CBFE00207CE70000002002402A
:100AC000001002405C29000878000020700000201F
:100AD0000F2202600B4A536803F00303436053681C
:100AE00003F0F0038360536803F4E063C36052686B
:100AF00002F46052D20802610348006800F0070067
:100B00000860704700100240002002400148006861
:100B1000704700007800002000B5FFF7F7FF044998
:100B20004968044AC1F30221515CC84000BD00007D
:100B3000001002406C29000800B5FFF7E7FF0449E8
:100B40004968044AC1F3C221515CC84000BD00009D
:100B5000001002406C29000885B014A090E80E0037
:100B6000C068CDE902230191049014A000680090B0
:100B7000134B5968134801F00C02042A10D0082ABC
:100B80000ED101A8C1F38342805CC9030AD559681C
:100B9000C1F340411DF801100A4A5043B0FBF1F087
:100BA00005B0704708494843FAE70000020304050E
:100BB000060708090A0B0C0D0E0F101001020000A9
:100BC0000010024000127A0000093D002DE9F84FA4
:100BD0000446002C0ED02078D94DC0075ED068683E
:100BE000C0F3810001280BD06868C0F3810002289F
:100BF00003D00CE00120BDE8F88F6868C00306D57B
:100C0000286880034AD56068A8BB0120F3E76068C4
:100C1000B0F5803F11D0A8B1B0F5A02F1BD0286847
:100C200020F480302860286820F4802028606068E4
:100C300030B3FFF7DDFC06461EE0286840F4803044
:100C40002860F4E7286820F480302860286820F4C1
:100C500080202860EBE7286840F48020286028681E
:100C600040F480302860E2E7FFF7C2FC801B642874
:100C700002D90320BFE711E028688003F4D50DE016
:100C8000FFF7B6FC064606E0FFF7B2FC801B6428BF
:100C900001D90320AFE728688003F5D42078DFF876
:100CA000A48280074FF0010A4FF0000945D568681B
:100CB00010F00C0F07D06868C0F38100022812D131
:100CC0006868C0030FD42868800704D5206901280C
:100CD00001D001208FE72868616920F0F80040EA20
:100CE000C100286029E02069B8B1C8F800A0FFF76A
:100CF0007FFC064606E0FFF77BFC801B022801D93B
:100D0000032078E728688007F5D52868616920F016
:100D1000F80040EAC10028600FE0C8F80090FFF733
:100D200067FC064606E0FFF763FC801B022801D93A
:100D3000032060E728688007F5D42078000726D5CF
:100D40008148A16999B1C0F800A0FFF751FC06469F
:100D500006E0FFF74DFC801B022801D903204AE77B
:100D6000686A8007F5D5012000F0F2FB0FE0C0F8BB
:100D70000090FFF73DFC064606E0FFF739FC801BBC
:100D8000022801D9032036E7686A8007F5D4207865
:100D9000400773D50026E869C00008D4E86940F030
:100DA0008050E861E86900F0805000900126DFF88B
:100DB0009CB1DBF80000C00514D4DBF8000040F45F
:100DC0008070CBF80000FFF713FC074606E0FFF742
:100DD0000FFCC01B642801D903200CE7DBF80000DE
:100DE000C005F4D5E068012812D0B0B105281DD0A7
:100DF000286A20F001002862286A20F00400286296
:100E0000E06841F2883B28B3FFF7F2FB07461DE09C
:100E1000286A40F001002862F2E7286A20F0010009
:100E20002862286A20F004002862E9E7286A40F076
:100E300004002862286A40F001002862E0E7FFF71A
:100E4000D7FBC01B584501D90320D4E6286A800788
:100E5000F5D50DE0FFF7CCFB074606E0FFF7C8FB32
:100E6000C01B584501D90320C5E6286A8007F5D480
:100E7000012E03D1E86920F08050E861E069A0B359
:100E80006968C1F38101022946D0022805D0C8F85B
:100E90006090FFF7ADFB04463AE0C8F86090FFF7BA
:100EA000A7FB064606E0FFF7A3FB801B022801D93B
:100EB0000320A0E628688001F5D4206AB0F5803FC1
:100EC00005D16868A16820F4003008436860D4E95F
:100ED00008010843696821F4741108436860C8F880
:100EE00060A0FFF785FB044607E026E0FFF780FBE4
:100EF000001B022801D903207DE628688001F5D572
:100F00001BE0FFF775FB001B022801D9032072E6E6
:100F100028688001F5D410E001280CD06868226AA6
:100F200000F48031914204D1616A00F4701088426B
:100F300003D001205FE601205DE600205BE60000B3
:100F40000010024000004242800442420070004013
:100F50007047704710B50446002C03D094F83D004C
:100F600010B107E0012010BD002084F83C002046AD
:100F700000F00CF8022084F83D00211D206800F0EC
:100F80005DFB012084F83D00002010BD7047016822
:100F9000CA6842F00102CA600068816801F0070176
:100FA000062903D0016841F001010160002070476B
:100FB000704770B50446206801694FF00005C943C9
:100FC000890716D4C168C943890712D4E91E016193
:100FD0000120207720688069800703D02046FFF732
:100FE000E7FF05E0204600F09BF8204600F099F866
:100FF000257720680169C943490718D4C168C943E6
:10100000490714D46FF004010161022020772068A1
:10101000806910F4407F03D02046FFF7C9FF05E048
:10102000204600F07DF8204600F07BF82577206808
:101030000169C943090717D4C168C943090713D413
:101040006FF008010161042020772068C0698007E3
:1010500003D02046FFF7ACFF05E0204600F060F823
:10106000204600F05EF8257720680169C943C9066B
:1010700018D4C168C943C90614D46FF010010161C6
:10108000082020772068C06910F4407F03D02046F4
:10109000FFF78EFF05E0204600F042F8204600F002
:1010A00040F8257720680169C943C90708D1C1689C
:1010B000C943C90704D1891E0161204600F032F8F6
:1010C00020680169C943090609D4C168C9430906F2
:1010D00005D46FF0800101612046FFF739FF2068D9
:1010E0000169C943490609D4C168C943490605D401
:1010F0006FF040010161204600F01BF82068016993
:10110000C94389060BD4C168C943890607D46FF067
:10111000200101612046BDE87040FFF71ABF70BD95
:10112000704770470068B0F1804F01D1FFF774BB82
:10113000704770477047000070B504462268106819
:10114000D168526900F00F03002B08D1850606D53F
:101150008D0604D52046BDE8704000F0DABA002BB9
:101160005ED002F0010301F490752B4358D0C30701
:1011700005D0CB0503D5E36B43F00103E3634307DD
:1011800005D5D30703D0E36B43F00203E363830782
:1011900005D5D30703D0E36B43F00403E3630307F0
:1011A00005D5D20703D0E26B42F00802E263E26B9E
:1011B000002A2AD0800604D5880602D5204600F0F1
:1011C000A8FA20684069C0F38010E16B090700D4D9
:1011D00000B3204600F082FA20684169490615D51F
:1011E000416921F040014161606B58B1154941638B
:1011F000606BFFF743F8002807D0606B416BBDE8D8
:10120000704008472046FFF795FF70BD2046FFF766
:1012100091FF70BD2046FFF78DFF0020E06370BD99
:10122000020606D50A0604D52046BDE8704000F047
:1012300049BB4006F3D54806F1D52046BDE87040CD
:1012400000F05ABACD16000870B50446002C04D040
:1012500094F83900002510B106E0012070BD84F833
:101260003850204600F022F8242084F83900206805
:10127000C16821F40051C160204600F099FA20684D
:10128000016921F4904101612068416921F02A013E
:1012900041612068C16841F40051C160E5632020CC
:1012A00084F8390084F83A00002070BD30B585B06C
:1012B000002401940294039404940068184988421D
:1012C0002CD11848816941F480418161816901F420
:1012D00080410091816941F004018161806900F0E1
:1012E000040000904FF4007001900220029003204F
:1012F00004900D4D01A92846FFF768F829150191C2
:101300000294039401A92846FFF760F80022052102
:101310002520FFF701FB2520FFF7F0FA05B030BDCF
:1013200000380140001002400008014070472DE9DC
:10133000F84304460D4691461E4694F8390020288D
:1013400002D00220BDE8F883B5B1B9F1000F13D087
:1013500094F83800012811D0012084F838000027C3
:10136000E763212084F83900FFF742F98046A4F8AA
:101370002490A4F826902DE00120E3E70220E1E785
:10138000E08C401EE084A068B0F5805F09D0434641
:10139000002280212046009600F0C7FAB0B1032059
:1013A000D0E74346002280212046009600F0BDFA97
:1013B00008B10320C6E728882168C0F30800486008
:1013C000206908B16D1C05E0AD1C03E0216815F82B
:1013D000010B4860E08C0028D2D143460022402116
:1013E0002046009600F0A1FA08B10320AAE72020C9
:1013F0003834607027700020A4E77047FEE70000D3
:1014000070B586B0002402940394049405941D489A
:10141000816941F010018161816901F01001019140
:10142000816941F004018161816901F00401019148
:10143000816941F008018161806900F00800019034
:10144000114E012223213046FFF7CAF87014029092
:101450000394049402A90D48FEF7B8FF01250295F4
:101460000394049402A90A48FEF7B0FF23200290D7
:10147000039504940320059002A93046FEF7A6FFC9
:1014800006B070BD00100240000C01400010014089
:101490000008014010B50D480B4901600C4941603E
:1014A00000218160C1604FF480420261416181612D
:1014B000C1610162FFF7A2F8002803D0BDE8104027
:1014C000FEF7DABE10BD000000540040800000208E
:1014D000A086010010B50D480B4901600C49416020
:1014E00000218160C1604FF48042026141618161ED
:1014F000C1610162FFF782F8002803D0BDE8104007
:10150000FEF7BABE10BD000000580040D400002015
:10151000A086010010B50C480A4901604FF4E13182
:10152000416000218160C16001610C2242618161E2
:10153000C161FFF789FE002803D0BDE81040FEF727
:101540009BBE10BD0038014068010020FEE77047D7
:1015500008B507494FF4FA520968B1FBF2F141436B
:10156000009100BF0098411E0091FAD208BD000012
:101570007800002010B501F0F7F8012803D0BDE88D
:10158000104001F0ABB810BD30B58FB0282105A8D0
:10159000FEF73DFE14216846FEF739FE0121059154
:1015A0000804069000240794099102250C950D90DB
:1015B0004FF4E0100E9005A8FFF708FB08B1FEF706
:1015C0005BFE0F200090019502944FF48060039021
:1015D000049402216846FFF7D1F9002801D0FEF7F4
:1015E0004BFE0FB030BD00000D48016841F0010115
:1015F000016041680B4A1140416001680A4A11408C
:101600000160016821F480210160416821F4FE013C
:1016100041604FF41F0181600449C00308607047B6
:10162000001002400000FFF8FFFFF6FE08ED00E0AA
:101630000148FFF7BEBC0000280100202DE9F04161
:1016400002681D4D1D4E1E4FDFF878C01E4B4FF037
:101650008048A84209D0984207D0404505D0B04202
:1016600003D0B84201D0604503D122F070044A682B
:101670002243A84209D0984207D0404505D0B04245
:1016800003D0B84201D0604503D122F44074CA6847
:1016900022434C6922F08002224302608A68C262BF
:1016A0000A688262A84201D0984201D109690163A7
:1016B00001214161BDE8F081002C0140000400409F
:1016C00000080040000C00400034014010B5406AA2
:1016D0000021C185C184FFF72DFD10BD0168CA68D6
:1016E00022F49072CA6001684A6922F001024A61DC
:1016F000202180F83A10704710B50168CA6822F0BE
:101700004002CA60202180F83910FFF776FE0020E1
:1017100010BD10B590F83A10222901D0022010BD5A
:101720008168B1F5805F11D0016919B3016849681A
:1017300001F07F03816A4A1C82620B70C18D491ED1
:101740000904090CC1851CD0002010BD816A026902
:101750003AB102685268D2B20A80816A491C816239
:10176000ECE702685268C2F308020A80816A891CA9
:101770008162E3E701684A68816A4B1C83620A70F0
:10178000DCE70168CA6822F02002CA600168CA6802
:1017900022F48072CA6001684A6922F001024A613B
:1017A000202180F83A10FFF7C1FD002010BD000095
:1017B0002DE9F041044620680169E26821F44051B6
:1017C00011430161A16820690143606901432068F8
:1017D000C26841F20C639A430A43C26020684169BF
:1017E000A26921F4407111434161354920686425A3
:1017F0003226884232D1FFF79FF900EBC00101EB9E
:10180000001061686FF018078900B0FBF1F2B2FBBD
:10181000F5F2B0FBF1F37A4303EB8202B0FBF1F394
:1018200006EB0212B2FBF5F2B3FBF5F302F0F002A5
:1018300002EB0312B0FBF1F3B0FBF1F0B0FBF5F0FB
:10184000784303EB800006EB0010B0FBF5F0216855
:1018500000F00F0010448860BDE8F081FFF75CF9EC
:1018600000EBC00101EB001061686FF01807890000
:10187000B0FBF1F2B2FBF5F2B0FBF1F37A4303EB0C
:101880008202B0FBF1F306EB0212B2FBF5F2B3FBFE
:10189000F5F302F0F00202EB0312B0FBF1F3B0FB40
:1018A000F1F0B0FBF5F0784303EB800006EB00109D
:1018B000B0FBF5F0216800F00F0010448860CBE722
:1018C0000038014090F83910212901D002207047DA
:1018D0008168B1F5805F0CD0016A4A1C026202681F
:1018E00009785160C18C491E0904090CC18410D0CB
:1018F00019E0016A02680988C1F3080151600169B1
:1019000019B1016A491C0162ECE7016A891C016294
:10191000E8E70168CA6822F08002CA600068C1680E
:1019200041F04001C160002070472DE9F0410446BC
:101930000E4617469846069D1DE0681C1BD02DB12B
:10194000FEF756FEA0EB0800A84214D92068C16833
:1019500021F4D071C1602068416921F00101416129
:10196000202084F8390084F83A00002084F83800F8
:101970000320BDE8F0812068006836EA000004D04A
:101980000020B842D9D00020F3E70120F9E7000099
:101990000148FFF7D1BB000068010020FEE700000E
:1019A0000FB4054B10B503A9044A029800F028F8BB
:1019B00010BC5DF814FB0000B91B00087C0000207F
:1019C0000907090E002804DB00F1E02080F800146C
:1019D000704700F00F0000F1E02080F8141D704700
:1019E00002E008C8121F08C1002AFAD170477047E8
:1019F000002001E001C1121F002AFBD17047000046
:101A00002DE9FF4F8BB09A460F460546002606E0AB
:101A100025280BD052460D9990476D1C761C2878CE
:101A20000028F5D10FB03046BDE8F08F0024A04665
:101A30000122604900E0044315F8013F203B02FA0F
:101A400003F00842F7D128782E2817D115F8010F96
:101A500044F004042A280ED06FF02F022878A0F159
:101A6000300109290AD808EB880102EB410100EB9B
:101A700001086D1CF2E757F8048B6D1C2878692863
:101A80003ED006DC0028CDD063280BD0642804D1DA
:101A900036E0732810D075284BD052460D999047E8
:101AA000761C85E017F8040B8DF8000000208DF8F7
:101AB0000100E946012003E057F8049B4FF0FF3096
:101AC00061074FF0000401D40AE0641C44450DDABC
:101AD0008442FADB19F804100029F6D106E0641CF0
:101AE0008442FCDB19F804100029F8D1264404E0F4
:101AF00019F8010B52460D999047641EF8D257E031
:101B000001CF4FF00A0B002802DA40422D2102E0FB
:101B1000210504D52B218DF82410012103E0E107D4
:101B200005D02021F7E70DF1200908910CE00021F4
:101B3000F9E701CF4FF00A0BF9E75946FEF772FBC0
:101B400001F1300209F8012D0028F6D1ADEB0900B2
:101B500000F1200B600701D44FF00108D84502DDE9
:101B6000A8EB0B0000E000208046002406E009A856
:101B70005246005D0D999047641C761C089884427B
:101B8000F5DB04E0302052460D999047761CB8F101
:101B90000001A8F10108F5DC05E019F8010B524637
:101BA0000D999047761CBBF10001ABF1010BF4DC01
:101BB0006D1C34E70928010013B54FF6FF730122AD
:101BC00069460248FFF7B3FB00981CBD680100207E
:101BD0001CB5FEF729FEFFF7D7FCFFF711FCFFF756
:101BE00099FCFFF757FCFFF775FC06480121CDE98A
:101BF00000100023782204A1064800F085FD00F0C3
:101C0000A5FCFEE70000002073746172745F7461CC
:101C1000736B0000F52000082DE9F04104460F46E3
:101C2000174EF5683068001D00F0E0FA38B93068EA
:101C300090F82C1001208840316981433161601C8B
:101C400007D137B13168BDE8F041091D0D4800F0FA
:101C500005BB2C4430684460AC4206D23168B06B9E
:101C6000091DBDE8F04100F0E1BA3168706B091D53
:101C700000F0DCFAB06A844200D2B462BDE8F081C0
:101C80000C0000207804002070B5044600F0F2FA41
:101C90001C4DA868401CA860286810B1686938B15C
:101CA0000CE02C60A868012808D100F0F5F805E0E8
:101CB0002868E16AC06A884200D82C60686A401CC3
:101CC0006862E06A01212A698140114329610E4955
:101CD00000EB800001EB8000211D00F0BFFA00F056
:101CE00005FB686900280CD02868E16AC06A884250
:101CF00007D206494FF080500860BFF34F8FBFF303
:101D00006F8F70BD0C000020A801002004ED00E0E2
:101D100070B5124E124D1CE000F05EFC306820B130
:101D2000002400F0A5FDA4B901E00124F9E700F0CA
:101D3000A1FAF068C468201D00F058FAA868401E97
:101D4000A8606868401E686000F0D0FA204600F085
:101D500009F868680028DFD170BD00006404002025
:101D60000C00002010B50446206B00F0F3FA20466A
:101D7000BDE8104000F0EEBA4FF410410F484207A2
:101D800006D0C01D20F007000C49411AC1F51041D2
:101D90000B4A1060002353600144083921F0070109
:101DA000103A11604B600B600B1A43600160406891
:101DB000906050604FF00040D06070478C0400206D
:101DC00064000020074E4FF08054074DFFF7A0FF3E
:101DD00030680128FAD92C60BFF34F8FBFF36F8FA3
:101DE000F4E70000A801002004ED00E02DE9F04731
:101DF000DDE908580A9C81460E469A46206B521E21
:101E000000EB820020F00707780705D040F22B3264
:101E100018A11DA0FFF7C4FD00202218315C82F834
:101E20003410315C11B1401C1028F6D3002684F820
:101E30004360202D00D31F25E562201D00F0F3F93B
:101E400004F1180000F0EFF92461C5F12000A06151
:101E50006462666484F8486052464946384600F039
:101E60003BF92060B8F1000F01D0C8F80040BDE890
:101E7000F08700002E2E5C4672656552544F535C0D
:101E80007461736B732E63004572726F723A202512
:101E9000732C2025640D0A0070B50024114D04EB4D
:101EA000840005EB800000F0B3F9641C202CF6D30D
:101EB0000D4800F0ADF90C48143000F0A9F90A48BB
:101EC000283000F0A5F908483C3000F0A1F9064898
:101ED000503000F09DF90548034941631431816396
:101EE00070BD0000A8010020280400200C00002084
:101EF00030B5134900E011460A688242FBD34B68B3
:101F00005C18844203D140681844486008460D6854
:101F100044682318AB420DD1094B103B1B689A4211
:101F200006D05268224442600A681268026002E0E9
:101F3000036000E00260814200D0086030BD000014
:101F4000640000200748416B0968002905D0416BF7
:101F5000C968C9684968816270474FF0FF31816282
:101F6000704700000C00002008484068401C04D066
:101F7000F42207A111A0FFF713FD502080F3118870
:101F8000BFF34F8FBFF36F8FFEE7000048000020C4
:101F90002E2E5C4672656552544F535C706F72749E
:101FA00061626C655C525644535C41524D5F434DD7
:101FB000335C706F72742E63000000004572726FA4
:101FC000723A2025732C2025640D0A002DE9F0417A
:101FD0000546002600F000FB304F386808B9FFF7CF
:101FE000CBFEF86805424BD175B1083568070BD0B8
:101FF00005F00700C0F108000544680704D0BF22BF
:1020000027A131A0FFF7CCFC002D39D0786885429C
:1020100036D8224910310846046801E021460446BA
:102020006068A84202D220680028F7D1386884424C
:1020300026D00E680836206808606068401B1028AB
:1020400011D904EB05085FEA487004D0EC2214A112
:102050001DA0FFF7A5FC6068401BC8F80400656080
:102060004046FFF745FF61687868401A7860BA68B3
:10207000904200D2B860F86801436160002020609F
:1020800000F0F6FB700705D04FF4967204A10EA085
:10209000FFF786FC3046BDE8F081000054000020C8
:1020A0002E2E5C4672656552544F535C706F72748D
:1020B00061626C655C4D656D4D616E675C68656104
:1020C000705F342E630000004572726F723A2025F3
:1020D000732C2025640D0A0020384FF08073C361F3
:1020E00021F0010181610249416140F820297047D6
:1020F000691F00081CB50E480221CDE9001000231D
:1021000078220CA10E4800F0FFFA09480321001DB7
:10211000CDE90010002378220AA10D4800F0F4FA5E
:102120000348001F0068BDE81C4000F0A9B900008A
:10213000040000207461736B315F7461736B000085
:10214000552100087461736B325F7461736B00001A
:10215000BD21000800240D4D0D4E4FF4FA77641C8C
:10216000A4B2286880F001002860214609A0FFF78A
:1021700017FC052C05D10CA0FFF712FCB06800F08D
:102180007FF9384600F044F9E9E700000C0C014003
:10219000000000205461736B312072756E6E696EA1
:1021A000672025640D0A000044656C657465207421
:1021B00061736B322121210D0A00000000244FF4CD
:1021C000FA75641CA4B2214603A0FFF7E9FB284678
:1021D00000F01EF9F5E700005461736B3220727550
:1021E0006E6E696E672025640D0A00000169D0E9F2
:1021F00001329A60D0E901235A604A68824201D1D3
:1022000082684A60002202610868401E08607047C8
:1022100000F1080141604FF0FF328260C16001614E
:1022200000210160704700210161704730B50C68E2
:10223000621C02D000F1080202E0026904E01A46C2
:1022400053681D68A542FAD953684B6099608A604B
:10225000516008610168491C016030BD42684A60F4
:1022600093688B6093685960916008610168491CAC
:1022700001607047502080F31188BFF34F8FBFF388
:102280006F8F09494868401C486001280AD10748F7
:10229000006810F0FF0F05D04FF4BD7204A10FA02D
:1022A000FFF77EBB704700004800002004ED00E00F
:1022B0002E2E5C4672656552544F535C706F72747B
:1022C00061626C655C525644535C41524D5F434DB4
:1022D000335C706F72742E63000000004572726F81
:1022E000723A2025732C2025640D0A0010B5094C84
:1022F0006068002805D140F2811207A111A0FFF704
:102300004FFB6068401E6060002801D180F3118897
:1023100010BD0000480000202E2E5C4672656552FC
:10232000544F535C706F727461626C655C525644BA
:10233000535C41524D5F434D335C706F72742E633A
:10234000000000004572726F723A2025732C202520
:10235000640D0A0070B500282AD008380446154DCF
:102360006068E968084205D14FF4A07212A11CA070
:10237000FFF716FB206828B140F241120EA118A009
:10238000FFF70EFB6068E968084211D02268002A56
:102390000ED18843606000F01FF9606869680844E6
:1023A00068602046FFF7A4FDBDE8704000F060BA09
:1023B00070BD0000540000202E2E5C4672656552F0
:1023C000544F535C706F727461626C655C4D656DE7
:1023D0004D616E675C686561705F342E630000005C
:1023E0004572726F723A2025732C2025640D0A0005
:1023F00006484FF47A710068B0FBF1F14FF0E0202D
:10240000491E4161072101617047000078000020EA
:1024100010B504460020002C10D00E48006B28B1E7
:1024200040F2CF420CA111A0FFF7BAFA00F0D4F8A5
:1024300000212046FFF7F0FB00F01AFA002807D130
:102440000E494FF080500860BFF34F8FBFF36F8F7E
:1024500010BD00000C0000202E2E5C4672656552F7
:10246000544F535C7461736B732E63004572726FCB
:10247000723A2025732C2025640D0A0004ED00E03B
:1024800070B50446FFF7F6FE234D04B92C68201DF5
:10249000FFF7ACFE58B9E06A204A00EB800152F821
:1024A000211021B901218140286988432861A06A4F
:1024B00018B104F11800FFF799FE686A401C6862C1
:1024C0002868844207D1211D1548FFF7C7FE6868B8
:1024D000401C686007E0A868401EA8602046FFF71F
:1024E00041FCFFF72FFDFFF701FF6869002812D0BC
:1024F000286884420FD1286B28B140F2654209A1B7
:102500000DA0FFF74DFA10494FF080500860BFF35F
:102510004F8FBFF36F8F70BD0C000020A80100200B
:10252000640400202E2E5C4672656552544F535C45
:102530007461736B732E63004572726F723A20255B
:10254000732C2025640D0A0004ED00E01CB515482D
:102550000024CDE900402346802213A1144800F056
:10256000D3F801280AD0401C1BD102B040F284727B
:10257000BDE810400FA114A0FFF712BA502080F35D
:102580001188BFF34F8FBFF36F8F06484FF0FF31B5
:102590002C38816201214161C460BDE81C4000F01B
:1025A00063B81CBD3800002049444C4500000000C1
:1025B000C51D00082E2E5C4672656552544F535C53
:1025C0007461736B732E63004572726F723A2025CB
:1025D000732C2025640D0A000248016B491C01631D
:1025E000704700000C00002070B5144D286B0028C7
:1025F00002D00120E86170BD0020E8612869B0FACE
:1026000080F0C0F11F000E4E00EB800456F824004D
:1026100028B940F6F6220BA10FA0FFF7C1F906EB8F
:10262000840041684968416000F10802914201D18B
:10263000496841604068C068286070BD0C00002097
:10264000A80100202E2E5C4672656552544F535CE3
:102650007461736B732E63004572726F723A20253A
:10266000732C2025640D0A001CB5194908780190C7
:10267000FF200870087800909DF80000154A00F0CF
:10268000500010700720906006E09068401E906037
:102690009DF80000400000909DF800000006F4D472
:1026A000107A000200F4E0609060019808700A4817
:1026B000016841F470010160016841F070410160FE
:1026C000FFF796FE00205060FDF74EFD00201CBD78
:1026D00000E400E04800002020ED00E010B55020AC
:1026E00080F31188BFF34F8FBFF36F8F00F04AF86C
:1026F00018B104494FF080500860002080F3118821
:1027000010BD000004ED00E02DE9FF5F8146DDE92A
:102710000E788A4616469B46B000FFF757FC0546E2
:1027200028000AD04C20FFF751FC04460CB1256369
:1027300004E02846FFF70EFE00E000248CB10020E4
:10274000CDE90240CDE900785B4632465146484625
:10275000FFF74CFB2046FFF797FA012004B0BDE8D5
:10276000F09F4FF0FF30F9E705484169002903D099
:10277000006B18B10020704701207047022070479D
:102780000C0000202DE9F04100262E4F386B002868
:1027900008D0B869401CB861F86900B1012630461C
:1027A000BDE8F081FD686D1CFD608DB9786B006837
:1027B00028B140F6D91224A128A0FFF7F1F8786BD0
:1027C000B96B7963B863386A401C3862FFF7BAFBAB
:1027D000B86ADFF8988085420DD3786B006838B10D
:1027E000786BC068C468606885420ED2B86202E047
:1027F0004FF0FF30B8623868C06A00EB800058F8CC
:1028000020000128C8D90126C6E7201DFFF7EEFCED
:10281000A06A18B104F11800FFF7E8FCE06A012192
:102820003A6981401143396100EB800008EB800078
:10283000211DFFF713FDE06A3968C96A8842CCD3CD
:102840000126CAE70C0000202E2E5C4672656552F8
:10285000544F535C7461736B732E63004572726FD7
:10286000723A2025732C2025640D0A00A80100204F
:102870002DE9F041002400272B4D286B002805D1BD
:102880004FF4FD6229A12EA0FFF78AF8FFF7F2FCB2
:10289000286B401E2863286BF0BBA868E0B3DFF804
:1028A000B08001261DE0D8F80C00C46804F11800BF
:1028B000FFF79CFC201DFFF799FCE06A2A6906FAE5
:1028C00000F111432961234900EB800001EB8000F6
:1028D000211DFFF7C3FCE06A2968C96A884200D35A
:1028E000EE61D8F800000028DDD10CB1FFF72AFB1B
:1028F000AC6944B1FFF746FF00B1EE61641E002CE5
:10290000F8D10020A861E86930B1012712493807E1
:102910000860BFF34F8F00E001E0BFF36F8FFFF758
:10292000E5FC3846BDE8F0810C0000202E2E5C4608
:1029300072656552544F535C7461736B732E630000
:102940004572726F723A2025732C2025640D0A009F
:1029500050040020A801002004ED00E00000000069
:10296000000000000102030406070809000000003F
:1029700001020304942900080000002080000000E8
:10298000E0190008142A00088000002010980000B8
:10299000F019000800000000000000000000000026
:1029A0000000000000000000000000000000000027
:1029B0000000000000000000000000000000000017
:1029C0000000000000000000000000000000000007
:1029D00000000000000000000000000000000000F7
:1029E000AAAAAAAA0000000000000000000000003F
:1029F00000000000000000000000000000000000D7
:102A00000100000010000000000000000024F4009D
:042A100000000000C2
:0400000508000131BD
:00000001FF
