:020000040800F2
:10000000F8980020DD0100082B130008B11100084A
:10001000291300089102000889160008000000005A
:100020000000000000000000000000004501000882
:100030009302000800000000890100085113000825
:10004000F7010008F7010008F7010008F7010008B0
:10005000F7010008F7010008F7010008F7010008A0
:10006000F7010008F7010008F7010008F701000890
:10007000F7010008F7010008F7010008F701000880
:10008000F7010008F7010008F7010008F701000870
:10009000F7010008F7010008F7010008F701000860
:1000A000F7010008F7010008F7010008F701000850
:1000B0000D140008F7010008F7010008F701000817
:1000C000F7010008F7010008F7010008F701000830
:1000D000F701000821160008F7010008F7010008E1
:1000E000F7010008F7010008F7010008F701000810
:1000F000F7010008F7010008F7010008F701000800
:10010000F7010008F7010008F7010008F7010008EF
:10011000F7010008F7010008F7010008F7010008DF
:10012000F7010008F7010008F7010008F7010008CF
:10013000DFF80CD000F09AF800480047BD1800081E
:10014000F8980020224B19680868B0E8F00F80F397
:100150000988BFF36F8F4FF0000080F311884EF0D5
:100160000D0E70470000000006480068006880F32C
:10017000088862B661B6BFF34F8FBFF36F8F00DFA1
:1001800000BF00BF08ED00E0EFF30980BFF36F8F01
:100190000F4B1A6820E9F00F106008B54FF05000BF
:1001A00080F31188BFF34F8FBFF36F8F02F0E4F934
:1001B0004FF0000080F31188BDE808401968086816
:1001C000B0E8F00F80F30988BFF36F8F704700BF6E
:1001D00010000020EFF305807047000006488047BC
:1001E00006480047FEE7FEE7FEE7FEE7FEE7FEE71C
:1001F000FEE7FEE7FEE7FEE7C51300083101000851
:10020000D2B201E000F8012B491EFBD27047002258
:10021000F6E710B513460A4604461946FFF7F0FF05
:10022000204610BD10B5002200E0521C835C8C5C9F
:10023000A34201D1002BF8D1D8B2E1B2401A10BDCF
:1002400030B50B46014600202022012409E021FAA6
:1002500002F59D4205D303FA02F5491B04FA02F5A3
:100260002844151EA2F10102F1DC30BD064C074DF9
:1002700006E0E06840F0010394E807009847103476
:10028000AC42F6D3FFF758FF0429000824290008E0
:10029000FEE77047704700002DE9F84F0024002367
:1002A000DFF8E0914FF00F0809F1040A0AF1040B9E
:1002B0000BF1040EDFE00127A7403A40BA4275D1A6
:1002C000DFF8C4C14D68A5EB0C0665452BD00DDCED
:1002D000032D34D005DC35B3012D19D0022D2FD1DB
:1002E0001BE0112D16D0122D2AD119E0B6F5881F6A
:1002F00019D006DCB6F5803F15D0B6F5801F1FD1AA
:1003000011E0B6F5001F0ED0B6F5041F18D10AE0B3
:10031000CB6815E0CB681B1D12E0CB6808330FE0FB
:10032000CB680C330CE08B6823B1012B04D008237D
:10033000476105E0042303E00823076100E0002390
:10034000FF2A01D8054601E000F1040502D84FEA72
:10035000840603E0A4F108064FEA86062F6808FA2F
:1003600006FC27EA0C0703FA06F647EA06072F60A1
:100370004D68ED007ED5454DAE6946F00106AE6193
:10038000AD6905F001050095414D24F0030677198C
:10039000BE68A5072D0F08FA05FC26EA0C06DFF853
:1003A000F4C0604503D14FF0000C25E062E0DFF8B7
:1003B000E8C0604502D14FF0010C1DE0DFF8DCC061
:1003C000604502D14FF0020C16E0DFF8D4C0604562
:1003D00002D14FF0030C0FE0DFF8C8C0604502D136
:1003E0004FF0040C08E0DFF8C0C0604502D14FF0C8
:1003F000050C01E04FF0060C0CFA05FC4CEA060C6B
:10040000C7F808C04D68ED0305D5D9F8005015436D
:10041000C9F8005004E0D9F800509543C9F80050DD
:100420004D68AD0305D5DAF800501543CAF8005001
:1004300004E0DAF800509543CAF800504D68ED0228
:1004400005D5DBF800501543CBF8005004E0DBF88D
:1004500000509543CBF800504D68AD0205D5DEF84D
:1004600000501543CEF8005004E0DEF800509543EC
:10047000CEF80050641C0A6832FA04F57FF41BAF12
:10048000BDE8F88F00040140000011100010024088
:100490000000014000080140000C01400010014034
:1004A0000014014000180140001C0140002A01D046
:1004B00001617047090401617047000001488068CC
:1004C000704700007000002070B50446002C04D076
:1004D00094F83D00002510B106E0012070BD84F8BD
:1004E0003C50204600F0B2F8242084F83D002068FB
:1004F000016821F00101016000F074FA4F4B61685E
:10050000994203D84E49884203D304E04D498842BA
:1005100001D2012070BD4C49B0FBF1F12268566850
:1005200026F03F060E43566062689A4201D8491C85
:1005300007E04FF4967251434FF47A72B1FBF2F137
:10054000491C2268166A26F03F0631431162616831
:10055000994210D84900401EB0FBF1F2521CC2F380
:100560000B02042A01D2042022E0B0FBF1F0401C6F
:10057000C0F30B001CE0A268F2B301EBC10303EB74
:100580000116431EB3FBF6F35B1C43F480431B05CB
:1005900049D092B301EBC10202EB0111401EB0FB46
:1005A000F1F0401CC0F30B0040F4804040F40040E8
:1005B0002168CA694CF6FF739A431043C861D4E9B5
:1005C000071001432068026822F0C0021143016055
:1005D000D4E9030101432068826848F2FF339A435B
:1005E00011438160D4E9051001432068C26822F0FC
:1005F000FF021143C16001E00EE016E020680168CF
:1006000041F0010101602564202084F83D0025634C
:1006100084F83E50002070BD01EB4106431EB3FB41
:10062000F6F35B1CB3E70120C2E701EB4101401E7A
:10063000B0FBF1F0401CC0F30B00B7E7A08601004F
:1006400080841E0000093D0040420F0030B585B097
:10065000002101910291039104911E4D01681E4CED
:10066000122203231D48A94218D1A16941F00801B3
:10067000A161A16901F008010091C02101910292DC
:10068000049301A9FFF708FEE06940F40010E0615F
:10069000E06900F40010009005B030BD104DA94293
:1006A000FAD1A16941F00801A161A16901F0080135
:1006B00000914FF4406101910292049301A9FFF768
:1006C000EBFDE06940F48000E061E06900F4800047
:1006D0000090E1E70054004000100240000C01408F
:1006E00000580040024881680278114481607047D8
:1006F0007000002010B50748016841F0100101604A
:10070000032000F08FF8002000F006F800F03EF81B
:10071000002010BD0020024000B587B00146002235
:100720001C2000F05FF81C2000F04EF81448C1694E
:1007300041F00101C161C06900F00100009001A910
:1007400002A800F02BF900F04DF940000D49B0FB74
:10075000F1F1491E0C484FF08042026040F2E7324E
:10076000C260416000210161816000F059FB10B15D
:10077000012007B000BD044800F06FFBF9E700005E
:100780000010024040420F00D001002008B50C4884
:10079000816941F001018161816901F001010091EC
:1007A000C16941F08051C161C06900F08050009082
:1007B0000449486820F0E06040F00070486008BDDF
:1007C0000010024000000140002809DB00F01F0279
:1007D000012191404009800000F1E020C0F80011A3
:1007E00070470000F0B40D460D4B1B68C3F30223A5
:1007F000C3F10704042C00D90424191D072901D2D0
:10080000002300E0DB1E012606FA04F1491E294000
:1008100099409E40761E16403143F0BC00F046BF22
:100820000CED00E000F00701054A10684FF6FF03E9
:10083000184040EA01200349084310607047000057
:100840000CED00E00000FA052DE9F04704460D46E6
:10085000002C17D0DFF83081D8F8000000F0070036
:10086000A84211D2D8F8000020F007002843C8F8A9
:100870000000D8F8000000F00700A84204D00120D2
:10088000BDE8F0870120FBE72068404E810712D5C4
:10089000400703D5706840F4E0607060207800077E
:1008A00003D5706840F4605070607068A16820F0F3
:1008B000F000084370602078C0072CD060680128E1
:1008C00006D0022809D0316889070BD40120D7E768
:1008D0003168890306D40120D2E73168890101D447
:1008E0000120CDE7716821F0030101437160FFF73A
:1008F000E5FD074641F2883906E0FFF7DFFDC01B42
:10090000484501D90320BBE77068616800F00C001E
:10091000B0EB810FF1D1D8F8000000F00700A84239
:100920000ED9D8F8000020F007002843C8F80000CE
:10093000D8F8000000F00700A84201D001209FE78E
:100940002078400705D57068E16820F4E06008432E
:1009500070602078000706D57068216920F4605027
:1009600040EAC100706000F05DF87168084AC1F3A8
:100970000311515CC8400749086007480068FFF749
:10098000CBFE00207CE70000002002400010024067
:10099000EC2800087C000020740000200F22026078
:1009A0000B4A536803F003034360536803F0F003FA
:1009B0008360536803F4E063C360526802F46052DA
:1009C000D20802610348006800F007000860704721
:1009D00000100240002002400148006870470000FB
:1009E0007C00002000B5FFF7F7FF04494968044A7E
:1009F000C1F30221515CC84000BD0000001002405C
:100A0000FC28000800B5FFF7E7FF04494968044ADD
:100A1000C1F3C221515CC84000BD0000001002407B
:100A2000FC28000885B014A090E80E00C068CDE94D
:100A300002230191049014A000680090134B5968A0
:100A4000134801F00C02042A10D0082A0ED101A884
:100A5000C1F38342805CC9030AD55968C1F34041A0
:100A60001DF801100A4A5043B0FBF1F005B0704781
:100A700008494843FAE7000002030405060708098D
:100A80000A0B0C0D0E0F10100102000000100240A6
:100A900000127A0000093D002DE9F84F0446002CB1
:100AA0000ED02078D94DC0075ED06868C0F38100B1
:100AB00001280BD06868C0F38100022803D00CE045
:100AC0000120BDE8F88F6868C00306D52868800358
:100AD0004AD56068A8BB0120F3E76068B0F5803FA5
:100AE00011D0A8B1B0F5A02F1BD0286820F4803019
:100AF0002860286820F480202860606830B3FFF701
:100B0000DDFC06461EE0286840F480302860F4E7EB
:100B1000286820F480302860286820F4802028602D
:100B2000EBE7286840F480202860286840F4803093
:100B30002860E2E7FFF7C2FC801B642802D903208B
:100B4000BFE711E028688003F4D50DE0FFF7B6FC9D
:100B5000064606E0FFF7B2FC801B642801D903209B
:100B6000AFE728688003F5D42078DFF8A4828007F7
:100B70004FF0010A4FF0000945D5686810F00C0FDE
:100B800007D06868C0F38100022812D16868C003EA
:100B90000FD42868800704D52069012801D00120DE
:100BA0008FE72868616920F0F80040EAC1002860FA
:100BB00029E02069B8B1C8F800A0FFF77FFC06461D
:100BC00006E0FFF77BFC801B022801D9032078E7B1
:100BD00028688007F5D52868616920F0F80040EAA8
:100BE000C10028600FE0C8F80090FFF767FC0646D8
:100BF00006E0FFF763FC801B022801D9032060E7B1
:100C000028688007F5D42078000726D58148A16997
:100C100099B1C0F800A0FFF751FC064606E0FFF7C7
:100C20004DFC801B022801D903204AE7686A80072F
:100C3000F5D5012000F07AFB0FE0C0F80090FFF737
:100C40003DFC064606E0FFF739FC801B022801D96F
:100C5000032036E7686A8007F5D42078400773D50B
:100C60000026E869C00008D4E86940F08050E861D7
:100C7000E86900F0805000900126DFF89CB1DBF8B5
:100C80000000C00514D4DBF8000040F48070CBF8FD
:100C90000000FFF713FC074606E0FFF70FFCC01B40
:100CA000642801D903200CE7DBF80000C005F4D567
:100CB000E068012812D0B0B105281DD0286A20F0C4
:100CC00001002862286A20F004002862E06841F2EE
:100CD000883B28B3FFF7F2FB07461DE0286A40F087
:100CE00001002862F2E7286A20F001002862286AE1
:100CF00020F004002862E9E7286A40F00400286236
:100D0000286A40F001002862E0E7FFF7D7FBC01B2C
:100D1000584501D90320D4E6286A8007F5D50DE0AF
:100D2000FFF7CCFB074606E0FFF7C8FBC01B5845A2
:100D300001D90320C5E6286A8007F5D4012E03D126
:100D4000E86920F08050E861E069A0B36968C1F308
:100D50008101022946D0022805D0C8F86090FFF72B
:100D6000ADFB04463AE0C8F86090FFF7A7FB0646E3
:100D700006E0FFF7A3FB801B022801D90320A0E6B1
:100D800028688001F5D4206AB0F5803F05D16868F5
:100D9000A16820F4003008436860D4E908010843E2
:100DA000696821F4741108436860C8F860A0FFF70F
:100DB00085FB044607E026E0FFF780FB001B0228C6
:100DC00001D903207DE628688001F5D51BE0FFF7F7
:100DD00075FB001B022801D9032072E628688001F8
:100DE000F5D410E001280CD06868226A00F4803144
:100DF000914204D1616A00F47010884203D001204E
:100E00005FE601205DE600205BE600000010024086
:100E10000000424280044242007000407047704728
:100E200010B50446002C03D094F83D0010B107E043
:100E3000012010BD002084F83C00204600F00CF892
:100E4000022084F83D00211D206800F0E5FA012011
:100E500084F83D00002010BD70470168CA6842F068
:100E60000102CA600068816801F00701062903D009
:100E7000016841F00101016000207047704770B5C2
:100E80000446206801694FF00005C943890716D45C
:100E9000C168C943890712D4E91E01610120207786
:100EA00020688069800703D02046FFF7E7FF05E050
:100EB000204600F09BF8204600F099F8257720683E
:100EC0000169C943490718D4C168C943490714D403
:100ED0006FF004010161022020772068806910F41E
:100EE000407F03D02046FFF7C9FF05E0204600F011
:100EF0007DF8204600F07BF8257720680169C9431A
:100F0000090717D4C168C943090713D46FF0080152
:100F10000161042020772068C069800703D0204643
:100F2000FFF7ACFF05E0204600F060F8204600F037
:100F30005EF8257720680169C943C90618D4C168DD
:100F4000C943C90614D46FF010010161082020774D
:100F50002068C06910F4407F03D02046FFF78EFF61
:100F600005E0204600F042F8204600F040F82577E2
:100F700020680169C943C90708D1C168C943C907C5
:100F800004D1891E0161204600F032F82068016911
:100F9000C943090609D4C168C943090605D46FF0DD
:100FA000800101612046FFF739FF20680169C943CC
:100FB000490609D4C168C943490605D46FF0400108
:100FC0000161204600F01BF820680169C9438906C9
:100FD0000BD4C168C943890607D46FF020010161B1
:100FE0002046BDE87040FFF71ABF70BD70477047DC
:100FF0000068B0F1804F01D1FFF774BB70477047B4
:1010000070B50446002C04D094F83900002510B1C6
:1010100006E0012070BD84F83850204600F022F828
:10102000242084F839002068C16821F40051C1608F
:10103000204600F039FA2068016921F490410161ED
:101040002068416921F02A0141612068C16841F4AA
:101050000051C160E563202084F8390084F83A002B
:10106000002070BD30B585B0002401940294039433
:1010700004940068184988422CD11848816941F4C9
:1010800080418161816901F480410091816941F071
:1010900004018161806900F0040000904FF4007049
:1010A000019002200290032004900D4D01A92846D2
:1010B000FFF7F2F8291501910294039401A928463B
:1010C000FFF7EAF8002205212520FFF78BFB2520FA
:1010D000FFF77AFB05B030BD003801400010024038
:1010E000000801402DE9F84304460D4691461E468E
:1010F00094F83900202802D00220BDE8F883B5B169
:10110000B9F1000F13D094F83800012811D0012054
:1011100084F838000027E763212084F83900FFF7BE
:10112000CDF98046A4F82490A4F826902DE0012063
:10113000E3E70220E1E7E08C401EE084A068B0F520
:10114000805F09D04346002280212046009600F0AF
:1011500035FAB0B10320D0E7434600228021204673
:10116000009600F02BFA08B10320C6E72888216812
:10117000C0F308004860206908B16D1C05E0AD1C93
:1011800003E0216815F8010B4860E08C0028D2D1FB
:101190004346002240212046009600F00FFA08B195
:1011A0000320AAE720203834607027700020A4E7CD
:1011B000FEE700002DE9F04385B00024019402947D
:1011C000039404942648816941F01001816181698A
:1011D00001F010010091816941F004018161816990
:1011E00001F004010091816941F008018161806989
:1011F00000F008000090DFF86C80012223214046B7
:10120000FFF754F9DFF860904FF4807700223946F9
:101210004846FFF74BF9780101900294039401A925
:101220001248FFF739F8012501950294039401A9AA
:101230004846FFF731F823200190029503940326D6
:10124000049601A94046FFF727F8019702950394F9
:10125000049601A94846FFF71FF805B0BDE8F083E2
:1012600000100240000C0140000801400010014045
:1012700010B50D480B4901600C49416000218160A7
:10128000C1604FF48042026141618161C1610162CC
:10129000FFF71AF9002803D0BDE81040FEF7FABFA7
:1012A00010BD000000540040E8000020A0860100AE
:1012B00010B50D480B4901600C4941600021816067
:1012C000C1604FF48042026141618161C16101628C
:1012D000FFF7FAF8002803D0BDE81040FEF7DABFA8
:1012E00010BD0000005800403C010020A086010015
:1012F00010B50C480A4901604FF4E131416000210A
:101300008160C16001610C2242618161C161FFF7AE
:1013100077FE002803D0BDE81040FEF7BBBF10BD2C
:101320000038014090010020FEE7704708B50749EA
:101330004FF4FA520968B1FBF2F14143009100BF4A
:101340000098411E0091FAD208BD00007C000020E8
:1013500010B501F0D1F9012803D0BDE8104001F02B
:1013600085B910BD30B58FB0282105A8FEF74FFF15
:1013700014216846FEF74BFF0121059108040690F1
:1013800000240794099102250C950D904FF4E0106C
:101390000E9005A8FFF780FB08B1FEF77BFF0F203A
:1013A0000090019502944FF4806003900494022110
:1013B0006846FFF749FA002801D0FEF76BFF0FB02F
:1013C00030BD00000D48016841F001010160416835
:1013D0000B4A1140416001680A4A114001600168EE
:1013E00021F480210160416821F4FE0141604FF445
:1013F0001F0181600449C00308607047001002406B
:101400000000FFF8FFFFF6FE08ED00E00148FFF7DF
:1014100036BD0000D00100202DE9F04102681D4DCD
:101420001D4E1E4FDFF878C01E4B4FF08048A8427B
:1014300009D0984207D0404505D0B04203D0B84209
:1014400001D0604503D122F070044A682243A842CB
:1014500009D0984207D0404505D0B04203D0B842E9
:1014600001D0604503D122F44074CA6822434C691C
:1014700022F08002224302608A68C2620A688262A5
:10148000A84201D0984201D109690163012141615B
:10149000BDE8F081002C014000040040000800403D
:1014A000000C0040003401402DE9F0410446206862
:1014B0000169E26821F4405111430161A16820698A
:1014C0000143606901432068C26841F20C639A439A
:1014D0000A43C26020684169A26921F44071114346
:1014E00041613549206864253226884232D1FFF7B0
:1014F00089FA00EBC00101EB001061686FF018077A
:101500008900B0FBF1F2B2FBF5F2B0FBF1F37A43E4
:1015100003EB8202B0FBF1F306EB0212B2FBF5F231
:10152000B3FBF5F302F0F00202EB0312B0FBF1F3B0
:10153000B0FBF1F0B0FBF5F0784303EB800006EB75
:101540000010B0FBF5F0216800F00F001044886037
:10155000BDE8F081FFF746FA00EBC00101EB001097
:1015600061686FF018078900B0FBF1F2B2FBF5F289
:10157000B0FBF1F37A4303EB8202B0FBF1F306EB2D
:101580000212B2FBF5F2B3FBF5F302F0F00202EB4C
:101590000312B0FBF1F3B0FBF1F0B0FBF5F07843D0
:1015A00003EB800006EB0010B0FBF5F0216800F0C3
:1015B0000F0010448860CBE7003801402DE9F0416E
:1015C00004460E4617469846069D1DE0681C1BD033
:1015D0002DB1FEF773FFA0EB0800A84214D92068D4
:1015E000C16821F4D071C1602068416921F0010116
:1015F0004161202084F8390084F83A00002084F802
:1016000038000320BDE8F0812068006836EA000059
:1016100004D00020B842D9D00020F3E70120F9E738
:1016200038B5144C20680168134A890608D5456806
:1016300011884B1C1380114B5D546FF02001016029
:1016400020680068C00613D5002010800C48694649
:10165000006800F0D7FE0098012806D1094900076C
:101660000860BFF34F8FBFF36F8F20680168406839
:1016700038BD0000900100200C00002084000020F4
:101680000800002004ED00E0FEE700000FB4054B69
:1016900010B503A9044A029800F028F810BC5DF8C0
:1016A00014FB0000A5180008800000200907090E9F
:1016B000002804DB00F1E02080F80014704700F0FF
:1016C0000F0000F1E02080F8141D704702E008C808
:1016D000121F08C1002AFAD170477047002001E0AC
:1016E00001C1121F002AFBD1704700002DE9FF4FF6
:1016F0008BB09A460F460546002606E025280BD0FB
:1017000052460D9990476D1C761C28780028F5D11B
:101710000FB03046BDE8F08F0024A046012260499A
:1017200000E0044315F8013F203B02FA03F00842B1
:10173000F7D128782E2817D115F8010F44F00404AA
:101740002A280ED06FF02F022878A0F13001092945
:101750000AD808EB880102EB410100EB01086D1C7F
:10176000F2E757F8048B6D1C287869283ED006DC18
:101770000028CDD063280BD0642804D136E073282C
:1017800010D075284BD052460D999047761C85E0B5
:1017900017F8040B8DF8000000208DF80100E946D1
:1017A000012003E057F8049B4FF0FF3061074FF032
:1017B000000401D40AE0641C44450DDA8442FADBDB
:1017C00019F804100029F6D106E0641C8442FCDB01
:1017D00019F804100029F8D1264404E019F8010B87
:1017E00052460D999047641EF8D257E001CF4FF052
:1017F0000A0B002802DA40422D2102E0210504D51F
:101800002B218DF82410012103E0E10705D02021D0
:10181000F7E70DF1200908910CE00021F9E701CF6D
:101820004FF00A0BF9E75946FEF70AFD01F13002C5
:1018300009F8012D0028F6D1ADEB090000F1200BCD
:10184000600701D44FF00108D84502DDA8EB0B007A
:1018500000E000208046002406E009A85246005D12
:101860000D999047641C761C08988442F5DB04E0CF
:10187000302052460D999047761CB8F10001A8F12E
:101880000108F5DC05E019F8010B52460D99904767
:10189000761CBBF10001ABF1010BF4DC6D1C34E7ED
:1018A0000928010013B54FF6FF730122694602486B
:1018B000FFF718FC00981CBD900100201CB5FEF736
:1018C00019FFFFF74FFDFFF775FCFFF711FDFFF75D
:1018D000CFFCFFF7EDFC10496FF010000A681060B4
:1018E0000A686FF0200010600868C26842F01002B9
:1018F000C2600868C16841F02001C1600748012149
:10190000CDE900100023802205A1084800F0C4FEA4
:1019100000F0E4FDFEE70000900100200000002040
:1019200073746172745F7461736B00000D1E000844
:101930002DE9F04104460F46174EF5683068001D4A
:1019400000F06AFB38B9306890F82C10012088400C
:10195000316981433161601C07D137B13168BDE81D
:10196000F041091D0D4800F08FBB2C4430684460E5
:10197000AC4206D23168B06B091DBDE8F04100F001
:101980006BBB3168706B091D00F066FBB06A844266
:1019900000D2B462BDE8F08110000020E004002015
:1019A00070B5044600F07CFB1C4DA868401CA86084
:1019B000286810B1686938B10CE02C60A86801286B
:1019C00008D100F0F5F805E02868E16AC06A8842AD
:1019D00000D82C60686A401C6862E06A01212A69AC
:1019E0008140114329610E4900EB800001EB80002A
:1019F000211D00F049FB00F08FFB686900280CD026
:101A00002868E16AC06A884207D206494FF08050D0
:101A10000860BFF34F8FBFF36F8F70BD10000020C1
:101A20001002002004ED00E070B5124E124D1CE0D3
:101A300000F09AFD306820B1002400F0E1FEA4B966
:101A400001E00124F9E700F02BFBF068C468201DD9
:101A500000F0E2FAA868401EA8606868401E68604E
:101A600000F05AFB204600F009F868680028DFD132
:101A700070BD0000CC0400201000002010B504460A
:101A8000206B00F07DFB2046BDE8104000F078BBE5
:101A90004FF410410F48420706D0C01D20F0070048
:101AA0000C49411AC1F510410B4A106000235360E4
:101AB0000144083921F00701103A11604B600B60B6
:101AC0000B1A436001604068906050604FF0004026
:101AD000D0607047F404002068000020074E4FF0EB
:101AE0008054074DFFF7A0FF30680128FAD92C6019
:101AF000BFF34F8FBFF36F8FF4E700001002002099
:101B000004ED00E02DE9F047DDE908580A9C814624
:101B10000E469A46206B521E00EB820020F007070B
:101B2000780705D040F22B3218A11DA0FFF7AEFDBB
:101B300000202218315C82F83410315C11B1401C55
:101B40001028F6D3002684F84360202D00D31F25EB
:101B5000E562201D00F07DFA04F1180000F079FA2A
:101B60002461C5F12000A0616462666484F8486065
:101B700052464946384600F03BF92060B8F1000F64
:101B800001D0C8F80040BDE8F08700002E2E5C466A
:101B900072656552544F535C7461736B732E6300AE
:101BA0004572726F723A2025732C2025640D0A004D
:101BB00070B50024114D04EB840005EB800000F0AB
:101BC0003DFA641C202CF6D30D4800F037FA0C487F
:101BD000143000F033FA0A48283000F02FFA084891
:101BE0003C3000F02BFA0648503000F027FA054848
:101BF000034941631431816370BD0000100200206D
:101C0000900400201000002030B5134900E0114678
:101C10000A688242FBD34B685C18844203D1406857
:101C20001844486008460D6844682318AB420DD13B
:101C3000094B103B1B689A4206D05268224442600E
:101C40000A681268026002E0036000E002608142FC
:101C500000D0086030BD0000680000200748416BDC
:101C60000968002905D0416BC968C9684968816263
:101C700070474FF0FF318162704700001000002074
:101C800008484068401C04D0F42207A111A0FFF7C7
:101C9000FDFC502080F31188BFF34F8FBFF36F8F8F
:101CA000FEE700004C0000202E2E5C467265655257
:101CB000544F535C706F727461626C655C52564431
:101CC000535C41524D5F434D335C706F72742E63B1
:101CD000000000004572726F723A2025732C202597
:101CE000640D0A002DE9F0410546002600F03CFC99
:101CF000304F386808B9FFF7CBFEF86805424BD182
:101D000075B1083568070BD005F00700C0F1080071
:101D10000544680704D0BF2227A131A0FFF7B6FC15
:101D2000002D39D07868854236D8224910310846CE
:101D3000046801E0214604466068A84202D2206897
:101D40000028F7D13868844226D00E68083620680B
:101D500008606068401B102811D904EB05085FEA91
:101D6000487004D0EC2214A11DA0FFF78FFC60681E
:101D7000401BC8F8040065604046FFF745FF6168F6
:101D80007868401A7860BA68904200D2B860F86803
:101D9000014361600020206000F032FD700705D033
:101DA0004FF4967204A10EA0FFF770FC3046BDE818
:101DB000F0810000580000202E2E5C4672656552AE
:101DC000544F535C706F727461626C655C4D656DED
:101DD0004D616E675C686561705F342E6300000062
:101DE0004572726F723A2025732C2025640D0A000B
:101DF00020384FF08073C36121F0010181610249F5
:101E0000416140F820297047811C00081CB500F092
:101E100047F90F480221CDE90010002380220DA1CF
:101E20000F4800F039FC0A480321001DCDE90010DD
:101E3000002380220BA10E4800F02EFC00F06CF96C
:101E40000348001F0068BDE81C4000F075BA0000A0
:101E5000040000207461736B315F7461736B000068
:101E6000751E00087461736B325F7461736B0000E0
:101E7000991E00084FF47A7403A0FFF707FC204670
:101E800000F022FAF8E700007461736B312072757C
:101E90006E6E696E670D0A000025284C6E1E314675
:101EA000012000F085F826A12748FEF7BBF968B9A4
:101EB0002248001D016841F020010160206840F0C7
:101EC00001002060206840F0020020601FA11E4831
:101ED000FEF7A8F958B9206840F02000206020687B
:101EE00040F001002060206840F00200206019A14D
:101EF0001548FEF797F920B91848016841F4807138
:101F0000016017A11048FEF78DF928B91348001D8C
:101F1000016841F4807101600B4914A0FFF7B6FB22
:101F200064210948FEF773F96D1CA9B20D4618A08B
:101F3000FFF7ACFB142000F0C7F9B0E7100C01402C
:101F40004C45445F4F4E0000840000204C45445FE8
:101F50004F464600424545505F4F4E001008014035
:101F6000424545505F4F464600000000BDD3CAD5EC
:101F7000B5BDC8CECEF1CDA8D6AAA3ACB4AEBFDA5B
:101F8000D6B8C1EECEAA20222573220A0000000096
:101F90007765206765742025642074696D657320FA
:101FA0007461736B5F6E6F746966790A000000007C
:101FB00070B506460C4600F073F8154D2868406C65
:101FC00080B92A68012082F848005CB101212046CE
:101FD000FFF7AEFC0F494FF080500860BFF34F8F02
:101FE000BFF36F8F00F098F800F05AF82868446C3F
:101FF000002034B116B12968486402E02A68611EE5
:102000005164296881F8480000F086F8204670BDC8
:102010001000002004ED00E00169D0E901329A606F
:10202000D0E901235A604A68824201D182684A603D
:10203000002202610868401E0860704700F1080134
:1020400041604FF0FF328260C16001610021016098
:10205000704700210161704730B50C68621C02D0E6
:1020600000F1080202E0026904E01A4653681D68A4
:10207000A542FAD953684B6099608A605160086143
:102080000168491C016030BD42684A6093688B60FA
:1020900093685960916008610168491C016070474C
:1020A000502080F31188BFF34F8FBFF36F8F094922
:1020B0004868401C486001280AD10748006810F0B1
:1020C000FF0F05D04FF4BD7204A10FA0FFF7DEBAD9
:1020D000704700004C00002004ED00E02E2E5C460E
:1020E00072656552544F535C706F727461626C65B7
:1020F0005C525644535C41524D5F434D335C706FAC
:1021000072742E63000000004572726F723A2025CF
:10211000732C2025640D0A0010B5094C6068002856
:1021200005D140F2811207A111A0FFF7AFFA606854
:10213000401E6060002801D180F3118810BD0000AE
:102140004C0000202E2E5C4672656552544F535C45
:10215000706F727461626C655C525644535C41529C
:102160004D5F434D335C706F72742E63000000004E
:102170004572726F723A2025732C2025640D0A0077
:1021800070B500282AD008380446154D6068E96803
:10219000084205D14FF4A07212A11CA0FFF776FAF5
:1021A000206828B140F241120EA118A0FFF76EFA84
:1021B0006068E968084211D02268002A0ED188437D
:1021C000606000F0D1F96068696808446860204682
:1021D000FFF71AFDBDE8704000F012BB70BD0000B3
:1021E000580000202E2E5C4672656552544F535C99
:1021F000706F727461626C655C4D656D4D616E6788
:102200005C686561705F342E630000004572726F18
:10221000723A2025732C2025640D0A0006484FF4DD
:102220007A710068B0FBF1F14FF0E020491E416186
:1022300007210161704700007C00002010B5FDF708
:10224000C9FF104C10280CD300F1E02090F8F003E7
:102250002178884205D24FF42A720BA115A0FFF70E
:1022600015FA18480068A16800F4E060884207D9B0
:10227000BDE810404FF42E7203A10EA0FFF706BA7E
:1022800010BD00004C0000202E2E5C467265655289
:10229000544F535C706F727461626C655C5256444B
:1022A000535C41524D5F434D335C706F72742E63CB
:1022B000000000004572726F723A2025732C2025B1
:1022C000640D0A000CED00E010B504460020002C5F
:1022D00010D00E48006B28B140F2CF420CA111A0E3
:1022E000FFF7D4F900F040F900212046FFF720FB6A
:1022F00000F086FA002807D10E494FF080500860A0
:10230000BFF34F8FBFF36F8F10BD00001000002090
:102310002E2E5C4672656552544F535C7461736B2C
:10232000732E63004572726F723A2025732C20253C
:10233000640D0A0004ED00E070B50446FFF7B0FE3E
:10234000234D04B92C68201DFFF766FE58B9E06ADA
:10235000204A00EB800152F8211021B9012181406F
:10236000286988432861A06A18B104F11800FFF7B2
:1023700053FE686A401C68622868844207D1211DA8
:102380001548FFF781FE6868401C686007E0A86890
:10239000401EA8602046FFF771FBFFF75FFCFFF7C8
:1023A000BBFE6869002812D0286884420FD1286BD0
:1023B00028B140F2654209A10DA0FFF767F9104965
:1023C0004FF080500860BFF34F8FBFF36F8F70BD29
:1023D0001000002010020020CC0400202E2E5C46AD
:1023E00072656552544F535C7461736B732E630056
:1023F0004572726F723A2025732C2025640D0A00F5
:1024000004ED00E02DE9F04104468846002C05D19A
:1024100041F2E31225A12AA0FFF738F9FFF70EFFDA
:102420005020EFF3118780F31188BFF34F8FBFF374
:102430006F8F94F84800022184F84810616C491CA1
:10244000616401282ED1A06A28B141F2092217A1A6
:102450001BA0FFF71BF91E4D286B012678B104F174
:1024600018011C48FFF710FEE06A2968C96A884213
:1024700018D9B8F1000F14D0C8F8006012E0201D80
:10248000FFF7CAFDE06A2A6906FA00F111432961E3
:10249000114900EB800001EB8000211DFFF7F4FDE6
:1024A000E2E7EE6187F31188BDE8F0812E2E5C46ED
:1024B00072656552544F535C7461736B732E630085
:1024C0004572726F723A2025732C2025640D0A0024
:1024D00010000020B8040020100200201CB5154890
:1024E0000024CDE900402346802213A1144800F0C7
:1024F000D3F801280AD0401C1BD102B040F28472EC
:10250000BDE810400FA114A0FFF7C0B8502080F321
:102510001188BFF34F8FBFF36F8F06484FF0FF3125
:102520002C38816201214161C460BDE81C4000F08B
:1025300063B81CBD3C00002049444C45000000002D
:10254000DD1A00082E2E5C4672656552544F535CAE
:102550007461736B732E63004572726F723A20253B
:10256000732C2025640D0A000248016B491C01638D
:10257000704700001000002070B5144D286B002833
:1025800002D00120E86170BD0020E8612869B0FA3E
:1025900080F0C0F11F000E4E00EB800456F82400BE
:1025A00028B940F6F6220BA10FA0FFF76FF806EB53
:1025B000840041684968416000F10802914201D1FC
:1025C000496841604068C068286070BD1000002004
:1025D000100200202E2E5C4672656552544F535CEB
:1025E0007461736B732E63004572726F723A2025AB
:1025F000732C2025640D0A001CB519490878019038
:10260000FF200870087800909DF80000154A00F03F
:10261000500010700720906006E09068401E9060A7
:102620009DF80000400000909DF800000006F4D4E2
:10263000107A000200F4E0609060019808700A4887
:10264000016841F470010160016841F0704101606E
:10265000FFF7E4FD00205060FDF786FD00201CBD63
:1026600000E400E04C00002020ED00E010B5502018
:1026700080F31188BFF34F8FBFF36F8F00F04AF8DC
:1026800018B104494FF080500860002080F3118891
:1026900010BD000004ED00E02DE9FF5F8146DDE99B
:1026A0000E788A4616469B46B000FFF71BFB054690
:1026B00028000AD04C20FFF715FB04460CB1256317
:1026C00004E02846FFF75CFD00E000248CB1002008
:1026D000CDE90240CDE900785B4632465146484696
:1026E000FFF710FA2046FFF75BF9012004B0BDE8C0
:1026F000F09F4FF0FF30F9E705484169002903D00A
:10270000006B18B10020704701207047022070470D
:10271000100000202DE9F04100262E4F386B0028D4
:1027200008D0B869401CB861F86900B1012630468C
:10273000BDE8F081FD686D1CFD608DB9786B0068A7
:1027400028B140F6D91224A128A0FEF79FFF786B8C
:10275000B96B7963B863386A401C3862FFF77EFA58
:10276000B86ADFF8988085420DD3786B006838B17D
:10277000786BC068C468606885420ED2B86202E0B7
:102780004FF0FF30B8623868C06A00EB800058F83C
:1027900020000128C8D90126C6E7201DFFF73CFC10
:1027A000A06A18B104F11800FFF736FCE06A0121B5
:1027B0003A6981401143396100EB800008EB8000E9
:1027C000211DFFF761FCE06A3968C96A8842CCD3F1
:1027D0000126CAE7100000202E2E5C467265655265
:1027E000544F535C7461736B732E63004572726F48
:1027F000723A2025732C2025640D0A001002002057
:102800002DE9F041002400272B4D286B002805D12D
:102810004FF4FD6229A12EA0FEF738FFFFF740FC20
:10282000286B401E2863286BF0BBA868E0B3DFF874
:10283000B08001261DE0D8F80C00C46804F118002F
:10284000FFF7EAFB201DFFF7E7FBE06A2A6906FABB
:1028500000F111432961234900EB800001EB800066
:10286000211DFFF711FCE06A2968C96A884200D37C
:10287000EE61D8F800000028DDD10CB1FFF7EEF9C9
:10288000AC6944B1FFF746FF00B1EE61641E002C55
:10289000F8D10020A861E86930B101271249380752
:1028A0000860BFF34F8F00E001E0BFF36F8FFFF7C9
:1028B00033FC3846BDE8F081100000202E2E5C4627
:1028C00072656552544F535C7461736B732E630071
:1028D0004572726F723A2025732C2025640D0A0010
:1028E000B80400201002002004ED00E00000000009
:1028F00000000000010203040607080900000000B0
:1029000001020304242900080000002084000000C4
:10291000CC160008A8290008840000207498000044
:10292000DC160008000000000000000000000000AD
:102930000000000000000000000000000000000097
:102940000000000000000000000000000000000087
:102950000000000000000000000000000000000077
:102960000000000000000000000000000000000067
:1029700000000000AAAAAAAA0000000000000000AF
:102980000000000000000000000000000000000047
:102990000000000001000000100000000000000026
:0829A0000024F4000000000017
:0400000508000131BD
:00000001FF
