:020000040800F2
:10000000E0980020DD01000843170008891500086A
:100010004117000895020008291C00080000000094
:100020000000000000000000000000004501000882
:100030009702000800000000890100086917000805
:10004000F7010008F7010008F7010008F7010008B0
:10005000F7010008F7010008F7010008F7010008A0
:10006000F7010008F7010008F7010008F701000890
:10007000F7010008F7010008F7010008F701000880
:10008000F7010008F7010008F7010008F701000870
:10009000F7010008F7010008F7010008F701000860
:1000A000F7010008F7010008F7010008F701000850
:1000B0002518000831180008F7010008F7010008AA
:1000C000F7010008F7010008F7010008F701000830
:1000D000F70100081D1C0008F7010008F7010008DF
:1000E000F7010008F7010008F7010008F701000810
:1000F000F7010008F7010008F7010008F701000800
:10010000F7010008F7010008F7010008F7010008EF
:10011000F7010008F7010008F7010008F7010008DF
:10012000F7010008F7010008F7010008F7010008CF
:10013000DFF80CD000F09CF800480047611F000871
:10014000E0980020224B19680868B0E8F00F80F3AF
:100150000988BFF36F8F4FF0000080F311884EF0D5
:100160000D0E70470000000006480068006880F32C
:10017000088862B661B6BFF34F8FBFF36F8F00DFA1
:1001800000BF00BF08ED00E0EFF30980BFF36F8F01
:100190000F4B1A6820E9F00F106008B54FF05000BF
:1001A00080F31188BFF34F8FBFF36F8F02F052FDC2
:1001B0004FF0000080F31188BDE808401968086816
:1001C000B0E8F00F80F30988BFF36F8F704700BF6E
:1001D00018000020EFF305807047000006488047B4
:1001E00006480047FEE7FEE7FEE7FEE7FEE7FEE71C
:1001F000FEE7FEE7FEE7FEE7DD1700083101000835
:10020000D2B201E000F8012B491EFBD27047002258
:10021000F6E710B513460A4604461946FFF7F0FF05
:10022000204610BD421C10F8011B0029FBD1801A8A
:100230007047034611F8012B00F8012B002AF9D171
:100240001846704730B50B46014600202022012495
:1002500009E021FA02F59D4205D303FA02F5491B94
:1002600004FA02F52844151EA2F10102F1DC30BDAA
:10027000064C074D06E0E06840F0010394E80700F3
:1002800098471034AC42F6D3FFF756FF0030000811
:1002900020300008FEE77047704700002DE9F05F4E
:1002A000002590F82110022903D004218163012543
:1002B00095E001680A6822F00E020A6001680A6887
:1002C00022F001020A60474E464FB215DFF814C112
:1002D000DFF81081DFF80C91DFF808A1DFF804B136
:1002E0000168783F13011402ACF1640CA8F15008C6
:1002F000A9F13C09AAF1280AABF1140B4FF4801EB6
:10030000B1422FD9B94201D1012227E0614501D183
:10031000102223E0414521D0494501D11A461DE074
:10032000514501D1224619E0594501D1724615E0E7
:100330002D4EB14201D1012210E02B4E1436B142B4
:1003400001D110220AE0284E2836B14206D0264AB2
:100350003C32914201D11A4600E022462249091F4F
:100360000A6033E0B94201D101222CE0614501D19C
:10037000102228E0414526D0494501D11A4622E005
:10038000514501D122461EE0594501D172461AE07D
:10039000B14202D14FF0807215E0134EB14201D14B
:1003A000012210E0104E1436B14201D110220AE0B1
:1003B0000D4E2836B14206D00B4A3C32914201D153
:1003C0001A4600E02246074980394A60012180F838
:1003D0002110002180F82010416B01B18847284688
:1003E000BDE8F09F80000240080402402DE9F84F6C
:1003F00000240023DFF8E0914FF00F0809F1040A10
:100400000AF1040B0BF1040EDFE00127A7403A408C
:10041000BA4275D1DFF8C4C14D68A5EB0C0665453D
:100420002BD00DDC032D34D005DC35B3012D19D0D4
:10043000022D2FD11BE0112D16D0122D2AD119E03B
:10044000B6F5881F19D006DCB6F5803F15D0B6F595
:10045000801F1FD111E0B6F5001F0ED0B6F5041FA6
:1004600018D10AE0CB6815E0CB681B1D12E0CB6801
:1004700008330FE0CB680C330CE08B6823B1012B01
:1004800004D00823476105E0042303E00823076143
:1004900000E00023FF2A01D8054601E000F1040531
:1004A00002D84FEA840603E0A4F108064FEA860664
:1004B0002F6808FA06FC27EA0C0703FA06F647EA53
:1004C00006072F604D68ED007ED5454DAE6946F0BC
:1004D0000106AE61AD6905F001050095414D24F0BE
:1004E00003067719BE68A5072D0F08FA05FC26EA52
:1004F0000C06DFF8F4C0604503D14FF0000C25E096
:1005000062E0DFF8E8C0604502D14FF0010C1DE069
:10051000DFF8DCC0604502D14FF0020C16E0DFF8D6
:10052000D4C0604502D14FF0030C0FE0DFF8C8C023
:10053000604502D14FF0040C08E0DFF8C0C0604510
:1005400002D14FF0050C01E04FF0060C0CFA05FC4F
:100550004CEA060CC7F808C04D68ED0305D5D9F87C
:1005600000501543C9F8005004E0D9F800509543F5
:10057000C9F800504D68AD0305D5DAF800501543B1
:10058000CAF8005004E0DAF800509543CAF8005069
:100590004D68ED0205D5DBF800501543CBF800504F
:1005A00004E0DBF800509543CBF800504D68AD02F5
:1005B00005D5DEF800501543CEF8005004E0DEF813
:1005C00000509543CEF80050641C0A6832FA04F5D6
:1005D0007FF41BAFBDE8F88F00040140000011104C
:1005E000001002400000014000080140000C0140E2
:1005F000001001400014014000180140001C01409F
:100600008068084201D00120704700207047002A0E
:1006100001D0016170470904016170470148806899
:10062000704700008000002070B50446002C04D004
:1006300094F83D00002510B106E0012070BD84F85B
:100640003C50204600F0B2F8242084F83D00206899
:10065000016821F00101016000F074FA4F4B6168FC
:10066000994203D84E49884203D304E04D49884259
:1006700001D2012070BD4C49B0FBF1F122685668EF
:1006800026F03F060E43566062689A4201D8491C24
:1006900007E04FF4967251434FF47A72B1FBF2F1D6
:1006A000491C2268166A26F03F06314311626168D0
:1006B000994210D84900401EB0FBF1F2521CC2F31F
:1006C0000B02042A01D2042022E0B0FBF1F0401C0E
:1006D000C0F30B001CE0A268F2B301EBC10303EB13
:1006E0000116431EB3FBF6F35B1C43F480431B056A
:1006F00049D092B301EBC10202EB0111401EB0FBE5
:10070000F1F0401CC0F30B0040F4804040F4004086
:100710002168CA694CF6FF739A431043C861D4E953
:10072000071001432068026822F0C00211430160F3
:10073000D4E9030101432068826848F2FF339A43F9
:1007400011438160D4E9051001432068C26822F09A
:10075000FF021143C16001E00EE016E0206801686D
:1007600041F0010101602564202084F83D002563EB
:1007700084F83E50002070BD01EB4106431EB3FBE0
:10078000F6F35B1CB3E70120C2E701EB4101401E19
:10079000B0FBF1F0401CC0F30B00B7E7A0860100EE
:1007A00080841E0000093D0040420F0030B585B036
:1007B000002101910291039104911E4D01681E4C8C
:1007C000122203231D48A94218D1A16941F0080152
:1007D000A161A16901F008010091C021019102927B
:1007E000049301A9FFF702FEE06940F40010E06104
:1007F000E06900F40010009005B030BD104DA94232
:10080000FAD1A16941F00801A161A16901F00801D3
:1008100000914FF4406101910292049301A9FFF706
:10082000E5FDE06940F48000E061E06900F48000EB
:100830000090E1E70054004000100240000C01402D
:100840000058004002488168027811448160704776
:100850008000002010B50748016841F010010160D8
:10086000032000F08FF8002000F006F800F03EF8BA
:10087000002010BD0020024000B587B001460022D4
:100880001C2000F05FF81C2000F04EF81448C169ED
:1008900041F00101C161C06900F00100009001A9AF
:1008A00002A800F02BF900F04DF940000D49B0FB13
:1008B000F1F1491E0C484FF08042026040F2E732ED
:1008C000C260416000210161816000F07AFB10B1DB
:1008D000012007B000BD044800F0AEFBF9E70000BE
:1008E0000010024040420F00BC01002008B50C4837
:1008F000816941F001018161816901F0010100918B
:10090000C16941F08051C161C06900F08050009020
:100910000449486820F0E06040F00070486008BD7D
:100920000010024000000140002809DB00F01F0217
:10093000012191404009800000F1E020C0F8001141
:1009400070470000F0B40D460D4B1B68C3F3022343
:10095000C3F10704042C00D90424191D072901D26E
:10096000002300E0DB1E012606FA04F1491E29409F
:1009700099409E40761E16403143F0BC01F07AB992
:100980000CED00E000F00701054A10684FF6FF0388
:10099000184040EA012003490843106070470000F6
:1009A0000CED00E00000FA052DE9F04704460D4685
:1009B000002C17D0DFF83081D8F8000000F00700D5
:1009C000A84211D2D8F8000020F007002843C8F848
:1009D0000000D8F8000000F00700A84204D0012071
:1009E000BDE8F0870120FBE72068404E810712D563
:1009F000400703D5706840F4E0607060207800071D
:100A000003D5706840F4605070607068A16820F091
:100A1000F000084370602078C0072CD0606801287F
:100A200006D0022809D0316889070BD40120D7E706
:100A30003168890306D40120D2E73168890101D4E5
:100A40000120CDE7716821F0030101437160FFF7D8
:100A5000E5FD074641F2883906E0FFF7DFFDC01BE0
:100A6000484501D90320BBE77068616800F00C00BD
:100A7000B0EB810FF1D1D8F8000000F00700A842D8
:100A80000ED9D8F8000020F007002843C8F800006D
:100A9000D8F8000000F00700A84201D001209FE72D
:100AA0002078400705D57068E16820F4E0600843CD
:100AB00070602078000706D57068216920F46050C6
:100AC00040EAC100706000F05DF87168084AC1F347
:100AD0000311515CC8400749086007480068FFF7E8
:100AE000CBFE00207CE70000002002400010024006
:100AF000E82F00088C000020840000200F220260F4
:100B00000B4A536803F003034360536803F0F00398
:100B10008360536803F4E063C360526802F4605278
:100B2000D20802610348006800F0070008607047BF
:100B30000010024000200240014800687047000099
:100B40008C00002000B5FFF7F7FF04494968044A0C
:100B5000C1F30221515CC84000BD000000100240FA
:100B6000F82F000800B5FFF7E7FF04494968044A79
:100B7000C1F3C221515CC84000BD0000001002401A
:100B8000F82F000885B014A090E80E00C068CDE9E9
:100B900002230191049014A000680090134B59683F
:100BA000134801F00C02042A10D0082A0ED101A823
:100BB000C1F38342805CC9030AD55968C1F340413F
:100BC0001DF801100A4A5043B0FBF1F005B0704720
:100BD00008494843FAE7000002030405060708092C
:100BE0000A0B0C0D0E0F1010010200000010024045
:100BF00000127A0000093D002DE9F84F0446002C50
:100C00000ED02078D94DC0075ED06868C0F381004F
:100C100001280BD06868C0F38100022803D00CE0E3
:100C20000120BDE8F88F6868C00306D528688003F6
:100C30004AD56068A8BB0120F3E76068B0F5803F43
:100C400011D0A8B1B0F5A02F1BD0286820F48030B7
:100C50002860286820F480202860606830B3FFF79F
:100C6000DDFC06461EE0286840F480302860F4E78A
:100C7000286820F480302860286820F480202860CC
:100C8000EBE7286840F480202860286840F4803032
:100C90002860E2E7FFF7C2FC801B642802D903202A
:100CA000BFE711E028688003F4D50DE0FFF7B6FC3C
:100CB000064606E0FFF7B2FC801B642801D903203A
:100CC000AFE728688003F5D42078DFF8A482800796
:100CD0004FF0010A4FF0000945D5686810F00C0F7D
:100CE00007D06868C0F38100022812D16868C00389
:100CF0000FD42868800704D52069012801D001207D
:100D00008FE72868616920F0F80040EAC100286098
:100D100029E02069B8B1C8F800A0FFF77FFC0646BB
:100D200006E0FFF77BFC801B022801D9032078E74F
:100D300028688007F5D52868616920F0F80040EA46
:100D4000C10028600FE0C8F80090FFF767FC064676
:100D500006E0FFF763FC801B022801D9032060E74F
:100D600028688007F5D42078000726D58148A16936
:100D700099B1C0F800A0FFF751FC064606E0FFF766
:100D80004DFC801B022801D903204AE7686A8007CE
:100D9000F5D5012000F0D6FC0FE0C0F80090FFF779
:100DA0003DFC064606E0FFF739FC801B022801D90E
:100DB000032036E7686A8007F5D42078400773D5AA
:100DC0000026E869C00008D4E86940F08050E86176
:100DD000E86900F0805000900126DFF89CB1DBF854
:100DE0000000C00514D4DBF8000040F48070CBF89C
:100DF0000000FFF713FC074606E0FFF70FFCC01BDF
:100E0000642801D903200CE7DBF80000C005F4D505
:100E1000E068012812D0B0B105281DD0286A20F062
:100E200001002862286A20F004002862E06841F28C
:100E3000883B28B3FFF7F2FB07461DE0286A40F025
:100E400001002862F2E7286A20F001002862286A7F
:100E500020F004002862E9E7286A40F004002862D4
:100E6000286A40F001002862E0E7FFF7D7FBC01BCB
:100E7000584501D90320D4E6286A8007F5D50DE04E
:100E8000FFF7CCFB074606E0FFF7C8FBC01B584541
:100E900001D90320C5E6286A8007F5D4012E03D1C5
:100EA000E86920F08050E861E069A0B36968C1F3A7
:100EB0008101022946D0022805D0C8F86090FFF7CA
:100EC000ADFB04463AE0C8F86090FFF7A7FB064682
:100ED00006E0FFF7A3FB801B022801D90320A0E650
:100EE00028688001F5D4206AB0F5803F05D1686894
:100EF000A16820F4003008436860D4E90801084381
:100F0000696821F4741108436860C8F860A0FFF7AD
:100F100085FB044607E026E0FFF780FB001B022864
:100F200001D903207DE628688001F5D51BE0FFF795
:100F300075FB001B022801D9032072E62868800196
:100F4000F5D410E001280CD06868226A00F48031E2
:100F5000914204D1616A00F47010884203D00120EC
:100F60005FE601205DE600205BE600000010024025
:100F700000004242800442420070004070477047C7
:100F800070B590F83C20012A19D0012600F83C6F7A
:100F90000222427050F83C2C5468936824F070058B
:100FA0000C682C4323F0800349681943546050F8BF
:100FB0003C2C9160467000210170002070BD022021
:100FC00070BD10B50446002C03D094F83D0010B15C
:100FD00007E0012010BD002084F83C00204600F00E
:100FE0000DF8022084F83D00211D206800F038FC37
:100FF000012084F83D00002010BD000008B5006805
:101000000B49884212D10B48C16941F00201C1610C
:10101000C06900F002000090002202211D20FFF7AD
:1010200091FCBDE808401D20FFF77EBC08BD000014
:1010300000040040001002400168CA6842F001024A
:10104000CA600068816801F00701062903D00168C1
:1010500041F0010101600020704770B5044694F82A
:101060003C00012817D0012584F83C50022084F868
:101070003D002068826822F0770222F47F4282607D
:101080000868502831D00DDC20284DD005DCB0B3E5
:1010900010284ED148E0022070BD302844D04028AE
:1010A00047D137E060282BD0702806D0B0F5805F9C
:1010B0003FD0B0F5005F3CD10BE0CB68D1E9012116
:1010C000206800F015FC2068816841F0770181609C
:1010D0002FE0CB68D1E90121206800F009FC2068ED
:1010E000816841F48041816023E0CA6849682068D2
:1010F00000F010FC5021206800F004FC19E013E01F
:10110000CA684968206800F016FC6021206800F079
:10111000F9FB0EE0CA684968206800F0FBFB40213B
:10112000206800F0EFFB04E022680146104600F062
:10113000E9FB3C3465700020207070BD704770B5CD
:101140000446206801694FF00005C943890716D499
:10115000C168C943890712D4E91E016101202077C3
:1011600020688069800703D02046FFF7E7FF05E08D
:10117000204600F09BF8204600F099F8257720687B
:101180000169C943490718D4C168C943490714D440
:101190006FF004010161022020772068806910F45B
:1011A000407F03D02046FFF7C9FF05E0204600F04E
:1011B0007DF8204600F07BF8257720680169C94357
:1011C000090717D4C168C943090713D46FF0080190
:1011D0000161042020772068C069800703D0204681
:1011E000FFF7ACFF05E0204600F060F8204600F075
:1011F0005EF8257720680169C943C90618D4C1681B
:10120000C943C90614D46FF010010161082020778A
:101210002068C06910F4407F03D02046FFF78EFF9E
:1012200005E0204600F042F8204600F040F825771F
:1012300020680169C943C90708D1C168C943C90702
:1012400004D1891E0161204600F032F8206801694E
:10125000C943090609D4C168C943090605D46FF01A
:10126000800101612046FFF789FE20680169C943BA
:10127000490609D4C168C943490605D46FF0400145
:101280000161204600F01BF820680169C943890606
:101290000BD4C168C943890607D46FF020010161EE
:1012A0002046BDE87040FFF76ABE70BD70477047CA
:1012B0000068B0F1804F01D1FFF7C4BA70477047A2
:1012C0007047000070B5044622681068D168526902
:1012D00000F00F03002B08D1850606D58D0604D536
:1012E0002046BDE8704000F05BBB002B5ED002F0F2
:1012F000010301F490752B4358D0C30705D0CB05EB
:1013000003D5E36B43F00103E363430705D5D3073C
:1013100003D0E36B43F00203E363830705D5D307F0
:1013200003D0E36B43F00403E363030705D5D2075F
:1013300003D0E26B42F00802E263E26B002A2AD09B
:10134000800604D5880602D5204600F029FB2068D7
:101350004069C0F38010E16B090700D400B3204658
:1013600000F003FB20684169490615D5416921F069
:1013700040014161606B58B115494163606BFEF7F4
:101380008DFF002807D0606B416BBDE870400847B7
:101390002046FFF795FF70BD2046FFF791FF70BD17
:1013A0002046FFF78DFF0020E06370BD020606D5E2
:1013B0000A0604D52046BDE8704000F0C9BB4006CF
:1013C000F3D54806F1D52046BDE8704000F0DBBA01
:1013D0005B19000870B50446002C04D094F839005D
:1013E000002510B106E0012070BD84F83850204679
:1013F00000F022F8242084F839002068C16821F424
:101400000051C160204600F019FB2068016921F4F9
:10141000904101612068416921F02A014161206801
:10142000C16841F40051C160E563202084F83900AF
:1014300084F83A00002070BD30B585B000240194D6
:101440000294039404940068184988422CD11848E7
:10145000816941F480418161816901F48041009199
:10146000816941F004018161806900F0040000900D
:101470004FF40070019002200290032004900D4D63
:1014800001A92846FEF7B2FF2915019102940394A1
:1014900001A92846FEF7AAFF002205212520FFF713
:1014A00051FA2520FFF740FA05B030BD0038014061
:1014B000001002400008014070472DE9F84304463F
:1014C0000D4691461E4694F83900202802D002208D
:1014D000BDE8F883B5B1B9F1000F13D094F8380026
:1014E000012811D0012084F838000027E76321206B
:1014F00084F83900FFF792F88046A4F82490A4F805
:1015000026902DE00120E3E70220E1E7E08C401E79
:10151000E084A068B0F5805F09D0434600228021B6
:101520002046009600F047FBB0B10320D0E74346C9
:10153000002280212046009600F03DFB08B10320E8
:10154000C6E728882168C0F308004860206908B110
:101550006D1C05E0AD1C03E0216815F8010B486027
:10156000E08C0028D2D1434600224021204600963C
:1015700000F021FB08B10320AAE720203834607076
:1015800027700020A4E77047FEE7000070B586B022
:10159000002402940394049405941D48816941F049
:1015A00010018161816901F010010191816941F0AF
:1015B00004018161816901F004010191816941F0B7
:1015C00008018161806900F008000190114E01223C
:1015D00023213046FFF71BF8701402900394049403
:1015E00002A90D48FEF702FF012502950394049419
:1015F00002A90A48FEF7FAFE2320029003950494FC
:101600000320059002A93046FEF7F0FE06B070BD3B
:1016100000100240000C0140001001400008014091
:1016200010B50D480B4901600C49416000218160F3
:10163000C1604FF48042026141618161C161016218
:10164000FEF7F2FF002803D0BDE81040FEF724BEED
:1016500010BD00000054004094000020A08601004E
:1016600010B50D480B4901600C49416000218160B3
:10167000C1604FF48042026141618161C1610162D8
:10168000FEF7D2FF002803D0BDE81040FEF704BEED
:1016900010BD000000580040E8000020A0860100B6
:1016A00010B586B000240294039404940594009429
:1016B000019414481249016047214160846063210C
:1016C000C160046180218161FFF77BFC08B1FEF7F6
:1016D000E3FD4FF48050029002A90A48FFF7BDFCD9
:1016E00008B1FEF7D9FD0094019469460548FFF75B
:1016F00047FC002801D0FEF7CFFD06B010BD00006A
:10170000000400403C01002010B50C480A4901606B
:101710004FF4E131416000218160C16001610C2220
:1017200042618161C161FFF755FE002803D0BDE829
:101730001040FEF7B1BD10BD003801407C01002013
:10174000FEE7704708B507494FF4FA520968B1FB44
:10175000F2F14143009100BF0098411E0091FAD27E
:1017600008BD00008C00002010B501F043FB0128EB
:1017700003D0BDE8104001F0F7BA10BD30B58FB00E
:10178000282105A8FEF743FD14216846FEF73FFD1A
:10179000012105910804069000240794099102256F
:1017A0000C950D904FF4E0100E9005A8FFF724FA69
:1017B00008B1FEF771FD0F200090019502944FF4DF
:1017C00080600390049402216846FFF7EDF800283A
:1017D00001D0FEF761FD0FB030BD00000D4801687B
:1017E00041F00101016041680B4A1140416001680C
:1017F0000A4A11400160016821F4802101604168BA
:1018000021F4FE0141604FF41F0181600449C003CF
:1018100008607047001002400000FFF8FFFFF6FE6E
:1018200008ED00E00148FFF78ABC0000BC01002081
:10183000094801680869C043C00707D10748026822
:101840004368521C43F10003026043606FF00100E3
:1018500008610148FFF773BC3C0100201000002024
:101860002DE9F04102681D4D1D4E1E4FDFF878C076
:101870001E4B4FF08048A84209D0984207D04045FF
:1018800005D0B04203D0B84201D0604503D122F068
:1018900070044A682243A84209D0984207D04045C4
:1018A00005D0B04203D0B84201D0604503D122F444
:1018B0004074CA6822434C6922F0800222430260CD
:1018C0008A68C2620A688262A84201D0984201D145
:1018D0000969016301214161BDE8F081002C0140EB
:1018E0000004004000080040000C004000340140AB
:1018F00010B5846824F47F4442EA03220A43224359
:10190000826010BD826822F070020A4342F0070133
:101910008160704710B5036A046A24F00104046210
:10192000846924F0F00444EA021423F00A020A4312
:101930008461026210BD10B5036A23F010030362D4
:101940008469036A24F4704444EA023223F0A00359
:1019500043EA01118261016210BD10B5406A0021A5
:10196000C185C184FFF7ACFC10BD0168CA6822F4D0
:101970009072CA6001684A6922F001024A6120211E
:1019800080F83A10704710B50168CA6822F040022A
:10199000CA60202180F83910FFF7F5FD002010BD46
:1019A00010B590F83A10222901D0022010BD8168AC
:1019B000B1F5805F11D0016919B30168496801F080
:1019C0007F03816A4A1C82620B70C18D491E090423
:1019D000090CC1851CD0002010BD816A02693AB192
:1019E00002685268D2B20A80816A491C8162ECE7BF
:1019F00002685268C2F308020A80816A891C816207
:101A0000E3E701684A68816A4B1C83620A70DCE77D
:101A10000168CA6822F02002CA600168CA6822F41C
:101A20008072CA6001684A6922F001024A6120217D
:101A300080F83A10FFF740FD002010BD2DE9F0417D
:101A4000044620680169E26821F4405111430161B4
:101A5000A16820690143606901432068C26841F2BE
:101A60000C639A430A43C26020684169A26921F469
:101A7000407111434161354920686425322688420E
:101A800032D1FFF76FF800EBC00101EB0010616885
:101A90006FF018078900B0FBF1F2B2FBF5F2B0FB72
:101AA000F1F37A4303EB8202B0FBF1F306EB02128F
:101AB000B2FBF5F2B3FBF5F302F0F00202EB031216
:101AC000B0FBF1F3B0FBF1F0B0FBF5F0784303EBC2
:101AD000800006EB0010B0FBF5F0216800F00F006D
:101AE00010448860BDE8F081FFF72CF800EBC001DE
:101AF00001EB001061686FF018078900B0FBF1F28C
:101B0000B2FBF5F2B0FBF1F37A4303EB8202B0FBD8
:101B1000F1F306EB0212B2FBF5F2B3FBF5F302F0C0
:101B2000F00202EB0312B0FBF1F3B0FBF1F0B0FBFB
:101B3000F5F0784303EB800006EB0010B0FBF5F006
:101B4000216800F00F0010448860CBE700380140A6
:101B500090F83910212901D0022070478168B1F531
:101B6000805F0CD0016A4A1C0262026809785160E9
:101B7000C18C491E0904090CC18410D019E0016A06
:101B800002680988C1F308015160016919B1016A4D
:101B9000491C0162ECE7016A891C0162E8E70168FF
:101BA000CA6822F08002CA600068C16841F0400142
:101BB000C160002070472DE9F04104460E461746EB
:101BC0009846069D1DE0681C1BD02DB1FEF726FD32
:101BD000A0EB0800A84214D92068C16821F4D07194
:101BE000C1602068416921F001014161202084F831
:101BF000390084F83A00002084F838000320BDE85A
:101C0000F0812068006836EA000004D00020B84265
:101C1000D9D00020F3E70120F9E700000148FFF7E1
:101C200051BB00007C010020FEE700000FB4054B13
:101C300010B503A9044A029800F03CF810BC5DF806
:101C400014FB0000051F0008900000200FB4084B93
:101C500010B504A902AA039800F02CF8044602A9C2
:101C6000002000F003F9204610BC5DF814FB0000D2
:101C70006D1E00080907090E002804DB00F1E020B2
:101C800080F80014704700F00F0000F1E02080F8A9
:101C9000141D704702E008C8121F08C1002AFAD1BB
:101CA00070477047002001E001C1121F002AFBD1DC
:101CB000704700002DE9FF4F8BB09A460F4605464E
:101CC000002606E025280BD052460D9990476D1C42
:101CD000761C28780028F5D10FB03046BDE8F08F8B
:101CE0000024A0460122604900E0044315F8013FAA
:101CF000203B02FA03F00842F7D128782E2817D1AA
:101D000015F8010F44F004042A280ED06FF02F02BA
:101D10002878A0F1300109290AD808EB880102EBE4
:101D2000410100EB01086D1CF2E757F8048B6D1CB4
:101D3000287869283ED006DC0028CDD063280BD057
:101D4000642804D136E0732810D075284BD0524651
:101D50000D999047761C85E017F8040B8DF800006C
:101D600000208DF80100E946012003E057F8049BAC
:101D70004FF0FF3061074FF0000401D40AE0641C0B
:101D800044450DDA8442FADB19F804100029F6D133
:101D900006E0641C8442FCDB19F804100029F8D129
:101DA000264404E019F8010B52460D999047641E31
:101DB000F8D257E001CF4FF00A0B002802DA404278
:101DC0002D2102E0210504D52B218DF824100121BD
:101DD00003E0E10705D02021F7E70DF12009089184
:101DE0000CE00021F9E701CF4FF00A0BF9E7594663
:101DF000FEF728FA01F1300209F8012D0028F6D18A
:101E0000ADEB090000F1200B600701D44FF0010891
:101E1000D84502DDA8EB0B0000E00020804600243E
:101E200006E009A85246005D0D999047641C761C97
:101E300008988442F5DB04E0302052460D99904723
:101E4000761CB8F10001A8F10108F5DC05E019F8ED
:101E5000010B52460D999047761CBBF10001ABF186
:101E6000010BF4DC6D1C34E7092801000A68531CDF
:101E70000B6010707047000070B50546002D05D14D
:101E800040F2FB4214A119A0FFF7D0FE1B4E3068B0
:101E9000854201D1002070BD00F082FC6C6900F029
:101EA000BBFCF06B844202D0306C844201D1022032
:101EB00070BD1348844205D1A86A08B1022070BDE4
:101EC000032070BD0E481438844202D00CB10120AA
:101ED00070BD042070BD00002E2E5C4672656552F8
:101EE000544F535C7461736B732E63004572726F51
:101EF000723A2025732C2025640D0A00180000205A
:101F0000CC04002013B54FF6FF7301226946024846
:101F1000FFF7D3FA00981CBD7C01002070B5044681
:101F20000D4629462046FEF76BFB012801D0002014
:101F300070BD29462046FEF763FB0128F9D0012039
:101F400070BD0000054C4FF4FA75216881F0010165
:101F50002160284600F0F2FCF7E700000C0C01407D
:101F60001CB5FEF777FCFFF709FCFFF70FFBFFF747
:101F7000CBFBFFF755FBFFF773FBFFF791FB064821
:101F80000121CDE900100023802204A1064800F0C1
:101F900001FF00F00FFEFEE7000000207374617285
:101FA000745F7461736B0000BD2500084FF4FA7410
:101FB00003A0FFF73BFE204600F0C0FCF8E700005E
:101FC0007072696E745F7461736B2072756E0A0053
:101FD0002DE9F04104460F46174EF5683068001DA4
:101FE00000F040FB38B9306890F82C100120884090
:101FF000316981433161601C07D137B13168BDE877
:10200000F041091D0D4800F0BFBB2C44306844600E
:10201000AC4206D23168306C091DBDE8F04100F0D9
:102020009BBB3168F06B091D00F096FBB06A8442DF
:1020300000D2B462BDE8F08118000020CC0400207A
:1020400070B5044600F0ACFB1D4DA868401CA860AC
:10205000286810B1686938B10CE02C60A8680128C4
:1020600008D100F0FDF805E02868E16AC06A8842FE
:1020700000D82C60686A401C68626064E06A0121D4
:102080002A698140114329610E4900EB800001EB70
:102090008000211D00F078FB00F0BEFB686900287D
:1020A0000CD02868E16AC06A884207D206494FF01E
:1020B00080500860BFF34F8FBFF36F8F70BD00007B
:1020C00018000020FC01002004ED00E070B5124E65
:1020D000124D1CE000F0B6FD306820B1002400F085
:1020E0000DFFA4B901E00124F9E700F059FBF06805
:1020F000C468201D00F0B6FAA868401EA860686891
:10210000401E686000F088FB204600F009F868680F
:102110000028DFD170BD0000B804002018000020A6
:1021200010B50446206B00F0ABFB2046BDE8104024
:1021300000F0A6BB4FF410410F48420706D0C01D67
:1021400020F007000C49411AC1F510410B4A1060FC
:10215000002353600144083921F00701103A11604F
:102160004B600B600B1A43600160406890605060E8
:102170004FF00040D0607047E0040020780000205D
:10218000074E4FF08054074DFFF7A0FF306801283D
:10219000FAD92C60BFF34F8FBFF36F8FF4E70000C5
:1021A000FC01002004ED00E02DE9F047DDE90858CE
:1021B0000A9C81460E4617469A46B900A522206B16
:1021C000FEF71EF8206B7F1E00EB870020F007074C
:1021D000780705D040F22B3218A11DA0FFF726FD8D
:1021E00000202218315C82F83410315C11B1401C9F
:1021F0001028F6D3002684F84360202D00D31F2535
:10220000E562201D00F0A5FA04F1180000F0A1FA23
:102210002461C5F12000A0616462E664266584F84B
:10222000546052464946384600F084F92060B8F1BF
:10223000000F01D0C8F80040BDE8F0872E2E5C46A4
:1022400072656552544F535C7461736B732E6300F7
:102250004572726F723A2025732C2025640D0A0096
:1022600070B50024114D04EB840005EB800000F0F4
:1022700065FA641C202CF6D30D4800F05FFA0C4878
:10228000143000F05BFA0A48283000F057FA08488A
:102290003C3000F053FA0648503000F04FFA054841
:1022A0000349C1631431016470BD0000FC010020CA
:1022B0007C0400201800002030B5134900E01146CE
:1022C0000A688242FBD34B685C18844203D14068A1
:1022D0001844486008460D6844682318AB420DD185
:1022E000094B103B1B689A4206D052682244426058
:1022F0000A681268026002E0036000E00260814246
:1023000000D0086030BD0000780000202DE9F047C3
:1023100080460C46914600262068002821D02146A0
:1023200048684068486001F10807B84201D1406838
:1023300048604868D0F80CA0606845686560BD4298
:1023400001D1696861606068C56806EBC60008EB8A
:1023500080014B460122284600F08EFB761C554535
:10236000EAD13046BDE8F0870748C16B096800290B
:1023700005D0C16BC968C9684968816270474FF070
:10238000FF3181627047000018000020002101E049
:10239000401C491C0278A52AFAD0880880B27047F0
:1023A00008484068401C04D0F42207A111A0FFF7A0
:1023B0003DFC502080F31188BFF34F8FBFF36F8F28
:1023C000FEE700005C0000202E2E5C467265655220
:1023D000544F535C706F727461626C655C5256440A
:1023E000535C41524D5F434D335C706F72742E638A
:1023F000000000004572726F723A2025732C202570
:10240000640D0A0010B504462046FDF712FF204671
:10241000FDF708FF202101E02154401C0F28FBD3C9
:1024200000212154204410BD2DE9F041054600262D
:1024300000F008FC304F386808B9FFF77BFEF868F9
:1024400005424BD175B1083568070BD005F0070080
:10245000C0F108000544680704D0BF2227A131A0BD
:10246000FFF7E4FB002D39D07868854236D8224941
:1024700010310846046801E0214604466068A8421D
:1024800002D220680028F7D13868844226D00E682E
:102490000836206808606068401B102811D904EBDA
:1024A00005085FEA487004D0EC2214A11DA0FFF7D4
:1024B000BDFB6068401BC8F8040065604046FFF73C
:1024C000FBFE61687868401A7860BA68904200D272
:1024D000B860F868014361600020206000F00EFDE4
:1024E000700705D04FF4967204A10EA0FFF79EFB73
:1024F0003046BDE8F0810000680000202E2E5C46CA
:1025000072656552544F535C706F727461626C6592
:102510005C4D656D4D616E675C686561705F342E02
:10252000630000004572726F723A2025732C2025DB
:10253000640D0A0020384FF08073C36121F001015F
:1025400081610249416140F820297047A1230008B8
:102550000E4DEE1401212846FFF7E0FC012811D1B1
:102560003046FFF761FF04464CB1204600F0C2FA46
:1025700007A0FFF75BFB21460FA0FFF757FB2046A4
:1025800000F07EF9322000F0D9F9E3E700080140BD
:102590000A2A2A2A2A2A2A2A2A2A2AC8CECEF1D464
:1025A000CBD0D0CAB1BCE4B4F2D3A12A2A2A2A2AB9
:1025B0002A2A2A2A2A0A000025730A001CB5134871
:1025C0000221CDE900100023802211A1134800F060
:1025D000E1FB0E480321001DCDE9001000238022FD
:1025E0000FA1124800F0D6FB084804210830CDE9BD
:1025F00000108A0100230EA1114800F0CBFB034814
:10260000001F0068BDE81C4000F0D0B904000020A5
:102610006C65645F7461736B00000000451F000807
:102620007072696E745F7461736B0000AD1F000897
:1026300072756E5F74696D655F7461736B00000025
:102640005125000810B5FFF72BF80448FEF7F4FCFD
:10265000034800220261426110BD00003C010020DD
:10266000000000200169D0E901329A60D0E901231D
:102670005A604A68824201D182684A60002202613F
:102680000868401E086070472DE9F04706460B4673
:1026900017460024202500F0D5FADFF89080D8F8FE
:1026A000080083423CD3DFF888906D1E05EB85005F
:1026B00009EB800104EBC40006EB80000122FFF768
:1026C00025FE0444002DF0D104EBC40006EB80008D
:1026D0000222D8F83C10FFF719FE044404EBC400B2
:1026E00006EB80000222D8F84010FFF70FFE0444EA
:1026F00004EBC40006EB800004220E49FFF706FE3F
:1027000004440C4904EBC40006EB8000032214319E
:10271000FFF7FCFD04441FB10748016840683960B9
:1027200000F0ECFB2046BDE8F08700001800002018
:10273000FC010020B80400201000002000F1080176
:1027400041604FF0FF328260C16001610021016091
:10275000704700210161704730B50C68621C02D0DF
:1027600000F1080202E0026904E01A4653681D689D
:10277000A542FAD953684B6099608A60516008613C
:102780000168491C016030BD42684A6093688B60F3
:1027900093685960916008610168491C0160704745
:1027A000502080F31188BFF34F8FBFF36F8F09491B
:1027B0004868401C486001280AD10748006810F0AA
:1027C000FF0F05D04FF4BD7204A10FA0FFF72EBA82
:1027D000704700005C00002004ED00E02E2E5C46F7
:1027E00072656552544F535C706F727461626C65B0
:1027F0005C525644535C41524D5F434D335C706FA5
:1028000072742E63000000004572726F723A2025C8
:10281000732C2025640D0A0010B5094C606800284F
:1028200005D140F2811207A111A0FFF7FFF96068FE
:10283000401E6060002801D180F3118810BD0000A7
:102840005C0000202E2E5C4672656552544F535C2E
:10285000706F727461626C655C525644535C415295
:102860004D5F434D335C706F72742E630000000047
:102870004572726F723A2025732C2025640D0A0070
:1028800070B500282AD008380446154D6068E968FC
:10289000084205D14FF4A07212A11CA0FFF7C6F99F
:1028A000206828B140F241120EA118A0FFF7BEF92E
:1028B0006068E968084211D02268002A0ED1884376
:1028C000606000F0BFF9606869680844686020468D
:1028D000FFF7F2FCBDE8704000F010BB70BD0000D7
:1028E000680000202E2E5C4672656552544F535C82
:1028F000706F727461626C655C4D656D4D616E6781
:102900005C686561705F342E630000004572726F11
:10291000723A2025732C2025640D0A0006484FF4D6
:102920007A710068B0FBF1F14FF0E020491E41617F
:1029300007210161704700008C00002010B504469B
:102940000020002C10D00E48006B28B140F2CF427E
:102950000CA111A0FFF76AF900F074F900212046DC
:10296000FFF736FB00F0CAFA002807D10E494FF0F6
:1029700080500860BFF34F8FBFF36F8F10BD000012
:10298000180000202E2E5C4672656552544F535C31
:102990007461736B732E63004572726F723A2025F7
:1029A000732C2025640D0A0004ED00E070B5044688
:1029B000FFF7F6FE234D04B92C68201DFFF752FEE9
:1029C00058B9E06A204A00EB800152F8211021B981
:1029D00001218140286988432861A06A18B104F167
:1029E0001800FFF73FFE686A401C6862286884424E
:1029F00007D1211D1548FFF7C7FE6868401C6860B5
:102A000007E0A868401EA8602046FFF789FBFFF793
:102A1000ABFCFFF701FF6869002812D028688442E8
:102A20000FD1286B28B140F2654209A10DA0FFF734
:102A3000FDF810494FF080500860BFF34F8FBFF38F
:102A40006F8F70BD18000020FC010020B80400202A
:102A50002E2E5C4672656552544F535C7461736BE5
:102A6000732E63004572726F723A2025732C2025F5
:102A7000640D0A0004ED00E02DE9F04707460C461E
:102A800091461E46002F0ED03D46256005F13400CC
:102A90006060E86A2061286BE061686CA060207B60
:102AA000032803D00AE012480568EEE700F0CAF8F0
:102AB000A86A08B10220207300F020FA4FF0000845
:102AC000C4F81480E86CA061052E01D0267303E0E1
:102AD0003846FFF7D1F92073B9F1000F05D0286B04
:102AE000FFF754FC2084BDE8F087A4F82080FAE7C3
:102AF00018000020FEB5064600253570264881687E
:102B00000291806800EBC0008000FFF78DFC044656
:102B100020003FD06A460299FFF7B6FD0290009868
:102B20006421B0FBF1F0009088B301952BE001988F
:102B3000009A00EBC00004EB80008169B1FBF2F564
:102B400041683046FFF75EFC06465DB101982B46B2
:102B500000EBC00004EB800010A182693046FFF753
:102B600075F809E0019810A100EBC00004EB8000AB
:102B700082693046FFF76AF83046FDF753FB06449A
:102B80000198401C0190DDE901018842CFD3204625
:102B9000FFF776FEFEBD000018000020092575092C
:102BA00009257525250D0A0009257509093C3125DA
:102BB000250D0A001CB516480024CDE90040234627
:102BC000802214A1154800F0E5F801280AD0401C25
:102BD0001DD102B040F28472BDE8104010A115A0D2
:102BE000FFF724B8502080F31188BFF34F8FBFF355
:102BF0006F8F07484FF0FF312C388162012141610E
:102C0000C460FFF71FFDBDE81C4000F073B81CBD99
:102C10004400002049444C45000000008121000888
:102C20002E2E5C4672656552544F535C7461736B13
:102C3000732E63004572726F723A2025732C202523
:102C4000640D0A000248016B491C016370470000D3
:102C50001800002070B51B4D286B002802D0012001
:102C6000E86170BD0020E861174908684968A863F9
:102C70006A6B904204D92968821ACB6C1A44CA64E0
:102C800068632869B0FA80F0C0F11F000F4E00EBB6
:102C9000800456F8240028B940F6F6220CA111A0B1
:102CA000FEF7C4FF06EB840041684968416000F10B
:102CB0000802914201D1496841604068C0682860BB
:102CC00070BD00001800002010000020FC01002052
:102CD0002E2E5C4672656552544F535C7461736B63
:102CE000732E63004572726F723A2025732C202573
:102CF000640D0A001CB5194908780190FF2008707E
:102D0000087800909DF80000154A00F050001070FF
:102D10000720906006E09068401E90609DF80000DB
:102D2000400000909DF800000006F4D4107A0002E4
:102D300000F4E0609060019808700A48016841F46E
:102D400070010160016841F070410160FFF7E6FD2C
:102D500000205060FDF708FA00201CBD00E400E0F0
:102D60005C00002020ED00E010B5502080F31188B9
:102D7000BFF34F8FBFF36F8F00F04AF818B10449CB
:102D80004FF080500860002080F3118810BD0000D3
:102D900004ED00E02DE9FF5F8146DDE90E788A460B
:102DA00016469B46B000FFF73FFB054628000AD0B9
:102DB0005820FFF739FB04460CB1256304E0284690
:102DC000FFF75EFD00E000248CB10020CDE9024059
:102DD000CDE900785B46324651464846FFF7E4F9B4
:102DE0002046FFF72DF9012004B0BDE8F09F4FF019
:102DF000FF30F9E705484169002903D0006B18B19D
:102E00000020704701207047022070471800002002
:102E10002DE9F04100262E4F386B002808D0B86904
:102E2000401CB861F86900B101263046BDE8F08168
:102E3000FD686D1CFD608DB9F86B006828B140F627
:102E4000D91224A128A0FEF7F1FEF86B396CF963C2
:102E50003864386A401C3862FFF786FAB86ADFF8CF
:102E6000988085420DD3F86B006838B1F86BC06864
:102E7000C468606885420ED2B86202E04FF0FF304D
:102E8000B8623868C06A00EB800058F8200001285A
:102E9000C8D90126C6E7201DFFF7E4FBA06A18B1D8
:102EA00004F11800FFF7DEFBE06A01213A69814076
:102EB0001143396100EB800008EB8000211DFFF712
:102EC00063FCE06A3968C96A8842CCD30126CAE744
:102ED000180000202E2E5C4672656552544F535CDC
:102EE0007461736B732E63004572726F723A2025A2
:102EF000732C2025640D0A00FC0100202DE9F0410F
:102F0000002400272B4D286B002805D14FF4FD62CB
:102F100029A12EA0FEF78AFEFFF742FC286B401E77
:102F20002863286BF0BBA868E0B3DFF8B080012607
:102F30001DE0D8F80C00C46804F11800FFF792FBFC
:102F4000201DFFF78FFBE06A2A6906FA00F11143A2
:102F50002961234900EB800001EB8000211DFFF770
:102F600013FCE06A2968C96A884200D3EE61D8F888
:102F700000000028DDD10CB1FFF7F6F9AC6944B1CF
:102F8000FFF746FF00B1EE61641E002CF8D100206F
:102F9000A861E86930B10127124938070860BFF31A
:102FA0004F8F00E001E0BFF36F8FFFF735FC38462D
:102FB000BDE8F081180000202E2E5C467265655237
:102FC000544F535C7461736B732E63004572726F60
:102FD000723A2025732C2025640D0A00A4040020D9
:102FE000FC01002004ED00E00000000000000000F3
:102FF000010203040607080900000000010203049F
:10300000203000080000002094000000941C0008FC
:10301000B4300008940000204C980000A41C000864
:1030200000000000000000000000000000000000A0
:103030000000000000000000000000000000000090
:103040000000000000000000000000000000000080
:103050000000000000000000000000000000000070
:103060000000000000000000000000000000000060
:103070000000000000000000000000000000000050
:10308000AAAAAAAA00000000000000000000000098
:103090000000000000000000000000000000000030
:1030A0000100000010000000000000000024F400F7
:0430B000000000001C
:0400000508000131BD
:00000001FF
