:020000040800F2
:1000000090980020DD010008E31500089114000815
:10001000E11500080B030008311A00080000000079
:100020000000000000000000000000004501000882
:100030000D030008000000008901000809160008EF
:10004000F7010008F7010008F7010008F7010008B0
:10005000F7010008F7010008F7010008F7010008A0
:10006000F7010008F7010008F7010008F701000890
:10007000F7010008F7010008F7010008F701000880
:10008000F7010008F7010008F7010008F701000870
:10009000F7010008F7010008F7010008F701000860
:1000A000F7010008F7010008F7010008F701000850
:1000B000C5160008F7010008F7010008F70100085D
:1000C000F7010008F7010008F7010008F701000830
:1000D000F7010008251A0008F7010008F7010008D9
:1000E000F7010008F7010008F7010008F701000810
:1000F000F7010008F7010008F7010008F701000800
:10010000F7010008F7010008F7010008F7010008EF
:10011000F7010008F7010008F7010008F7010008DF
:10012000F7010008F7010008F7010008F7010008CF
:10013000DFF80CD000F0C8F800480047491E00085E
:1001400090980020224B19680868B0E8F00F80F3FF
:100150000988BFF36F8F4FF0000080F311884EF0D5
:100160000D0E70470000000006480068006880F32C
:10017000088862B661B6BFF34F8FBFF36F8F00DFA1
:1001800000BF00BF08ED00E0EFF30980BFF36F8F01
:100190000F4B1A6820E9F00F106008B54FF05000BF
:1001A00080F31188BFF34F8FBFF36F8F02F014FFFE
:1001B0004FF0000080F31188BDE808401968086816
:1001C000B0E8F00F80F30988BFF36F8F704700BF6E
:1001D0000C000020EFF305807047000006488047C0
:1001E00006480047FEE7FEE7FEE7FEE7FEE7FEE71C
:1001F000FEE7FEE7FEE7FEE77D1600083101000896
:10020000202A04DB203A21FA02F00021704721FA6B
:1002100002F3D040C2F120029140084319467047D2
:10022000D2B201E000F8012B491EFBD27047002238
:10023000F6E710B513460A4604461946FFF7F0FFE5
:10024000204610BD421C10F8011B0029FBD1801A6A
:100250007047034611F8012B00F8012B002AF9D151
:10026000184670472DE9F05F0546002092469B46F0
:1002700088460646814640241BE0284641464746BC
:100280002246FFF7BDFF53465A46C01A914110D38C
:1002900011461846224600F029F82D1A67EB01088E
:1002A0004F4622460120002100F020F817EB0009FC
:1002B0004E41201EA4F10104DFDC484631462A46A7
:1002C0004346BDE8F09F0000064C074D06E0E0689D
:1002D00040F0010394E8070098471034AC42F6D38D
:1002E000FFF72AFF1034000830340008202A04DB0E
:1002F000203A00FA02F1002070479140C2F1200339
:1003000020FA03F3194390407047FEE770477047A7
:100310002DE9F05F002590F82110022903D0042177
:100320008163012595E001680A6822F00E020A60E7
:1003300001680A6822F001020A60474E464FB21572
:10034000DFF814C1DFF81081DFF80C91DFF808A1A5
:10035000DFF804B10168783F13011402ACF1640CBA
:10036000A8F15008A9F13C09AAF1280AABF1140B35
:100370004FF4801EB1422FD9B94201D1012227E0AA
:10038000614501D1102223E0414521D0494501D1E9
:100390001A461DE0514501D1224619E0594501D1C7
:1003A000724615E02D4EB14201D1012210E02B4ED4
:1003B0001436B14201D110220AE0284E2836B1424B
:1003C00006D0264A3C32914201D11A4600E022462C
:1003D0002249091F0A6033E0B94201D101222CE011
:1003E000614501D1102228E0414526D0494501D17F
:1003F0001A4622E0514501D122461EE0594501D15D
:1004000072461AE0B14202D14FF0807215E0134EED
:10041000B14201D1012210E0104E1436B14201D197
:1004200010220AE00D4E2836B14206D00B4A3C326B
:10043000914201D11A4600E02246074980394A60BC
:10044000012180F82110002180F82010416B01B1BA
:1004500088472846BDE8F09F80000240080402401B
:100460002DE9F84F00240023DFF8E0914FF00F084A
:1004700009F1040A0AF1040B0BF1040EDFE0012775
:10048000A7403A40BA4275D1DFF8C4C14D68A5EB28
:100490000C0665452BD00DDC032D34D005DC35B3BF
:1004A000012D19D0022D2FD11BE0112D16D0122DA8
:1004B0002AD119E0B6F5881F19D006DCB6F5803FC1
:1004C00015D0B6F5801F1FD111E0B6F5001F0ED074
:1004D000B6F5041F18D10AE0CB6815E0CB681B1DE8
:1004E00012E0CB6808330FE0CB680C330CE08B686C
:1004F00023B1012B04D00823476105E0042303E066
:100500000823076100E00023FF2A01D8054601E027
:1005100000F1040502D84FEA840603E0A4F10806BE
:100520004FEA86062F6808FA06FC27EA0C0703FA4A
:1005300006F647EA06072F604D68ED007ED5454D6B
:10054000AE6946F00106AE61AD6905F001050095A2
:10055000414D24F003067719BE68A5072D0F08FA50
:1005600005FC26EA0C06DFF8F4C0604503D14FF025
:10057000000C25E062E0DFF8E8C0604502D14FF0F2
:10058000010C1DE0DFF8DCC0604502D14FF0020C29
:1005900016E0DFF8D4C0604502D14FF0030C0FE045
:1005A000DFF8C8C0604502D14FF0040C08E0DFF866
:1005B000C0C0604502D14FF0050C01E04FF0060CC1
:1005C0000CFA05FC4CEA060CC7F808C04D68ED03B0
:1005D00005D5D9F800501543C9F8005004E0D9F802
:1005E00000509543C9F800504D68AD0305D5DAF8C1
:1005F00000501543CAF8005004E0DAF80050954363
:10060000CAF800504D68ED0205D5DBF800501543DF
:10061000CBF8005004E0DBF800509543CBF80050D5
:100620004D68AD0205D5DEF800501543CEF80050F8
:1006300004E0DEF800509543CEF80050641C0A68D0
:1006400032FA04F57FF41BAFBDE8F88F00040140D7
:10065000000011100010024000000140000801409D
:10066000000C01400010014000140140001801403E
:10067000001C0140002A01D001617047090401619A
:100680007047000001488068704700006C0000203F
:1006900070B50446002C04D094F83D00002510B13C
:1006A00006E0012070BD84F83C50204600F0B2F80E
:1006B000242084F83D002068016821F001010160D8
:1006C00000F074FA4F4B6168994203D84E49884252
:1006D00003D304E04D49884201D2012070BD4C494A
:1006E000B0FBF1F12268566826F03F060E435660D3
:1006F00062689A4201D8491C07E04FF49672514350
:100700004FF47A72B1FBF2F1491C2268166A26F0A6
:100710003F06314311626168994210D84900401E7A
:10072000B0FBF1F2521CC2F30B02042A01D20420E6
:1007300022E0B0FBF1F0401CC0F30B001CE0A2680B
:10074000F2B301EBC10303EB0116431EB3FBF6F357
:100750005B1C43F480431B0549D092B301EBC102FB
:1007600002EB0111401EB0FBF1F0401CC0F30B0086
:1007700040F4804040F400402168CA694CF6FF73A1
:100780009A431043C861D4E9071001432068026806
:1007900022F0C00211430160D4E903010143206843
:1007A000826848F2FF339A4311438160D4E905100F
:1007B00001432068C26822F0FF021143C16001E0DA
:1007C0000EE016E02068016841F001010160256437
:1007D000202084F83D00256384F83E50002070BD41
:1007E00001EB4106431EB3FBF6F35B1CB3E70120AC
:1007F000C2E701EB4101401EB0FBF1F0401CC0F329
:100800000B00B7E7A086010080841E0000093D00B0
:1008100040420F0030B585B0002101910291039153
:1008200004911E4D01681E4C122203231D48A9424B
:1008300018D1A16941F00801A161A16901F0080185
:100840000091C02101910292049301A9FFF708FED3
:10085000E06940F40010E061E06900F400100090ED
:1008600005B030BD104DA942FAD1A16941F008018F
:10087000A161A16901F0080100914FF4406101916B
:100880000292049301A9FFF7EBFDE06940F48000B8
:10089000E061E06900F480000090E1E7005400406E
:1008A00000100240000C01400058004002488168DE
:1008B00002781144816070476C00002010B5074831
:1008C000016841F010010160032000F08FF8002062
:1008D00000F006F800F03EF8002010BD00200240B5
:1008E00000B587B0014600221C2000F05FF81C20F4
:1008F00000F04EF81448C16941F00101C161C069BE
:1009000000F00100009001A902A800F02BF900F00E
:100910004DF940000D49B0FBF1F1491E0C484FF074
:100920008042026040F2E732C26041600021016112
:10093000816000F059FB10B1012007B000BD0448F0
:1009400000F06FFBF9E700000010024040420F008A
:100950002801002008B50C48816941F0010181613E
:10096000816901F001010091C16941F08051C161CB
:10097000C06900F0805000900449486820F0E060B1
:1009800040F00070486008BD0010024000000140C7
:10099000002809DB00F01F0201219140400980007E
:1009A00000F1E020C0F8001170470000F0B40D46DF
:1009B0000D4B1B68C3F30223C3F10704042C00D9B9
:1009C0000424191D072901D2002300E0DB1E0126A3
:1009D00006FA04F1491E294099409E40761E1640B1
:1009E0003143F0BC01F04AB80CED00E000F0070123
:1009F000054A10684FF6FF03184040EA01200349FA
:100A000008431060704700000CED00E00000FA059C
:100A10002DE9F04704460D46002C17D0DFF8308151
:100A2000D8F8000000F00700A84211D2D8F8000062
:100A300020F007002843C8F80000D8F8000000F0B4
:100A40000700A84204D00120BDE8F0870120FBE7A1
:100A50002068404E810712D5400703D5706840F4E6
:100A6000E06070602078000703D5706840F4605043
:100A700070607068A16820F0F00008437060207812
:100A8000C0072CD06068012806D0022809D0316840
:100A900089070BD40120D7E73168890306D40120E8
:100AA000D2E73168890101D40120CDE7716821F0D6
:100AB000030101437160FFF7E5FD074641F2883904
:100AC00006E0FFF7DFFDC01B484501D90320BBE767
:100AD0007068616800F00C00B0EB810FF1D1D8F8BC
:100AE000000000F00700A8420ED9D8F8000020F05E
:100AF00007002843C8F80000D8F8000000F00700FD
:100B0000A84201D001209FE72078400705D57068F2
:100B1000E16820F4E060084370602078000706D5A3
:100B20007068216920F4605040EAC100706000F0F4
:100B30005DF87168084AC1F30311515CC840074968
:100B4000086007480068FFF7CBFE00207CE7000044
:100B50000020024000100240F83300087800002016
:100B6000700000200F2202600B4A536803F0030359
:100B70004360536803F0F0038360536803F4E06359
:100B8000C360526802F46052D208026103480068F0
:100B900000F007000860704700100240002002408B
:100BA00001480068704700007800002000B5FFF79A
:100BB000F7FF04494968044AC1F30221515CC84067
:100BC00000BD0000001002400834000800B5FFF727
:100BD000E7FF04494968044AC1F3C221515CC84097
:100BE00000BD0000001002400834000885B014A0C9
:100BF00090E80E00C068CDE902230191049014A092
:100C000000680090134B5968134801F00C02042A45
:100C100010D0082A0ED101A8C1F38342805CC90319
:100C20000AD55968C1F340411DF801100A4A5043E2
:100C3000B0FBF1F005B0704708494843FAE70000FF
:100C400002030405060708090A0B0C0D0E0F10100D
:100C5000010200000010024000127A0000093D006D
:100C60002DE9F84F0446002C0ED02078D94DC0074E
:100C70005ED06868C0F3810001280BD06868C0F3BB
:100C80008100022803D00CE00120BDE8F88F6868DD
:100C9000C00306D5286880034AD56068A8BB012038
:100CA000F3E76068B0F5803F11D0A8B1B0F5A02F90
:100CB0001BD0286820F480302860286820F4802029
:100CC0002860606830B3FFF7DDFC06461EE0286848
:100CD00040F480302860F4E7286820F480302860F1
:100CE000286820F480202860EBE7286840F4802002
:100CF0002860286840F480302860E2E7FFF7C2FCF3
:100D0000801B642802D90320BFE711E02868800314
:100D1000F4D50DE0FFF7B6FC064606E0FFF7B2FC9F
:100D2000801B642801D90320AFE728688003F5D42D
:100D30002078DFF8A48280074FF0010A4FF0000905
:100D400045D5686810F00C0F07D06868C0F38100C3
:100D5000022812D16868C0030FD42868800704D520
:100D60002069012801D001208FE72868616920F0FF
:100D7000F80040EAC100286029E02069B8B1C8F84D
:100D800000A0FFF77FFC064606E0FFF77BFC801B18
:100D9000022801D9032078E728688007F5D528685C
:100DA000616920F0F80040EAC10028600FE0C8F84F
:100DB0000090FFF767FC064606E0FFF763FC801B28
:100DC000022801D9032060E728688007F5D420783D
:100DD000000726D58148A16999B1C0F800A0FFF7A6
:100DE00051FC064606E0FFF74DFC801B022801D9A6
:100DF00003204AE7686A8007F5D5012000F0F2FB7E
:100E00000FE0C0F80090FFF73DFC064606E0FFF754
:100E100039FC801B022801D9032036E7686A800765
:100E2000F5D42078400773D50026E869C00008D4BF
:100E3000E86940F08050E861E86900F08050009077
:100E40000126DFF89CB1DBF80000C00514D4DBF804
:100E5000000040F48070CBF80000FFF713FC074659
:100E600006E0FFF70FFCC01B642801D903200CE744
:100E7000DBF80000C005F4D5E068012812D0B0B15D
:100E800005281DD0286A20F001002862286A20F079
:100E900004002862E06841F2883B28B3FFF7F2FBC8
:100EA00007461DE0286A40F001002862F2E7286A40
:100EB00020F001002862286A20F004002862E9E797
:100EC000286A40F004002862286A40F00100286285
:100ED000E0E7FFF7D7FBC01B584501D90320D4E654
:100EE000286A8007F5D50DE0FFF7CCFB074606E042
:100EF000FFF7C8FBC01B584501D90320C5E6286A87
:100F00008007F5D4012E03D1E86920F08050E86114
:100F1000E069A0B36968C1F38101022946D00228C3
:100F200005D0C8F86090FFF7ADFB04463AE0C8F87A
:100F30006090FFF7A7FB064606E0FFF7A3FB801BC8
:100F4000022801D90320A0E628688001F5D4206A90
:100F5000B0F5803F05D16868A16820F400300843EF
:100F60006860D4E908010843696821F474110843F2
:100F70006860C8F860A0FFF785FB044607E026E03C
:100F8000FFF780FB001B022801D903207DE62868BB
:100F90008001F5D51BE0FFF775FB001B022801D986
:100FA000032072E628688001F5D410E001280CD0F7
:100FB0006868226A00F48031914204D1616A00F4C9
:100FC0007010884203D001205FE601205DE600201A
:100FD0005BE60000001002400000424280044242F2
:100FE000007000407047704710B50446002C03D0D5
:100FF00094F83D0010B107E0012010BD002084F8F6
:101000003C00204600F00CF8022084F83D00211D31
:10101000206800F05DFB012084F83D00002010BD39
:1010200070470168CA6842F00102CA6000688168BE
:1010300001F00701062903D0016841F001010160B8
:1010400000207047704770B50446206801694FF072
:101050000005C943890716D4C168C943890712D45A
:10106000E91E01610120207720688069800703D094
:101070002046FFF7E7FF05E0204600F09BF82046FA
:1010800000F099F8257720680169C943490718D409
:10109000C168C943490714D46FF0040101610220FB
:1010A00020772068806910F4407F03D02046FFF746
:1010B000C9FF05E0204600F07DF8204600F07BF8EF
:1010C000257720680169C943090717D4C168C94356
:1010D000090713D46FF0080101610420207720680C
:1010E000C069800703D02046FFF7ACFF05E020462B
:1010F00000F060F8204600F05EF82577206801696E
:10110000C943C90618D4C168C943C90614D46FF0CD
:1011100010010161082020772068C06910F4407F29
:1011200003D02046FFF78EFF05E0204600F042F88E
:10113000204600F040F8257720680169C943C907B7
:1011400008D1C168C943C90704D1891E016120467D
:1011500000F032F820680169C943090609D4C16862
:10116000C943090605D46FF0800101612046FFF7ED
:1011700039FF20680169C943490609D4C168C943D8
:10118000490605D46FF040010161204600F01BF8CC
:1011900020680169C94389060BD4C168C94389061F
:1011A00007D46FF0200101612046BDE87040FFF7D1
:1011B0001ABF70BD704770470068B0F1804F01D111
:1011C000FFF774BB704770477047000070B5044666
:1011D00022681068D168526900F00F03002B08D113
:1011E000850606D58D0604D52046BDE8704000F082
:1011F000DABA002B5ED002F0010301F490752B43A4
:1012000058D0C30705D0CB0503D5E36B43F00103EA
:10121000E363430705D5D30703D0E36B43F0020331
:10122000E363830705D5D30703D0E36B43F00403DF
:10123000E363030705D5D20703D0E26B42F008024F
:10124000E263E26B002A2AD0800604D5880602D524
:10125000204600F0A8FA20684069C0F38010E16BD6
:10126000090700D400B3204600F082FA20684169E3
:10127000490615D5416921F040014161606B58B1C3
:1012800015494163606BFFF743F8002807D0606B96
:10129000416BBDE8704008472046FFF795FF70BDE1
:1012A0002046FFF791FF70BD2046FFF78DFF00201D
:1012B000E06370BD020606D50A0604D52046BDE8E7
:1012C000704000F049BB4006F3D54806F1D52046F2
:1012D000BDE8704000F05ABA6117000870B50446C6
:1012E000002C04D094F83900002510B106E001204C
:1012F00070BD84F83850204600F022F8242084F88D
:1013000039002068C16821F40051C160204600F016
:1013100099FA2068016921F49041016120684169CE
:1013200021F02A0141612068C16841F40051C16087
:10133000E563202084F8390084F83A00002070BD6D
:1013400030B585B00024019402940394049400689D
:10135000184988422CD11848816941F48041816143
:10136000816901F480410091816941F0040181614A
:10137000806900F0040000904FF40070019002209A
:101380000290032004900D4D01A92846FFF768F84C
:10139000291501910294039401A92846FFF760F8EA
:1013A000002205212520FFF701FB2520FFF7F0FA99
:1013B00005B030BD00380140001002400008014077
:1013C00070472DE9F84304460D4691461E4694F8B1
:1013D0003900202802D00220BDE8F883B5B1B9F168
:1013E000000F13D094F83800012811D0012084F8A0
:1013F00038000027E763212084F83900FFF742F91D
:101400008046A4F82490A4F826902DE00120E3E77C
:101410000220E1E7E08C401EE084A068B0F5805F28
:1014200009D04346002280212046009600F0C7FAEA
:10143000B0B10320D0E74346002280212046009629
:1014400000F0BDFA08B10320C6E728882168C0F380
:1014500008004860206908B16D1C05E0AD1C03E080
:10146000216815F8010B4860E08C0028D2D1434672
:10147000002240212046009600F0A1FA08B1032086
:10148000AAE720203834607027700020A4E7704756
:10149000FEE7000070B586B0002402940394049423
:1014A00005941D48816941F010018161816901F055
:1014B00010010191816941F004018161816901F0AC
:1014C00004010191816941F008018161806900F0A6
:1014D00008000190114E012223213046FFF7CAF87F
:1014E000701402900394049402A90D48FEF7B8FF0B
:1014F000012502950394049402A90A48FEF7B0FF5F
:1015000023200290039504940320059002A93046FD
:10151000FEF7A6FF06B070BD00100240000C0140AF
:10152000001001400008014010B50D480B49016052
:101530000C49416000218160C1604FF4804202612A
:1015400041618161C1610162FFF7A2F8002803D007
:10155000BDE81040FEF7DBBE10BD000000540040A7
:1015600080000020A086010010B50D480B490160E5
:101570000C49416000218160C1604FF480420261EA
:1015800041618161C1610162FFF782F8002803D0E7
:10159000BDE81040FEF7BBBE10BD00000058004083
:1015A000D4000020A086010010B50C480A49016053
:1015B0004FF4E131416000218160C16001610C2282
:1015C00042618161C161FFF789FE002803D0BDE857
:1015D0001040FEF79CBE10BD00380140680100209D
:1015E000FEE7704708B507494FF4FA520968B1FBA6
:1015F000F2F14143009100BF0098411E0091FAD2E0
:1016000008BD00007800002010B501F0FBFD0128A6
:1016100003D0BDE8104001F059BD10BD30B58FB00A
:10162000282105A8FEF703FE14216846FEF7FFFDFA
:1016300001210591080406900024079409910225D0
:101640000C950D904FF4E0100E9005A8FFF708FBE5
:1016500008B1FEF75CFE0F200090019502944FF454
:1016600080600390049402216846FFF7D1F90028B6
:1016700001D0FEF74CFE0FB030BD00000D480168F0
:1016800041F00101016041680B4A1140416001686D
:101690000A4A11400160016821F48021016041681B
:1016A00021F4FE0141604FF41F0181600449C00331
:1016B00008607047001002400000FFF8FFFFF6FED0
:1016C00008ED00E00148FFF7BEBC00002801002043
:1016D0002DE9F04102681D4D1D4E1E4FDFF878C008
:1016E0001E4B4FF08048A84209D0984207D0404591
:1016F00005D0B04203D0B84201D0604503D122F0FA
:1017000070044A682243A84209D0984207D0404555
:1017100005D0B04203D0B84201D0604503D122F4D5
:101720004074CA6822434C6922F08002224302605E
:101730008A68C2620A688262A84201D0984201D1D6
:101740000969016301214161BDE8F081002C01407C
:101750000004004000080040000C0040003401403C
:1017600010B5406A0021C185C184FFF72DFD10BD71
:101770000168CA6822F49072CA6001684A6922F05E
:1017800001024A61202180F83A10704710B50168C3
:10179000CA6822F04002CA60202180F83910FFF7A1
:1017A00076FE002010BD10B590F83A10222901D025
:1017B000022010BD8168B1F5805F11D0016919B3B5
:1017C0000168496801F07F03816A4A1C82620B70DC
:1017D000C18D491E0904090CC1851CD0002010BD13
:1017E000816A02693AB102685268D2B20A80816A9B
:1017F000491C8162ECE702685268C2F308020A8061
:10180000816A891C8162E3E701684A68816A4B1C2E
:1018100083620A70DCE70168CA6822F02002CA60AD
:101820000168CA6822F48072CA6001684A6922F0BD
:1018300001024A61202180F83A10FFF7C1FD002023
:1018400010BD00002DE9F041044620680169E268FE
:1018500021F4405111430161A1682069014360698D
:1018600001432068C26841F20C639A430A43C26094
:1018700020684169A26921F44071114341613549F1
:10188000206864253226884232D1FFF79FF900EBA9
:10189000C00101EB001061686FF018078900B0FB10
:1018A000F1F2B2FBF5F2B0FBF1F37A4303EB820203
:1018B000B0FBF1F306EB0212B2FBF5F2B3FBF5F36A
:1018C00002F0F00202EB0312B0FBF1F3B0FBF1F017
:1018D000B0FBF5F0784303EB800006EB0010B0FBA3
:1018E000F5F0216800F00F0010448860BDE8F08139
:1018F000FFF75CF900EBC00101EB001061686FF0CD
:1019000018078900B0FBF1F2B2FBF5F2B0FBF1F37E
:101910007A4303EB8202B0FBF1F306EB0212B2FB57
:10192000F5F2B3FBF5F302F0F00202EB0312B0FBA9
:10193000F1F3B0FBF1F0B0FBF5F0784303EB80007E
:1019400006EB0010B0FBF5F0216800F00F0010442A
:101950008860CBE70038014090F83910212901D088
:10196000022070478168B1F5805F0CD0016A4A1C83
:101970000262026809785160C18C491E0904090C91
:10198000C18410D019E0016A02680988C1F3080116
:101990005160016919B1016A491C0162ECE7016AF1
:1019A000891C0162E8E70168CA6822F08002CA6007
:1019B0000068C16841F04001C160002070472DE916
:1019C000F04104460E4617469846069D1DE0681CE9
:1019D0001BD02DB1FEF756FEA0EB0800A84214D98B
:1019E0002068C16821F4D071C1602068416921F08C
:1019F00001014161202084F8390084F83A00002078
:101A000084F838000320BDE8F0812068006836EAD9
:101A1000000004D00020B842D9D00020F3E7012014
:101A2000F9E700000148FFF7D1BB00006801002082
:101A3000FEE700000FB4054B10B503A9044A029855
:101A400000F03CF810BC5DF814FB0000151E000807
:101A50007C0000200FB4084B10B504A902AA03981B
:101A600000F02CF8044602A9002000F087F9204677
:101A700010BC5DF814FB00007D1D00080907090E6D
:101A8000002804DB00F1E02080F80014704700F02B
:101A90000F0000F1E02080F8141D704702E008C834
:101AA000121F08C1002AFAD170477047002001E0D8
:101AB00001C1121F002AFBD1704700002DE9FF4F22
:101AC0008DB09B460F460446002606E025280BD025
:101AD0005A460F999047641C761C20780028F5D14F
:101AE00011B03046BDE8F08F0025A8460122984984
:101AF00000E0054314F8013F203B02FA03F00842DE
:101B0000F7D120782E2817D114F8010F45F00405DD
:101B10002A280ED06FF02F022078A0F13001092979
:101B20000AD808EB880102EB410100EB0108641CB4
:101B3000F2E757F8048B641C20786C280DD004DC85
:101B40004C2812D06A2811D104E074280DD07A28CC
:101B50000CD10AE045F4001507E0617845F48015E2
:101B6000814202D1641C05F58015641C2278692A23
:101B700045D008DC002AB3D0582A69D0632A10D097
:101B8000642A08D13BE0702A67D0732A13D0752AE3
:101B90005CD0782A5CD010465A460F999047761C44
:101BA000D3E017F8040B8DF8000000208DF8010039
:101BB000E946012003E057F8049B4FF0FF30690726
:101BC0004FF0000501D40AE06D1C45450DDA854251
:101BD000FADB19F805100029F6D106E06D1C8542E4
:101BE000FCDB19F805100029F8D12E4404E019F89F
:101BF000010B5A460F9990476D1EF8D2A5E00A20B6
:101C00000021CDE90801C5F3025002280DD001CF13
:101C1000C117031E71F100030DDA4FF0000CD0EB79
:101C20000C006CEB01012D2308E0FF1D27F00707D6
:101C3000F7E80201EDE72B0504D52B238DF82830BA
:101C400001233BE0EB0739D02023F7E70A2000E02F
:101C500010200021CDE9080107E01020002145F007
:101C60000405CDE908014FF00808C5F30250022829
:101C70000FD001CF00214FF0000A2B071FD5702A8B
:101C80000DD0DDE908C38CF0100C5CEA030C0CD01D
:101C900015E0FF1D27F00707F7E80201EBE74022F8
:101CA0008DF828204FF0010A0BE050EA010306D01E
:101CB00030238DF828308DF8292002239A46582A9F
:101CC00004D024A20DF120090B9209E026A2F9E725
:101CD000DDE90823FEF7C6FA0B9B9B5C09F8013D82
:101CE00050EA0102F4D1ADEB0900203008906807FA
:101CF00001D44FF001080899884502DDA8EB0100E6
:101D000000E000208046002506E00AA85A46405D13
:101D10000F9990476D1C761C5545F6DB04E030208A
:101D20005A460F999047761CB8F10001A8F10108B6
:101D3000F5DC05E019F8010B5A460F999047761C1F
:101D40000899481E08900029F4DC641CC5E60000D0
:101D50000928010030313233343536373839616281
:101D60006364656600000000303132333435363745
:101D70003839414243444546000000000A68531C7C
:101D80000B6010707047000070B50546002D05D13E
:101D900040F2FB4214A119A0FFF74CFE1B4E306825
:101DA000854201D1002070BD00F0C0FE6C6900F0DA
:101DB000F9FE706B844202D0B06B844201D10220E4
:101DC00070BD1348844205D1A86A08B1022070BDD5
:101DD000032070BD0E481438844202D00CB101209B
:101DE00070BD042070BD00002E2E5C4672656552E9
:101DF000544F535C7461736B732E63004572726F42
:101E0000723A2025732C2025640D0A000C00002056
:101E10007804002013B54FF6FF730122694602488B
:101E2000FFF7CFFA00981CBD68010020054C4FF465
:101E3000FA75216881F001012160284600F044FF15
:101E4000F7E700000C0C01401CB5FEF737FDFFF76B
:101E5000E5FBFFF71FFBFFF7A7FBFFF765FBFFF7AE
:101E600083FB06480121CDE900100023802204A154
:101E7000064801F041F901F061F8FEE7000000209A
:101E800073746172745F7461736B00005D29000884
:101E90002DE9F04104460F46174EF5683068001DE5
:101EA00000F08CFD38B9306890F82C100120884083
:101EB000316981433161601C07D137B13168BDE8B8
:101EC000F041091D0D4800F025BE2C4430684460E7
:101ED000AC4206D23168B06B091DBDE8F04100F09C
:101EE00001BE3168706B091D00F0FCFDB06A8442D0
:101EF00000D2B462BDE8F0810C000020780400201C
:101F000070B5044600F012FE1D4DA868401CA86084
:101F1000286810B1686938B10CE02C60A868012805
:101F200008D100F0FDF805E02868E16AC06A88423F
:101F300000D82C60686A401C68626064E06A012115
:101F40002A698140114329610E4900EB800001EBB1
:101F50008000211D00F0DEFD00F024FE68690028ED
:101F60000CD02868E16AC06A884207D206494FF05F
:101F700080500860BFF34F8FBFF36F8F70BD0000BC
:101F80000C000020A801002004ED00E070B5124E06
:101F9000124D1CE001F018F8306820B1002401F067
:101FA000B5F9A4B901E00124F9E700F0BFFDF0683C
:101FB000C468201D00F002FDA868401EA860686883
:101FC000401E686000F0EEFD204600F009F86868E9
:101FD0000028DFD170BD0000640400200C00002048
:101FE00010B50446206B00F011FE2046BDE81040FD
:101FF00000F00CBE4FF410410F48420706D0C01D40
:1020000020F007000C49411AC1F510410B4A10603D
:10201000002353600144083921F00701103A116090
:102020004B600B600B1A4360016040689060506029
:102030004FF00040D06070478C0400206400002006
:10204000074E4FF08054074DFFF7A0FF306801287E
:10205000FAD92C60BFF34F8FBFF36F8FF4E7000006
:10206000A801002004ED00E02DE9F047DDE9085863
:102070000A9C81460E4617469A46B900A522206B57
:10208000FEF7CEF8206B7F1E00EB870020F00707DD
:10209000780705D040F22B3218A11DA0FFF7CAFC2B
:1020A00000202218315C82F83410315C11B1401CE0
:1020B0001028F6D3002684F84360202D00D31F2576
:1020C000E562201D00F00BFD04F1180000F007FD93
:1020D0002461C5F12000A0616462E66484F8506068
:1020E00052464946384600F0B3F92060B8F1000F77
:1020F00001D0C8F80040BDE8F08700002E2E5C46F5
:1021000072656552544F535C7461736B732E630038
:102110004572726F723A2025732C2025640D0A00D7
:1021200070B50024114D04EB840005EB800000F035
:10213000CBFC641C202CF6D30D4800F0C5FC0C48E9
:10214000143000F0C1FC0A48283000F0BDFC0848FB
:102150003C3000F0B9FC0648503000F0B5FC0548B2
:10216000034941631431816370BD0000A801002060
:10217000280400200C00002030B5134900E011466F
:102180000A688242FBD34B685C18844203D14068E2
:102190001844486008460D6844682318AB420DD1C6
:1021A000094B103B1B689A4206D052682244426099
:1021B0000A681268026002E0036000E00260814287
:1021C00000D0086030BD0000640000202DE9F04719
:1021D00080460C46914600262068002821D02146E2
:1021E00048684068486001F10807B84201D140687A
:1021F00048604868D0F80CA0606845686560BD42DA
:1022000001D1696861606068C56806EBC60008EBCB
:1022100080014B460122284600F0F4FD761C55450E
:10222000EAD13046BDE8F0870748416B09680029CC
:1022300005D0416BC968C9684968816270474FF031
:10224000FF318162704700000C000020F0B50025CE
:102250000268002A25D042685268426000F10806F0
:10226000B24201D1536843604268D76842685268FD
:102270004260B24201D1536843604268D368002291
:102280009C1894F8344011F802C0A44503D124B13D
:10229000521C102AF4D325B901E01D46FBE7BB42CE
:1022A000E4D12846F0BD002101E0401C491C027821
:1022B000A52AFAD0880880B2704700000848406814
:1022C000401C04D0F42207A111A0FFF7B3FB50205B
:1022D00080F31188BFF34F8FBFF36F8FFEE70000CD
:1022E000480000202E2E5C4672656552544F535CA8
:1022F000706F727461626C655C525644535C4152FB
:102300004D5F434D335C706F72742E6300000000AC
:102310004572726F723A2025732C2025640D0A00D5
:1023200010B504462046FDF794FF2046FDF78AFFCE
:10233000202101E02154401C0F28FBD3002121540F
:10234000204410BD2DE9F0410546002600F03CFE7A
:10235000304F386808B9FFF74DFEF86805424BD199
:1023600075B1083568070BD005F00700C0F108000B
:102370000544680704D0BF2227A131A0FFF75AFB0C
:10238000002D39D07868854236D822491031084668
:10239000046801E0214604466068A84202D2206831
:1023A0000028F7D13868844226D00E6808362068A5
:1023B00008606068401B102811D904EB05085FEA2B
:1023C000487004D0EC2214A11DA0FFF733FB606815
:1023D000401BC8F8040065604046FFF7CDFE616809
:1023E0007868401A7860BA68904200D2B860F8689D
:1023F000014361600020206000F088FF700705D075
:102400004FF4967204A10EA0FFF714FB3046BDE80E
:10241000F0810000540000202E2E5C46726565524B
:10242000544F535C706F727461626C655C4D656D86
:102430004D616E675C686561705F342E63000000FB
:102440004572726F723A2025732C2025640D0A00A4
:1024500020384FF08073C36121F00101816102498E
:10246000416140F820297047BD2200088CB060A06F
:10247000FFF7E0FA6A4F786800F018FB014669A0A0
:10248000FFF7D8FAB86800F011FB01466CA0FFF71F
:10249000D1FA00F0A5FA044604EBC4008000FFF76F
:1024A00051FF054628001ED00BAA214600F0A8FACD
:1024B00006466AA0FFF7BEFA75A0FFF7BBFA002434
:1024C0000CE004EBC40005EB8000018C0091D0E926
:1024D000011302697BA0FFF7ADFA641CB442F0D38C
:1024E000284600F093FB7DA0FFF7A4FA0523012204
:1024F00002A9B86800F086FC85A00399FFF79AFA54
:102500008AA00499FFF796FA9DF814108EA0FFF7A1
:1025100091FA94A00699FFF78DFA99A00999FFF70F
:1025200089FABDF828109DA0FFF784FAA2A000F058
:1025300013FE0446A3A0FFF77DFA2146AEA0FFF7E5
:1025400079FAB2A0B968FFF775FAB6A0FFF772FA88
:10255000B86800F04BFA0146C0A0FFF76BFAC6A0BE
:10256000FFF768FA7868FFF70FFC0146CFA0FFF786
:1025700061FAB868FFF708FC04462146D1A0FFF7CE
:1025800059FA062C1BD2DFE804F003070B0F1317D0
:10259000D2A0FFF74FFA12E0D3A0FFF74BFA0EE0FC
:1025A000D3A0FFF747FA0AE0D4A0FFF743FA06E00A
:1025B000D5A0FFF73FFA02E0D6A0FFF73BFAD8A07C
:1025C000FFF738FA4FF40060FFF7BCFE04462046E0
:1025D00000F056FC2146E0A0FFF72CFA204600F060
:1025E00015FB4FF47A74204600F06EFBFBE7000009
:1025F0000A2A2A2A2A2A2A2A2A2A2A2A2A2A2AB2D3
:10260000E9D1AFC8CECEF1D3C5CFC8BCB62A2A2AED
:102610002A2A2A2A2A2A2A2A2A2A2A2A2A0A00008E
:10262000000000206C65645F7461736B20707269D8
:102630006F72697479203D20256C640A00000000E7
:1026400071756572795F7461736B207072696F72F6
:10265000697479203D20256C640A00000A2A2A2A20
:102660002A2A2A2A2A2A2A2A2A2A2ABBF1C8A1C8BF
:10267000CECEF1D3D0B9D8D0C5CFA22A2A2A2A2AC1
:102680002A2A2A2A2A2A2A2A2A2A2A0A0000000072
:102690005461736B4E616D6509095072696F72699F
:1026A000747909095461736B4E756D62657209091D
:1026B000537461636B48696768576174657209098F
:1026C0000D0A000025730909256409090925640913
:1026D000090925640909090D0A0000000A2A2A2AA5
:1026E0002A2A2A2A2A2A2A2A2AB2E9D1AFB5A5B843
:1026F000F6C8CECEF1B5C4D7B4CCACD0C5CFA22AE3
:102700002A2A2A2A2A2A2A2A2A2A2A2A2A0A00009D
:10271000C8CECEF1C3FB2020202020202020202066
:10272000202020202020202025730A00C8CECEF1B2
:10273000B1E0BAC520202020202020202020202009
:102740002020202025640A00C8CECEF1D7B4CCAC1E
:102750002020202020202020202020202020202079
:1027600025640A00C8CECEF1B5B1C7B0D3C5CFC875
:10277000BCB62020202020202020202025640A0014
:10278000C8CECEF1B6D1D5BBBBF9B5D8D6B72020CF
:10279000202020202020202025700A00C8CECEF145
:1027A000C0FACAB7CAA3D3E0B6D1D5BB2020202037
:1027B0002020202025640A0071756572795F74619C
:1027C000736B00000A2A2A2A2A2A2A2A2A2A2A2A53
:1027D0002ACDA8B9FDC8CECEF1C3FBB2E9D1AFC8AE
:1027E000CECEF1BEE4B1FA2A2A2A2A2A2A2A2A2A95
:1027F0002A2A2A2A2A0A0000746573745F68616EA7
:10280000646C65203D2025700A00000071756572BA
:10281000795F7461736B5F68616E646C65203D20E5
:1028200025700A000A2A2A2A2A2A2A2A2A2A2A2A31
:102830002AB2E9D1AFC8CECEF1C0FACAB7CAA3D383
:10284000E0B6D1D5BBB4F3D0A12A2A2A2A2A2A2A53
:102850002A2A2A2A2A2A2A0A00000000717565728B
:10286000795F7461736B206C65667420256C6420DD
:10287000737461636B0A00000A2A2A2A2A2A2A2A08
:102880002A2A2A2A2A2A2A2A2A2AB2E9D1AFC8CEF3
:10289000CEF1D7B4CCAC2A2A2A2A2A2A2A2A2A2AD2
:1028A0002A2A2A2A2A2A2A2A2A0A00006C65645F10
:1028B0007461736B207374617465203D2025640A14
:1028C0000000000071756572795F7461736B20732D
:1028D00074617465203D20256409000072756E6E78
:1028E000696E670A0000000072656164790A000081
:1028F000626C6F636B65640A00000000737573702F
:10290000656E6465640A000064656C657465640ADC
:1029100000000000696E76616C69640A00000000C6
:102920000A2A2A2A2A2A2A2A2A2A2A2A2A2A2A2A27
:102930002A2AB2E2CAD4C1D0B1EDB4F2D3A1BAAF5F
:10294000CAFD2A2A2A2A2A2A2A2A2A2A2A2A2A2A74
:102950002A2A2A2A2A0A0000257300001CB50E48DC
:102960000221CDE90010002380220CA10E4800F0C6
:10297000C3FB09480321001DCDE9001000234FF4DB
:1029800080720AA10C4800F0B7FB0348001F0068E2
:10299000BDE81C4000F0D0B9040000206C65645F05
:1029A0007461736B000000002D1E00087175657264
:1029B000795F7461736B00006D2400080169D0E9D0
:1029C00001329A60D0E901235A604A68824201D1FB
:1029D00082684A60002202610868401E08607047F1
:1029E00001488068704700000C000020002801D1D9
:1029F00002480068006BFFF756BC00000C00002086
:102A00002DE9F04706460B4617460024202500F026
:102A1000DBFADFF88C80D8F8080083423AD3DFF87D
:102A200084906D1E05EB850009EB800104EBC4006A
:102A300006EB80000122FFF7C9FB0444002DF0D112
:102A400004EBC40006EB80000222D8F83410FFF734
:102A5000BDFB044404EBC40006EB80000222D8F85E
:102A60003810FFF7B3FB044404EBC40006EB80000E
:102A700004220D49FFF7AAFB04440B4904EBC400F0
:102A800006EB800003221431FFF7A0FB04440FB1D2
:102A90000020386000F03AFC2046BDE8F0870000D6
:102AA0000C000020A80100206404002010B504469A
:102AB00000F03CF80CB903480468E46A00F072F8CE
:102AC000204610BD0C00002000F1080141604FF0CD
:102AD000FF328260C1600161002101607047002106
:102AE0000161704730B50C68621C02D000F1080229
:102AF00002E0026904E01A4653681D68A542FAD94B
:102B000053684B6099608A60516008610168491C94
:102B1000016030BD42684A6093688B609368596079
:102B2000916008610168491C01607047502080F382
:102B30001188BFF34F8FBFF36F8F09494868401C5E
:102B4000486001280AD10748006810F0FF0F05D03F
:102B50004FF4BD7204A10FA0FEF76CBF70470000D8
:102B60004800002004ED00E02E2E5C4672656552A0
:102B7000544F535C706F727461626C655C52564462
:102B8000535C41524D5F434D335C706F72742E63E2
:102B9000000000004572726F723A2025732C2025C8
:102BA000640D0A0010B5094C6068002805D140F298
:102BB000811207A111A0FEF73DFF6068401E606012
:102BC000002801D180F3118810BD000048000020CA
:102BD0002E2E5C4672656552544F535C706F727452
:102BE00061626C655C525644535C41524D5F434D8B
:102BF000335C706F72742E63000000004572726F58
:102C0000723A2025732C2025640D0A0070B5002827
:102C10002AD008380446154D6068E968084205D195
:102C20004FF4A07212A11CA0FEF704FF206828B187
:102C300040F241120EA118A0FEF7FCFE6068E968A0
:102C4000084211D02268002A0ED18843606000F04B
:102C5000BBF960686968084468602046FFF78CFA31
:102C6000BDE8704000F052BB70BD00005400002071
:102C70002E2E5C4672656552544F535C706F7274B1
:102C800061626C655C4D656D4D616E675C68656128
:102C9000705F342E630000004572726F723A202517
:102CA000732C2025640D0A0006484FF47A710068E1
:102CB000B0FBF1F14FF0E020491E416107210161B5
:102CC000704700007800002010B504460020002C5A
:102CD00010D00E48006B28B140F2CF420CA111A0D9
:102CE000FEF7A8FE00F070F900212046FFF7D0F8AB
:102CF00000F00CFB002807D10E494FF0805008600F
:102D0000BFF34F8FBFF36F8F10BD00000C0000208A
:102D10002E2E5C4672656552544F535C7461736B22
:102D2000732E63004572726F723A2025732C202532
:102D3000640D0A0004ED00E070B50446FFF7F6FEEE
:102D4000234D04B92C68201DFFF738FE58B9E06AFE
:102D5000204A00EB800152F8211021B90121814065
:102D6000286988432861A06A18B104F11800FFF7A8
:102D700025FE686A401C68622868844207D1211DCC
:102D80001548FFF7C7FE6868401C686007E0A86840
:102D9000401EA8602046FFF723F9FFF745FAFFF72A
:102DA00001FF6869002812D0286884420FD1286B7F
:102DB00028B140F2654209A10DA0FEF73BFE104983
:102DC0004FF080500860BFF34F8FBFF36F8F70BD1F
:102DD0000C000020A8010020640400202E2E5C4678
:102DE00072656552544F535C7461736B732E63004C
:102DF0004572726F723A2025732C2025640D0A00EB
:102E000004ED00E02DE9F04707460C4691461E46CA
:102E1000002F0ED03D46256005F134006060E86A61
:102E20002061286BE061686CA060207B032803D0E0
:102E30000AE012480568EEE700F0C6F8A86A08B193
:102E40000220207300F062FA4FF00008C4F81480EA
:102E5000C4F81880052E01D0267303E03846FEF72B
:102E600093FF2073B9F1000F05D0286BFFF71BFA11
:102E70002084BDE8F087A4F82080FAE70C00002049
:102E80007FB5064600243470274881680391806826
:102E900000EBC0008000FFF755FA0546280042D03D
:102EA00000220399FFF7ACFD0390029429E00298F9
:102EB00000EBC00005EB8000017B01292BD002292B
:102EC0002BD003292BD004292BD000244168304675
:102ED000FFF726FA0646029800EBC00005EB8000DB
:102EE0008168028CCDE90021036922460FA130469A
:102EF000FEF7B0FD3046FDF7A5F906440298401CE8
:102F00000290DDE902018842D1D304B02846BDE831
:102F10007040FFF77BBE5224D8E74224D6E7532403
:102F2000D4E74424D2E77FBD0C00002009256309C3
:102F300025750925750925750D0A00001CB515486C
:102F40000024CDE900402346802213A1144800F05C
:102F5000D3F801280AD0401C1BD102B040F2847281
:102F6000BDE810400FA114A0FEF764BD502080F30F
:102F70001188BFF34F8FBFF36F8F06484FF0FF31BB
:102F80002C38816201214161C460BDE81C4000F021
:102F900063B81CBD3800002049444C4500000000C7
:102FA000412000082E2E5C4672656552544F535CDA
:102FB0007461736B732E63004572726F723A2025D1
:102FC000732C2025640D0A000248016B491C016323
:102FD000704700000C00002070B5144D286B0028CD
:102FE00002D00120E86170BD0020E8612869B0FAD4
:102FF00080F0C0F11F000E4E00EB800456F8240054
:1030000028B940F6F6220BA10FA0FEF713FD06EB40
:10301000840041684968416000F10802914201D191
:10302000496841604068C068286070BD0C0000209D
:10303000A80100202E2E5C4672656552544F535CE9
:103040007461736B732E63004572726F723A202540
:10305000732C2025640D0A001CB5194908780190CD
:10306000FF200870087800909DF80000154A00F0D5
:10307000500010700720906006E09068401E90603D
:103080009DF80000400000909DF800000006F4D478
:10309000107A000200F4E0609060019808700A481D
:1030A000016841F470010160016841F07041016004
:1030B000FFF7FAFD00205060FDF756F800201CBD18
:1030C00000E400E04800002020ED00E010B55020B2
:1030D00080F31188BFF34F8FBFF36F8F00F0A0F81C
:1030E00018B104494FF080500860002080F3118827
:1030F00010BD000004ED00E02DE9FF5F8146DDE931
:103100000E788A4616469B46B000FFF71BF9054627
:1031100028000AD05420FFF715F904460CB12563A6
:1031200004E02846FFF772FD00E000248CB1002087
:10313000CDE90240CDE900785B463246514648462B
:10314000FEF792FF2046FEF7DBFE012004B0BDE84B
:10315000F09F4FF0FF30F9E72DE9F04107462025B9
:103160003846FDF76FF8102805D340F6D60219A1AE
:103170001DA0FEF75FFCFFF727FF1F4E6D1E05EB3E
:10318000850006EB80003946FFF760F804460CB96D
:10319000002DF3D1194D24B93946686BFFF756F865
:1031A000044624B93946A86BFFF750F8044624B901
:1031B00039461348FFF74AF804462CB910483946F7
:1031C0001438FFF743F8044600F0A0F82046BDE8A5
:1031D000F08100002E2E5C4672656552544F535CA0
:1031E0007461736B732E63004572726F723A20259F
:1031F000732C2025640D0A00A80100200C0000207B
:103200007804002005484169002903D0006B18B1FB
:103210000020704701207047022070470C000020FA
:103220002DE9F04100262E4F386B002808D0B869F0
:10323000401CB861F86900B101263046BDE8F08154
:10324000FD686D1CFD608DB9786B006828B140F693
:10325000D91224A128A0FEF7EDFB786BB96B796336
:10326000B863386A401C3862FEF7DEFFB86ADFF8E0
:10327000988085420DD3786B006838B1786BC06850
:10328000C468606885420ED2B86202E04FF0FF3039
:10329000B8623868C06A00EB800058F82000012846
:1032A000C8D90126C6E7201DFFF788FBA06A18B120
:1032B00004F11800FFF782FBE06A01213A698140BE
:1032C0001143396100EB800008EB8000211DFFF7FE
:1032D00021FCE06A3968C96A8842CCD30126CAE772
:1032E0000C0000202E2E5C4672656552544F535CD4
:1032F0007461736B732E63004572726F723A20258E
:10330000732C2025640D0A00A80100202DE9F0414E
:10331000002400272B4D286B002805D14FF4FD62B7
:1033200029A12EA0FEF786FBFFF700FC286B401EAC
:103330002863286BF0BBA868E0B3DFF8B0800126F3
:103340001DE0D8F80C00C46804F11800FFF736FB44
:10335000201DFFF733FBE06A2A6906FA00F11143EA
:103360002961234900EB800001EB8000211DFFF75C
:10337000D1FBE06A2968C96A884200D3EE61D8F8B7
:1033800000000028DDD10CB1FEF74EFFAC6944B15E
:10339000FFF746FF00B1EE61641E002CF8D100205B
:1033A000A861E86930B10127124938070860BFF306
:1033B0004F8F00E001E0BFF36F8FFFF7F3FB38465C
:1033C000BDE8F0810C0000202E2E5C46726565522F
:1033D000544F535C7461736B732E63004572726F4C
:1033E000723A2025732C2025640D0A005004002019
:1033F000A801002004ED00E0000000000000000033
:10340000010203040607080900000000010203048A
:103410003034000800000020800000009C1A0008E2
:10342000B03400088000002010980000AC1A00089A
:10343000000000000000000000000000000000008C
:10344000000000000000000000000000000000007C
:10345000000000000000000000000000000000006C
:10346000000000000000000000000000000000005C
:10347000000000000000000000000000AAAAAAAAA4
:10348000000000000000000000000000000000003C
:10349000000000000000000000000000010000002B
:1034A00010000000000000000024F40000000000F4
:0400000508000131BD
:00000001FF
