:020000040800F2
:1000000020990020DD010008A3160008391500081A
:10001000A11600080F030008F11A000800000000F4
:100020000000000000000000000000004501000882
:10003000110300080000000089010008C91600082B
:10004000F7010008F7010008F7010008F7010008B0
:10005000F7010008F7010008F7010008F7010008A0
:10006000F7010008F7010008F7010008F701000890
:10007000F7010008F7010008F7010008F701000880
:10008000F7010008F7010008F7010008F701000870
:10009000F7010008F7010008F7010008F701000860
:1000A000F7010008F7010008F7010008F701000850
:1000B00085170008F7010008F7010008F70100089C
:1000C000F7010008F7010008F7010008F701000830
:1000D000F7010008E51A0008F7010008F701000819
:1000E00015030008F7010008F7010008F7010008F0
:1000F000F7010008F7010008F7010008F701000800
:10010000F7010008F7010008F7010008F7010008EF
:10011000F7010008F7010008F7010008F7010008DF
:10012000F7010008F7010008F7010008F7010008CF
:10013000DFF80CD000F0CAF8004800470D1F000897
:1001400020990020224B19680868B0E8F00F80F36E
:100150000988BFF36F8F4FF0000080F311884EF0D5
:100160000D0E70470000000006480068006880F32C
:10017000088862B661B6BFF34F8FBFF36F8F00DFA1
:1001800000BF00BF08ED00E0EFF30980BFF36F8F01
:100190000F4B1A6820E9F00F106008B54FF05000BF
:1001A00080F31188BFF34F8FBFF36F8F02F044FFCE
:1001B0004FF0000080F31188BDE808401968086816
:1001C000B0E8F00F80F30988BFF36F8F704700BF6E
:1001D00010000020EFF305807047000006488047BC
:1001E00006480047FEE7FEE7FEE7FEE7FEE7FEE71C
:1001F000FEE7FEE7FEE7FEE73D17000831010008D5
:10020000202A04DB203A21FA02F00021704721FA6B
:1002100002F3D040C2F120029140084319467047D2
:1002200040EA01039B0703D009E008C9121F08C078
:10023000042AFAD203E011F8013B00F8013B521EF8
:10024000F9D27047D2B201E000F8012B491EFBD26F
:1002500070470022F6E710B513460A4604461946D1
:10026000FFF7F0FF204610BD2DE9F05F05460020A6
:1002700092469B4688460646814640241BE0284617
:10028000414647462246FFF7BBFF53465A46C01A2F
:10029000914110D311461846224600F029F82D1A34
:1002A00067EB01084F4622460120002100F020F8AC
:1002B00017EB00094E41201EA4F10104DFDC484683
:1002C00031462A464346BDE8F09F0000064C074DE4
:1002D00006E0E06840F0010394E807009847103416
:1002E000AC42F6D3FFF728FF243E0008443E000846
:1002F000202A04DB203A00FA02F1002070479140E6
:10030000C2F1200320FA03F3194390407047FEE73F
:100310007047000038B5124D286880041BD50020B6
:100320000090104C6A460421206802F069FF012801
:1003300011D10021206802F0BFFE01460AA001F0A1
:10034000D9FB009838B117494FF080500860BFF3CF
:100350004F8FBFF36F8F4FF40050286038BD0000FF
:10036000140401400C0000204B455932CDE2B2BFCD
:10037000D6D0B6CFB3F6B7A2A3ACB7A2CBCDCAC284
:10038000BCFECEBB4556454E545F4249545F32A336
:10039000ACCAC2BCFED7E9B5C4D6B5CEAA2523588F
:1003A0000D0A000004ED00E0704700002DE9F05F49
:1003B000002590F82110022903D004218163012532
:1003C00095E001680A6822F00E020A6001680A6876
:1003D00022F001020A60474E464FB215DFF814C101
:1003E000DFF81081DFF80C91DFF808A1DFF804B125
:1003F0000168783F13011402ACF1640CA8F15008B5
:10040000A9F13C09AAF1280AABF1140B4FF4801EA4
:10041000B1422FD9B94201D1012227E0614501D172
:10042000102223E0414521D0494501D11A461DE063
:10043000514501D1224619E0594501D1724615E0D6
:100440002D4EB14201D1012210E02B4E1436B142A3
:1004500001D110220AE0284E2836B14206D0264AA1
:100460003C32914201D11A4600E022462249091F3E
:100470000A6033E0B94201D101222CE0614501D18B
:10048000102228E0414526D0494501D11A4622E0F4
:10049000514501D122461EE0594501D172461AE06C
:1004A000B14202D14FF0807215E0134EB14201D13A
:1004B000012210E0104E1436B14201D110220AE0A0
:1004C0000D4E2836B14206D00B4A3C32914201D142
:1004D0001A4600E02246074980394A60012180F827
:1004E0002110002180F82010416B01B18847284677
:1004F000BDE8F09F80000240080402402DE9F84F5B
:1005000000240023DFF8E0914FF00F0809F1040AFE
:100510000AF1040B0BF1040EDFE00127A7403A407B
:10052000BA4275D1DFF8C4C14D68A5EB0C0665452C
:100530002BD00DDC032D34D005DC35B3012D19D0C3
:10054000022D2FD11BE0112D16D0122D2AD119E02A
:10055000B6F5881F19D006DCB6F5803F15D0B6F584
:10056000801F1FD111E0B6F5001F0ED0B6F5041F95
:1005700018D10AE0CB6815E0CB681B1D12E0CB68F0
:1005800008330FE0CB680C330CE08B6823B1012BF0
:1005900004D00823476105E0042303E00823076132
:1005A00000E00023FF2A01D8054601E000F1040520
:1005B00002D84FEA840603E0A4F108064FEA860653
:1005C0002F6808FA06FC27EA0C0703FA06F647EA42
:1005D00006072F604D68ED007ED5454DAE6946F0AB
:1005E0000106AE61AD6905F001050095414D24F0AD
:1005F00003067719BE68A5072D0F08FA05FC26EA41
:100600000C06DFF8F4C0604503D14FF0000C25E084
:1006100062E0DFF8E8C0604502D14FF0010C1DE058
:10062000DFF8DCC0604502D14FF0020C16E0DFF8C5
:10063000D4C0604502D14FF0030C0FE0DFF8C8C012
:10064000604502D14FF0040C08E0DFF8C0C06045FF
:1006500002D14FF0050C01E04FF0060C0CFA05FC3E
:100660004CEA060CC7F808C04D68ED0305D5D9F86B
:1006700000501543C9F8005004E0D9F800509543E4
:10068000C9F800504D68AD0305D5DAF800501543A0
:10069000CAF8005004E0DAF800509543CAF8005058
:1006A0004D68ED0205D5DBF800501543CBF800503E
:1006B00004E0DBF800509543CBF800504D68AD02E4
:1006C00005D5DEF800501543CEF8005004E0DEF802
:1006D00000509543CEF80050641C0A6832FA04F5C5
:1006E0007FF41BAFBDE8F88F00040140000011103B
:1006F000001002400000014000080140000C0140D1
:10070000001001400014014000180140001C01408D
:100710008068084201D00120704700207047002AFD
:1007200001D0016170470904016170470148806888
:10073000704700008400002070B50446002C04D0EF
:1007400094F83D00002510B106E0012070BD84F84A
:100750003C50204600F0B2F8242084F83D00206888
:10076000016821F00101016000F074FA4F4B6168EB
:10077000994203D84E49884203D304E04D49884248
:1007800001D2012070BD4C49B0FBF1F122685668DE
:1007900026F03F060E43566062689A4201D8491C13
:1007A00007E04FF4967251434FF47A72B1FBF2F1C5
:1007B000491C2268166A26F03F06314311626168BF
:1007C000994210D84900401EB0FBF1F2521CC2F30E
:1007D0000B02042A01D2042022E0B0FBF1F0401CFD
:1007E000C0F30B001CE0A268F2B301EBC10303EB02
:1007F0000116431EB3FBF6F35B1C43F480431B0559
:1008000049D092B301EBC10202EB0111401EB0FBD3
:10081000F1F0401CC0F30B0040F4804040F4004075
:100820002168CA694CF6FF739A431043C861D4E942
:10083000071001432068026822F0C00211430160E2
:10084000D4E9030101432068826848F2FF339A43E8
:1008500011438160D4E9051001432068C26822F089
:10086000FF021143C16001E00EE016E0206801685C
:1008700041F0010101602564202084F83D002563DA
:1008800084F83E50002070BD01EB4106431EB3FBCF
:10089000F6F35B1CB3E70120C2E701EB4101401E08
:1008A000B0FBF1F0401CC0F30B00B7E7A0860100DD
:1008B00080841E0000093D0040420F0030B585B025
:1008C000002101910291039104911E4D01681E4C7B
:1008D000122203231D48A94218D1A16941F0080141
:1008E000A161A16901F008010091C021019102926A
:1008F000049301A9FFF702FEE06940F40010E061F3
:10090000E06900F40010009005B030BD104DA94220
:10091000FAD1A16941F00801A161A16901F00801C2
:1009200000914FF4406101910292049301A9FFF7F5
:10093000E5FDE06940F48000E061E06900F48000DA
:100940000090E1E70054004000100240000C01401C
:100950000058004002488168027811448160704765
:100960008400002010B50748016841F010010160C3
:10097000032000F08FF8002000F006F800F03EF8A9
:10098000002010BD0020024000B587B001460022C3
:100990001C2000F05FF81C2000F04EF81448C169DC
:1009A00041F00101C161C06900F00100009001A99E
:1009B00002A800F02BF900F04DF940000D49B0FB02
:1009C000F1F1491E0C484FF08042026040F2E732DC
:1009D000C260416000210161816000F059FB10B1EB
:1009E000012007B000BD044800F06FFBF9E70000EC
:1009F0000010024040420F008001002008B50C4862
:100A0000816941F001018161816901F00101009179
:100A1000C16941F08051C161C06900F0805000900F
:100A20000449486820F0E06040F00070486008BD6C
:100A30000010024000000140002809DB00F01F0206
:100A4000012191404009800000F1E020C0F8001130
:100A500070470000F0B40D460D4B1B68C3F3022332
:100A6000C3F10704042C00D90424191D072901D25D
:100A7000002300E0DB1E012606FA04F1491E29408E
:100A800099409E40761E16403143F0BC01F042B8BA
:100A90000CED00E000F00701054A10684FF6FF0377
:100AA000184040EA012003490843106070470000E5
:100AB0000CED00E00000FA052DE9F04704460D4674
:100AC000002C17D0DFF83081D8F8000000F00700C4
:100AD000A84211D2D8F8000020F007002843C8F837
:100AE0000000D8F8000000F00700A84204D0012060
:100AF000BDE8F0870120FBE72068404E810712D552
:100B0000400703D5706840F4E0607060207800070B
:100B100003D5706840F4605070607068A16820F080
:100B2000F000084370602078C0072CD0606801286E
:100B300006D0022809D0316889070BD40120D7E7F5
:100B40003168890306D40120D2E73168890101D4D4
:100B50000120CDE7716821F0030101437160FFF7C7
:100B6000E5FD074641F2883906E0FFF7DFFDC01BCF
:100B7000484501D90320BBE77068616800F00C00AC
:100B8000B0EB810FF1D1D8F8000000F00700A842C7
:100B90000ED9D8F8000020F007002843C8F800005C
:100BA000D8F8000000F00700A84201D001209FE71C
:100BB0002078400705D57068E16820F4E0600843BC
:100BC00070602078000706D57068216920F46050B5
:100BD00040EAC100706000F05DF87168084AC1F336
:100BE0000311515CC8400749086007480068FFF7D7
:100BF000CBFE00207CE700000020024000100240F5
:100C00000C3E000890000020880000200F220260A7
:100C10000B4A536803F003034360536803F0F00387
:100C20008360536803F4E063C360526802F4605267
:100C3000D20802610348006800F0070008607047AE
:100C40000010024000200240014800687047000088
:100C50009000002000B5FFF7F7FF04494968044AF7
:100C6000C1F30221515CC84000BD000000100240E9
:100C70001C3E000800B5FFF7E7FF04494968044A35
:100C8000C1F3C221515CC84000BD00000010024009
:100C90001C3E000885B014A090E80E00C068CDE9A5
:100CA00002230191049014A000680090134B59682E
:100CB000134801F00C02042A10D0082A0ED101A812
:100CC000C1F38342805CC9030AD55968C1F340412E
:100CD0001DF801100A4A5043B0FBF1F005B070470F
:100CE00008494843FAE7000002030405060708091B
:100CF0000A0B0C0D0E0F1010010200000010024034
:100D000000127A0000093D002DE9F84F0446002C3E
:100D10000ED02078D94DC0075ED06868C0F381003E
:100D200001280BD06868C0F38100022803D00CE0D2
:100D30000120BDE8F88F6868C00306D528688003E5
:100D40004AD56068A8BB0120F3E76068B0F5803F32
:100D500011D0A8B1B0F5A02F1BD0286820F48030A6
:100D60002860286820F480202860606830B3FFF78E
:100D7000DDFC06461EE0286840F480302860F4E779
:100D8000286820F480302860286820F480202860BB
:100D9000EBE7286840F480202860286840F4803021
:100DA0002860E2E7FFF7C2FC801B642802D9032019
:100DB000BFE711E028688003F4D50DE0FFF7B6FC2B
:100DC000064606E0FFF7B2FC801B642801D9032029
:100DD000AFE728688003F5D42078DFF8A482800785
:100DE0004FF0010A4FF0000945D5686810F00C0F6C
:100DF00007D06868C0F38100022812D16868C00378
:100E00000FD42868800704D52069012801D001206B
:100E10008FE72868616920F0F80040EAC100286087
:100E200029E02069B8B1C8F800A0FFF77FFC0646AA
:100E300006E0FFF77BFC801B022801D9032078E73E
:100E400028688007F5D52868616920F0F80040EA35
:100E5000C10028600FE0C8F80090FFF767FC064665
:100E600006E0FFF763FC801B022801D9032060E73E
:100E700028688007F5D42078000726D58148A16925
:100E800099B1C0F800A0FFF751FC064606E0FFF755
:100E90004DFC801B022801D903204AE7686A8007BD
:100EA000F5D5012000F0FEFB0FE0C0F80090FFF741
:100EB0003DFC064606E0FFF739FC801B022801D9FD
:100EC000032036E7686A8007F5D42078400773D599
:100ED0000026E869C00008D4E86940F08050E86165
:100EE000E86900F0805000900126DFF89CB1DBF843
:100EF0000000C00514D4DBF8000040F48070CBF88B
:100F00000000FFF713FC074606E0FFF70FFCC01BCD
:100F1000642801D903200CE7DBF80000C005F4D5F4
:100F2000E068012812D0B0B105281DD0286A20F051
:100F300001002862286A20F004002862E06841F27B
:100F4000883B28B3FFF7F2FB07461DE0286A40F014
:100F500001002862F2E7286A20F001002862286A6E
:100F600020F004002862E9E7286A40F004002862C3
:100F7000286A40F001002862E0E7FFF7D7FBC01BBA
:100F8000584501D90320D4E6286A8007F5D50DE03D
:100F9000FFF7CCFB074606E0FFF7C8FBC01B584530
:100FA00001D90320C5E6286A8007F5D4012E03D1B4
:100FB000E86920F08050E861E069A0B36968C1F396
:100FC0008101022946D0022805D0C8F86090FFF7B9
:100FD000ADFB04463AE0C8F86090FFF7A7FB064671
:100FE00006E0FFF7A3FB801B022801D90320A0E63F
:100FF00028688001F5D4206AB0F5803F05D1686883
:10100000A16820F4003008436860D4E9080108436F
:10101000696821F4741108436860C8F860A0FFF79C
:1010200085FB044607E026E0FFF780FB001B022853
:1010300001D903207DE628688001F5D51BE0FFF784
:1010400075FB001B022801D9032072E62868800185
:10105000F5D410E001280CD06868226A00F48031D1
:10106000914204D1616A00F47010884203D00120DB
:101070005FE601205DE600205BE600000010024014
:1010800000004242800442420070004070477047B6
:1010900010B50446002C03D094F83D0010B107E0D1
:1010A000012010BD002084F83C00204600F00CF820
:1010B000022084F83D00211D206800F069FB01201A
:1010C00084F83D00002010BD70470168CA6842F0F6
:1010D0000102CA600068816801F00701062903D097
:1010E000016841F00101016000207047704770B550
:1010F0000446206801694FF00005C943890716D4EA
:10110000C168C943890712D4E91E01610120207713
:1011100020688069800703D02046FFF7E7FF05E0DD
:10112000204600F09BF8204600F099F825772068CB
:101130000169C943490718D4C168C943490714D490
:101140006FF004010161022020772068806910F4AB
:10115000407F03D02046FFF7C9FF05E0204600F09E
:101160007DF8204600F07BF8257720680169C943A7
:10117000090717D4C168C943090713D46FF00801E0
:101180000161042020772068C069800703D02046D1
:10119000FFF7ACFF05E0204600F060F8204600F0C5
:1011A0005EF8257720680169C943C90618D4C1686B
:1011B000C943C90614D46FF01001016108202077DB
:1011C0002068C06910F4407F03D02046FFF78EFFEF
:1011D00005E0204600F042F8204600F040F8257770
:1011E00020680169C943C90708D1C168C943C90753
:1011F00004D1891E0161204600F032F8206801699F
:10120000C943090609D4C168C943090605D46FF06A
:10121000800101612046FFF739FF20680169C94359
:10122000490609D4C168C943490605D46FF0400195
:101230000161204600F01BF820680169C943890656
:101240000BD4C168C943890607D46FF0200101613E
:101250002046BDE87040FFF71ABF70BD7047704769
:101260000068B0F1804F01D1FFF774BB7047704741
:101270007047000070B5044622681068D168526952
:1012800000F00F03002B08D1850606D58D0604D586
:101290002046BDE8704000F0E6BA002B5ED002F0B8
:1012A000010301F490752B4358D0C30705D0CB053B
:1012B00003D5E36B43F00103E363430705D5D3078D
:1012C00003D0E36B43F00203E363830705D5D30741
:1012D00003D0E36B43F00403E363030705D5D207B0
:1012E00003D0E26B42F00802E263E26B002A2AD0EC
:1012F000800604D5880602D5204600F0B4FA20689E
:101300004069C0F38010E16B090700D400B32046A8
:1013100000F08EFA20684169490615D5416921F02F
:1013200040014161606B58B115494163606BFFF743
:101330003DF8002807D0606B416BBDE8704008475E
:101340002046FFF795FF70BD2046FFF791FF70BD67
:101350002046FFF78DFF0020E06370BD020606D532
:101360000A0604D52046BDE8704000F055BB400693
:10137000F3D54806F1D52046BDE8704000F066BAC6
:101380002118000870B50446002C04D094F83900E8
:10139000002510B106E0012070BD84F838502046C9
:1013A00000F022F8242084F839002068C16821F474
:1013B0000051C160204600F0A5FA2068016921F4BF
:1013C000904101612068416921F02A014161206852
:1013D000C16841F40051C160E563202084F8390000
:1013E00084F83A00002070BD30B585B00024019427
:1013F0000294039404940068184988422CD1184838
:10140000816941F480418161816901F480410091E9
:10141000816941F004018161806900F0040000905D
:101420004FF40070019002200290032004900D4DB3
:1014300001A92846FFF762F8291501910294039447
:1014400001A92846FFF75AF8002205212520FFF7B9
:1014500001FB2520FFF7F0FA05B030BD0038014050
:10146000001002400008014070472DE9F84304468F
:101470000D4691461E4694F83900202802D00220DD
:10148000BDE8F883B5B1B9F1000F13D094F8380076
:10149000012811D0012084F838000027E7632120BB
:1014A00084F83900FFF742F98046A4F82490A4F8A4
:1014B00026902DE00120E3E70220E1E7E08C401ECA
:1014C000E084A068B0F5805F09D043460022802107
:1014D0002046009600F0D3FAB0B10320D0E743468F
:1014E000002280212046009600F0C9FA08B10320AE
:1014F000C6E728882168C0F308004860206908B161
:101500006D1C05E0AD1C03E0216815F8010B486077
:10151000E08C0028D2D1434600224021204600968C
:1015200000F0ADFA08B10320AAE72020383460703B
:1015300027700020A4E77047FEE7000070B586B072
:10154000002402940394049405942248816941F094
:1015500010018161816901F010010191816941F0FF
:1015600004018161816901F004010191816941F007
:1015700008018161806900F008000190164E012287
:1015800023213046FFF7CBF87014029013480390E4
:10159000049402A91248FEF7B1FF012502950394B5
:1015A000049402A90F48FEF7A9FF23200290039597
:1015B00004940320059002A93046FEF79FFF002205
:1015C00006212820FFF746FA2820FFF735FA06B053
:1015D00070BD000000100240000C0140000011101E
:1015E000001001400008014010B50D480B49016092
:1015F0000C49416000218160C1604FF4804202616A
:1016000041618161C1610162FFF796F8002803D052
:10161000BDE81040FEF7C8BE10BD000000540040F9
:1016200098000020A086010010B50D480B4901600C
:101630000C49416000218160C1604FF48042026129
:1016400041618161C1610162FFF776F8002803D032
:10165000BDE81040FEF7A8BE10BD000000580040D5
:10166000EC000020A086010010B50C480A4901607A
:101670004FF4E131416000218160C16001610C22C1
:1016800042618161C161FFF77DFE002803D0BDE8A2
:101690001040FEF789BE10BD003801404001002017
:1016A000FEE7704708B507494FF4FA520968B1FBE5
:1016B000F2F14143009100BF0098411E0091FAD21F
:1016C00008BD00009000002010B502F067F9012865
:1016D00003D0BDE8104001F065BE10BD30B58FB03D
:1016E000282105A8FEF7B5FD14216846FEF7B1FDD7
:1016F0000121059108040690002407940991022510
:101700000C950D904FF4E0100E9005A8FFF7FCFA31
:1017100008B1FEF749FE0F200090019502944FF4A6
:1017200080600390049402216846FFF7C5F9002801
:1017300001D0FEF739FE0FB030BD00000D48016842
:1017400041F00101016041680B4A114041600168AC
:101750000A4A11400160016821F48021016041685A
:1017600021F4FE0141604FF41F0181600449C00370
:1017700008607047001002400000FFF8FFFFF6FE0F
:1017800008ED00E00148FFF7B2BC00008001002036
:101790002DE9F04102681D4D1D4E1E4FDFF878C047
:1017A0001E4B4FF08048A84209D0984207D04045D0
:1017B00005D0B04203D0B84201D0604503D122F039
:1017C00070044A682243A84209D0984207D0404595
:1017D00005D0B04203D0B84201D0604503D122F415
:1017E0004074CA6822434C6922F08002224302609E
:1017F0008A68C2620A688262A84201D0984201D116
:101800000969016301214161BDE8F081002C0140BB
:101810000004004000080040000C0040003401407B
:1018200010B5406A0021C185C184FFF721FD10BDBC
:101830000168CA6822F49072CA6001684A6922F09D
:1018400001024A61202180F83A10704710B5016802
:10185000CA6822F04002CA60202180F83910FFF7E0
:101860006AFE002010BD10B590F83A10222901D070
:10187000022010BD8168B1F5805F11D0016919B3F4
:101880000168496801F07F03816A4A1C82620B701B
:10189000C18D491E0904090CC1851CD0002010BD52
:1018A000816A02693AB102685268D2B20A80816ADA
:1018B000491C8162ECE702685268C2F308020A80A0
:1018C000816A891C8162E3E701684A68816A4B1C6E
:1018D00083620A70DCE70168CA6822F02002CA60ED
:1018E0000168CA6822F48072CA6001684A6922F0FD
:1018F00001024A61202180F83A10FFF7B5FD00206F
:1019000010BD00002DE9F041044620680169E2683D
:1019100021F4405111430161A168206901436069CC
:1019200001432068C26841F20C639A430A43C260D3
:1019300020684169A26921F4407111434161354930
:10194000206864253226884232D1FFF793F900EBF4
:10195000C00101EB001061686FF018078900B0FB4F
:10196000F1F2B2FBF5F2B0FBF1F37A4303EB820242
:10197000B0FBF1F306EB0212B2FBF5F2B3FBF5F3A9
:1019800002F0F00202EB0312B0FBF1F3B0FBF1F056
:10199000B0FBF5F0784303EB800006EB0010B0FBE2
:1019A000F5F0216800F00F0010448860BDE8F08178
:1019B000FFF750F900EBC00101EB001061686FF018
:1019C00018078900B0FBF1F2B2FBF5F2B0FBF1F3BE
:1019D0007A4303EB8202B0FBF1F306EB0212B2FB97
:1019E000F5F2B3FBF5F302F0F00202EB0312B0FBE9
:1019F000F1F3B0FBF1F0B0FBF5F0784303EB8000BE
:101A000006EB0010B0FBF5F0216800F00F00104469
:101A10008860CBE70038014090F83910212901D0C7
:101A2000022070478168B1F5805F0CD0016A4A1CC2
:101A30000262026809785160C18C491E0904090CD0
:101A4000C18410D019E0016A02680988C1F3080155
:101A50005160016919B1016A491C0162ECE7016A30
:101A6000891C0162E8E70168CA6822F08002CA6046
:101A70000068C16841F04001C160002070472DE955
:101A8000F04104460E4617469846069D1DE0681C28
:101A90001BD02DB1FEF74AFEA0EB0800A84214D9D6
:101AA0002068C16821F4D071C1602068416921F0CB
:101AB00001014161202084F8390084F83A000020B7
:101AC00084F838000320BDE8F0812068006836EA19
:101AD000000004D00020B842D9D00020F3E7012054
:101AE000F9E700000148FFF7C5BB000040010020F6
:101AF000FEE700000FB4054B10B503A9044A029895
:101B000000F028F810BC5DF814FB0000CD1E0008A2
:101B1000940000200907090E002804DB00F1E020F2
:101B200080F80014704700F00F0000F1E02080F80A
:101B3000141D704702E008C8121F08C1002AFAD11C
:101B400070477047002001E001C1121F002AFBD13D
:101B5000704700002DE9FF4F8DB09B460F460446AD
:101B6000002606E025280BD05A460F999047641CA2
:101B7000761C20780028F5D111B03046BDE8F08FF2
:101B80000025A8460122984900E0054314F8013FCA
:101B9000203B02FA03F00842F7D120782E2817D113
:101BA00014F8010F45F004052A280ED06FF02F021B
:101BB0002078A0F1300109290AD808EB880102EB4E
:101BC000410100EB0108641CF2E757F8048B641C28
:101BD00020786C280DD004DC4C2812D06A2811D152
:101BE00004E074280DD07A280CD10AE045F40015E1
:101BF00007E0617845F48015814202D1641C05F547
:101C00008015641C2278692A45D008DC002AB3D0EC
:101C1000582A69D0632A10D0642A08D13BE0702A80
:101C200067D0732A13D0752A5CD0782A5CD010460E
:101C30005A460F999047761CD3E017F8040B8DF89D
:101C4000000000208DF80100E946012003E057F86C
:101C5000049B4FF0FF3069074FF0000501D40AE004
:101C60006D1C45450DDA8542FADB19F8051000298F
:101C7000F6D106E06D1C8542FCDB19F80510002941
:101C8000F8D12E4404E019F8010B5A460F999047F9
:101C90006D1EF8D2A5E00A200021CDE90801C5F3A8
:101CA000025002280DD001CFC117031E71F10003AD
:101CB0000DDA4FF0000CD0EB0C006CEB01012D2382
:101CC00008E0FF1D27F00707F7E80201EDE72B0505
:101CD00004D52B238DF8283001233BE0EB0739D0C6
:101CE0002023F7E70A2000E010200021CDE90801B9
:101CF00007E01020002145F00405CDE908014FF070
:101D00000808C5F3025002280FD001CF00214FF080
:101D1000000A2B071FD5702A0DD0DDE908C38CF00F
:101D2000100C5CEA030C0CD015E0FF1D27F0070730
:101D3000F7E80201EBE740228DF828204FF0010A76
:101D40000BE050EA010306D030238DF828308DF8DF
:101D5000292002239A46582A04D024A20DF12009F2
:101D60000B9209E026A2F9E7DDE90823FEF77CFAE9
:101D70000B9B9B5C09F8013D50EA0102F4D1ADEBED
:101D8000090020300890680701D44FF00108089935
:101D9000884502DDA8EB010000E000208046002518
:101DA00006E00AA85A46405D0F9990476D1C761CC4
:101DB0005545F6DB04E030205A460F999047761CD3
:101DC000B8F10001A8F10108F5DC05E019F8010BF4
:101DD0005A460F999047761C0899481E089000298A
:101DE000F4DC641CC5E60000092801003031323300
:101DF0003435363738396162636465660000000047
:101E00003031323334353637383941424344454630
:101E10000000000008B5094C4FF0FF350123009584
:101E20001A460621E06801F0F3F9014604A0FFF725
:101E300061FE322000F050FFF0E7000000000020BB
:101E4000C8ABB2BFCAC2BCFECEBBBBF1C8A1B3C94E
:101E5000B9A6A3ACCAC2BCFED7E9B5C4D6B5CEAA52
:101E60002523780D0A0000000C4D0D4C0121284659
:101E700000F038F801280CD10221E06801F05EF989
:101E80000021E06801F018F900F00F0105A0FFF74C
:101E900031FE322000F020FFE8E70000000801409A
:101EA00000000020B7A2CBCDCAC2BCFECEBB4556B7
:101EB000454E545F4249545F31A3ACCAC2BCFECE0A
:101EC000BBB5C4D6B5CEAA2523580A0013B54FF624
:101ED000FF73012269460248FFF7C7FA00981CBD4C
:101EE0004001002070B504460D4629462046FEF705
:101EF0000FFC012801D0002070BD29462046FEF7C6
:101F000007FC0128F9D0012070BD00001CB5FEF7C8
:101F100029FDFFF7E3FBFFF711FBFFF7A5FBFFF739
:101F200063FBFFF781FB06480121CDE900100A029F
:101F3000002304A1064801F001FD01F02BF8FEE7A3
:101F40000000002073746172745F7461736B000031
:101F5000052900082DE9F04104460F46174EF568A3
:101F60003068001D00F01CFD38B9306890F82C1066
:101F700001208840316981433161601C07D137B14C
:101F80003168BDE8F041091D0D4800F04FBD2C44FB
:101F900030684460AC4206D23168B06B091DBDE8C0
:101FA000F04100F02BBD3168706B091D00F026FD7B
:101FB000B06A844200D2B462BDE8F0811000002013
:101FC000E004002070B5044600F03CFD1D4DA868FB
:101FD000401CA860286810B1686938B10CE02C601A
:101FE000A868012808D100F08BF905E02868E16AAB
:101FF000C06A884200D82C60686A401C68626064CD
:10200000E06A01212A698140114329610E4900EBF0
:10201000800001EB8000211D00F008FD00F04EFD66
:10202000686900280CD02868E16AC06A884207D233
:1020300006494FF080500860BFF34F8FBFF36F8F9A
:1020400070BD0000100000201002002004ED00E030
:1020500010B500F0F7FC0E4C2068A0B90D4800F058
:10206000BFFC0C48143000F0BBFC0A48E0601430A0
:102070002061002210210A2001F0AAF9206010B18D
:1020800005A100F0F3FDBDE8104000F017BD000011
:102090004C000020F4040020546D72510000000038
:1020A00070B5124E124D1CE000F0BEFF306820B13A
:1020B000002401F099FDA4B901E00124F9E700F042
:1020C000C1FCF068C468201D00F06AFCA868401ECE
:1020D000A8606868401E686000F0F0FC204600F0D0
:1020E0004BF868680028DFD170BD0000CC040020E8
:1020F0001000002030B40B46026C002A0CD0C168DE
:102100001144C1604468A14201D30168C160C16843
:1021100030BC1846FEF784B830BC70472DE9F0415A
:10212000044617460026A56B226C002A1FD07FB1FB
:10213000E068FEF775F8E168206C091AE160226832
:10214000914202D26168081AE060022F0DD00EE0C1
:10215000A068FEF765F8216CA0680844A06061687B
:10216000884204D32068A06001E005B16D1E6D1C9B
:10217000A5633046BDE8F08110B50446206B00F041
:10218000D1FC2046BDE8104000F0CCBC0749CA682D
:102190001168002904D00021016019B100207047A6
:1021A0000121F9E7D0680068704700004C0000206A
:1021B0004FF410410F48420706D0C01D20F0070021
:1021C0000C49411AC1F510410B4A106000235360BD
:1021D0000144083921F00701103A11604B600B608F
:1021E0000B1A436001604068906050604FF00040FF
:1021F000D06070471C0500207C000020074E4FF087
:102200008054074DFFF74CFF30680128FAD92C6045
:10221000BFF34F8FBFF36F8FF4E700001002002071
:1022200004ED00E070B51D46049C002909D0226031
:10223000E06321640121204601F0BCF984F84C5090
:1022400070BD2460F4E700002DE9F047DDE908588F
:102250000A9C81460E4617469A46B900A522206B75
:10226000FDF7F0FF206B7F1E00EB870020F00707D3
:10227000780705D040F22B3218A11DA0FFF73AFCD9
:1022800000202218315C82F83410315C11B1401CFE
:102290001028F6D3002684F84360202D00D31F2594
:1022A000E562201D00F0A7FB04F1180000F0A3FB7D
:1022B0002461C5F12000A0616462E66484F8506086
:1022C00052464946384600F00FFB2060B8F1000F37
:1022D00001D0C8F80040BDE8F08700002E2E5C4613
:1022E00072656552544F535C7461736B732E630057
:1022F0004572726F723A2025732C2025640D0A00F6
:1023000070B50024114D04EB840005EB800000F053
:1023100067FB641C202CF6D30D4800F061FB0C48D1
:10232000143000F05DFB0A48283000F059FB0848E3
:102330003C3000F055FB0648503000F051FB05489A
:10234000034941631431816370BD00001002002015
:10235000900400201000002030B5134900E0114621
:102360000A688242FBD34B685C18844203D1406800
:102370001844486008460D6844682318AB420DD1E4
:10238000094B103B1B689A4206D0526822444260B7
:102390000A681268026002E0036000E002608142A5
:1023A00000D0086030BD00007C00002070B5002423
:1023B000416000610C4D91420AD8D11A8269914264
:1023C00001D301240EE0011D286900F017FB09E08C
:1023D0009A4203D2994201D3012403E0011DE86827
:1023E00000F00CFB204670BD4C00002010B50446E8
:1023F00000F028FBA06B20B1002400F05FFB20461A
:1024000010BD0124F9E710B5044600F01BFBA06BDA
:10241000E16B884201D1012400E0002400F04EFB72
:10242000204610BDF8B505460E461348C068C06882
:10243000C468201D00F0B4FAE069012816D1A06933
:102440002B46411932462046FFF7B0FF70B10020FD
:102450000346014600902A46204601F075FC28B943
:102460004FF4027205A10BA0FFF744FB616A01B0B3
:102470002046BDE8F04008474C0000202E2E5C4668
:1024800072656552544F535C74696D6572732E6347
:10249000000000004572726F723A2025732C2025CF
:1024A000640D0A0070B586B02F4E53E002980028E4
:1024B00003DADDE90320059990470298002849DBFB
:1024C000049C606910B1201D00F06AFA01A800F0B8
:1024D000A9F8054602980A283CD2DFE800F0050575
:1024E000053B273805053B270398A16903460144AE
:1024F0002A462046FFF75AFF00282BD0616A204663
:102500008847E069012825D1002000900398A1693F
:10251000002342181946204601F016FCD0B940F2BB
:10252000213212A117A0FFF7E5FA13E00398A0618A
:1025300028B94FF44E720DA112A0FFF7DBFAA06983
:102540002B4641192A462046FFF730FF02E020467D
:1025500000F0E8FA00231A4602A9306800F06AFF8A
:102560000028A3D106B070BD4C0000202E2E5C4682
:1025700072656552544F535C74696D6572732E6356
:10258000000000004572726F723A2025732C2025DE
:10259000640D0A00F8B506460D4600F045FD684694
:1025A00000F040F80446009810B101F01DFBF8BDA2
:1025B00045B9A64206D801F017FB21463046FFF781
:1025C00031FFF8BD0C481DB10169096891B10025C2
:1025D000311B2A46006800F05BFB01F005FB002878
:1025E000EFD106494FF080500860BFF34F8FBFF323
:1025F0006F8FF8BD0125EBE74C00002004ED00E0F3
:102600000748416B0968002905D0416BC968C96852
:102610004968816270474FF0FF3181627047000066
:102620001000002070B5054601F0C6F90446074EBB
:10263000B068844204D200F00BF80120286001E069
:1026400000202860B460204670BD00004C000020CF
:10265000F8B5184E25E0C0680568C468201D00F074
:102660009FF9616A20468847E069012819D1A0696D
:102670002844A84206D960602461211DF06800F05A
:10268000BDF90EE000200346014600902A46204690
:1026900001F05AFB28B940F2923207A10CA0FFF7D3
:1026A00029FAF06801680029D5D1F0683169F16034
:1026B0003061F8BD4C0000202E2E5C4672656552DC
:1026C000544F535C74696D6572732E630000000093
:1026D0004572726F723A2025732C2025640D0A0012
:1026E00008484068401C04D0F42207A111A0FFF75D
:1026F00001FA502080F31188BFF34F8FBFF36F8F23
:10270000FEE70000600000202E2E5C4672656552D8
:10271000544F535C706F727461626C655C525644C6
:10272000535C41524D5F434D335C706F72742E6346
:10273000000000004572726F723A2025732C20252C
:10274000640D0A0003460020002A03D0994300D1FB
:10275000012070470B42FCD00120704708B5684645
:10276000FFF714FD0099FFF715FFFFF79BFEF6E753
:102770002DE9F041044600F065F994F9455004F163
:10278000240609E0606A48B1304601F091F908B1C9
:1027900000F040FB6D1E6DB2002DF3DC4FF0FF36F4
:1027A00084F8456000F08AF900F04CF994F944503F
:1027B00004F1100709E0206948B1384601F078F9C2
:1027C00008B100F027FB6D1E6DB2002DF3DC84F81C
:1027D0004460BDE8F04100F071B900002DE9F0411E
:1027E0000546002600F020FC304F386808B9FFF796
:1027F000DFFCF86805424BD175B1083568070BD08E
:1028000005F00700C0F108000544680704D0BF22A6
:1028100027A131A0FFF76EF9002D39D078688542E5
:1028200036D8224910310846046801E021460446A2
:102830006068A84202D220680028F7D13868844234
:1028400026D00E680836206808606068401B102893
:1028500011D904EB05085FEA487004D0EC2214A1FA
:102860001DA0FFF747F96068401BC8F804006560C9
:102870004046FFF771FD61687868401A7860BA6871
:10288000904200D2B860F868014361600020206087
:1028900001F0AAF9700705D04FF4967204A10EA0BA
:1028A000FFF728F93046BDE8F08100006C000020F9
:1028B0002E2E5C4672656552544F535C706F727475
:1028C00061626C655C4D656D4D616E675C686561EC
:1028D000705F342E630000004572726F723A2025DB
:1028E000732C2025640D0A0020384FF08073C361DB
:1028F00021F0010181610249416140F820297047BE
:10290000E12600087CB500F09DF800F009FC124CAF
:10291000E06010B111A0FFF7EDF80F480221001D93
:10292000CDE90010CD0100232A4611A1154801F080
:1029300005F8094803210830CDE9001000232A4694
:1029400011A1164800F0FAFF206800F0FDF9BDE87B
:102950007C4000F0B3B8000000000020CAC2BCFEFA
:10296000D7E9B4B4BDA8B3C9B9A60D0A00000000E8
:102970006576656E745F7365745F6269745F7461B8
:10298000736B0000691E00086576656E745F677280
:102990006F75705F7461736B00000000151E000896
:1029A0000169D0E901329A60D0E901235A604A688E
:1029B000824201D182684A60002202610868401E9A
:1029C000086070470449086880690A680968D26A23
:1029D000C2F120028A6170471000002000F0AEBBF7
:1029E00000F1080141604FF0FF328260C160016177
:1029F00000210160704700210161704730B50C680B
:102A0000621C02D000F1080202E0026904E01A46EA
:102A100053681D68A542FAD953684B6099608A6073
:102A2000516008610168491C016030BD42684A601C
:102A300093688B6093685960916008610168491CD4
:102A400001607047502080F31188BFF34F8FBFF3B0
:102A50006F8F09494868401C486001280AD107481F
:102A6000006810F0FF0F05D04FF4BD7204A10FA055
:102A7000FFF740B8704700006000002004ED00E060
:102A80002E2E5C4672656552544F535C706F7274A3
:102A900061626C655C525644535C41524D5F434DDC
:102AA000335C706F72742E63000000004572726FA9
:102AB000723A2025732C2025640D0A0010B5094CAC
:102AC0006068002805D140F2811207A111A0FFF72C
:102AD00011F86068401E6060002801D180F3118801
:102AE00010BD0000600000202E2E5C46726565520D
:102AF000544F535C706F727461626C655C525644E3
:102B0000535C41524D5F434D335C706F72742E6362
:102B1000000000004572726F723A2025732C202548
:102B2000640D0A0070B500282AD008380446154DF7
:102B30006068E968084205D14FF4A07212A11CA098
:102B4000FEF7D8FF206828B140F241120EA118A06C
:102B5000FEF7D0FF6068E968084211D02268002AB9
:102B60000ED18843606000F05FFA606869680844CD
:102B700068602046FFF7F0FBBDE8704001F034B814
:102B800070BD00006C0000202E2E5C467265655200
:102B9000544F535C706F727461626C655C4D656D0F
:102BA0004D616E675C686561705F342E6300000084
:102BB0004572726F723A2025732C2025640D0A002D
:102BC00006484FF47A710068B0FBF1F14FF0E02055
:102BD000491E4161072101617047000090000020FB
:102BE00010B5FDF7F7FA104C10280CD300F1E020D7
:102BF00090F8F0032178884205D24FF42A720BA195
:102C000015A0FEF777FF18480068A16800F4E0609F
:102C1000884207D9BDE810404FF42E7203A10EA0E0
:102C2000FEF768BF10BD0000600000202E2E5C463D
:102C300072656552544F535C706F727461626C655B
:102C40005C525644535C41524D5F434D335C706F50
:102C500072742E63000000004572726F723A202574
:102C6000732C2025640D0A000CED00E010B5002245
:102C7000064B53F832401CB1521C0A2AF9D310BD3E
:102C800043F8321003EBC201486010BDC0010020C0
:102C900070B504460D461646FFF7D4FE94F944304D
:102CA0004FF000005B1C01D184F8440094F94510FA
:102CB000491C01D184F84500FFF700FFA06B28B93B
:102CC0003246294604F1240000F0D6F82046BDE83B
:102CD0007040FFF74DBD000010B504460020002CE9
:102CE00010D00E48006B28B140F2CF420CA111A0C9
:102CF000FEF700FF00F098F900212046FFF72AF9BF
:102D000000F072FF002807D10E494FF08050086094
:102D1000BFF34F8FBFF36F8F10BD00001000002076
:102D20002E2E5C4672656552544F535C7461736B12
:102D3000732E63004572726F723A2025732C202522
:102D4000640D0A0004ED00E070B50446FFF77AFE5A
:102D5000234D04B92C68201DFFF722FE58B9E06A04
:102D6000204A00EB800152F8211021B90121814055
:102D7000286988432861A06A18B104F11800FFF798
:102D80000FFE686A401C68622868844207D1211DD2
:102D90001548FFF74BFE6868401C686007E0A868AC
:102DA000401EA8602046FFF7E7F9FFF729FCFFF770
:102DB00085FE6869002812D0286884420FD1286BEC
:102DC00028B140F2654209A10DA0FEF793FE10491B
:102DD0004FF080500860BFF34F8FBFF36F8F70BD0F
:102DE0001000002010020020CC0400202E2E5C4693
:102DF00072656552544F535C7461736B732E63003C
:102E00004572726F723A2025732C2025640D0A00DA
:102E100004ED00E001490120C86170471000002066
:102E200070B504460D46002C05D140F6063208A1C7
:102E30000CA0FEF75FFE0F48016820461831FFF72F
:102E4000DDFD2846BDE870400121FFF783B8000092
:102E50002E2E5C4672656552544F535C7461736BE1
:102E6000732E63004572726F723A2025732C2025F1
:102E7000640D0A001000002070B506460D46144689
:102E8000002E05D140F6313209A10EA0FEF732FE28
:102E90001048016830461831FFF7C8FD0CB14FF0FB
:102EA000FF3521462846BDE87040FFF753B80000C3
:102EB0002E2E5C4672656552544F535C7461736B81
:102EC000732E63004572726F723A2025732C202591
:102ED000640D0A00100000202DE9F04105460E4661
:102EE0001746002D05D140F617320EA112A0FEF7AD
:102EF00001FE154C206B28B940F61B3209A10EA02B
:102F0000FEF7F8FD216846F00040886121682846F8
:102F10001831FFF78BFD3846BDE8F0410121FFF77E
:102F200019B800002E2E5C4672656552544F535CF2
:102F30007461736B732E63004572726F723A202551
:102F4000732C2025640D0A001000002010B50446E3
:102F5000002C05D140F6C13204A109A0FEF7CAFD3C
:102F60000B48016A2160C068606010BD2E2E5C466F
:102F700072656552544F535C7461736B732E6300BA
:102F80004572726F723A2025732C2025640D0A0059
:102F9000100000201CB517480024CDE9004023464E
:102FA000802215A1164800F0C9FC012801D100F0CB
:102FB00091FE01280AD0401C1BD102B040F284725D
:102FC000BDE810400FA114A0FEF794BD502080F37F
:102FD0001188BFF34F8FBFF36F8F06484FF0FF315B
:102FE0002C38816201214161C460BDE81C4000F0C1
:102FF0009FB91CBD3C00002049444C450000000026
:10300000FD2100082E2E5C4672656552544F535CBC
:103010007461736B732E63004572726F723A202570
:10302000732C2025640D0A000248016B491C0163C2
:10303000704700001000002070B5144D286B002868
:1030400002D00120E86170BD0020E8612869B0FA73
:1030500080F0C0F11F000E4E00EB800456F82400F3
:1030600028B940F6F6220BA10FA0FEF743FD06EBB0
:10307000840041684968416000F10802914201D131
:10308000496841604068C068286070BD1000002039
:10309000100200202E2E5C4672656552544F535C20
:1030A0007461736B732E63004572726F723A2025E0
:1030B000732C2025640D0A0070B50E4604460028C6
:1030C00005D140F2DF120BA111A0FEF713FD300E67
:1030D00005D04FF4F07207A10DA0FEF70BFDFFF72E
:1030E000B1FC256825EA06002060FFF7E7FC2846CA
:1030F00070BD00002E2E5C4672656552544F535CC5
:103100006576656E745F67726F7570732E6300000D
:103110004572726F723A2025732C2025640D0A00C7
:1031200010B51C20FFF75AFB044624B10020206094
:10313000201DFFF755FC204610BD00002DE9F04191
:10314000884600250446002805D140F21D2221A111
:1031500027A0FEF7CFFC5FEA186005D040F21E22E0
:103160001CA123A0FEF7C6FC261D06F10807FFF7E9
:103170005BFFF068216841EA0801216020E04668B1
:103180000168002201F07F4321F07F415FEA431C88
:1031900006D4D4F800C01CEA010F07D0012205E0D4
:1031A000D4F800C031EA0C0C00D101223AB1DA01A6
:1031B00000D50D43216841F0007100F0C7FC304696
:1031C000B842DCD12068A843206000F00DFD2068E3
:1031D000BDE8F0812E2E5C4672656552544F535CFB
:1031E0006576656E745F67726F7570732E6300002D
:1031F0004572726F723A2025732C2025640D0A00E7
:1032000013460A460146014800F0ECBDDD290008DE
:103210002DE9F047089F0D46904699460446002642
:10322000002805D140F24D1235A13CA0FEF762FC0A
:10323000280E05D04FF4A77231A138A0FEF75AFC32
:103240002DB940F24F122EA134A0FEF753FC00F02E
:10325000A5FB30B92FB14FF4A97229A12FA0FEF719
:1032600049FCFFF7E1FED4F800A04A462946504643
:10327000FFF768FA40B156460027B8F1000F15D0A5
:103280002068A843206011E0AFB1B8F1000F01D071
:103290004FF08076B9F1000F01D046F0806645EA24
:1032A00006013A46201DFFF717FE002600F09CFCA1
:1032B0001FB310B109E05646F8E71C494FF08050A3
:1032C0000860BFF34F8FBFF36F8FFFF77BFB06469E
:1032D000B00110D4FFF7B6FB26684A4629463046AF
:1032E000FFF730FA28B1B8F1000F02D02068A843E8
:1032F0002060FFF7E3FB26F07F463046BDE8F0870D
:103300002E2E5C4672656552544F535C6576656E31
:10331000745F67726F7570732E6300004572726F11
:10332000723A2025732C2025640D0A0004ED00E07C
:103330001CB5194908780190FF20087008780090A2
:103340009DF80000154A00F05000107007209060B2
:1033500006E09068401E90609DF8000040000090DC
:103360009DF800000006F4D4107A000200F4E0603A
:103370009060019808700A48016841F4700101608A
:10338000016841F070410160FFF71AFC00205060B5
:10339000FCF7EAFE00201CBD00E400E06000002015
:1033A00020ED00E010B5502080F31188BFF34F8F5F
:1033B000BFF36F8F00F006FB18B104494FF0805047
:1033C0000860002080F3118810BD000004ED00E0CB
:1033D000F8B505460E461746002D05D14FF4C472C8
:1033E0000BA110A0FEF786FB86B105FB06F050305E
:1033F000FFF7F4F904463CB104F150023B46314674
:1034000028460094FEF70EFF2046F8BD0020EEE7A8
:103410002E2E5C4672656552544F535C717565750E
:10342000652E63004572726F723A2025732C202539
:10343000640D0A002DE9FF4F83B004468A469B467F
:103440000026002C05D140F2DC4250A154A0FEF72A
:1034500051FBBAF1000F07D1206C28B140F2DD42D8
:103460004AA14FA0FEF746FB00F098FA38B905983C
:1034700028B14FF49C6245A149A0FEF73BFB4FF0F9
:1034800000094FF08057DFF82881FFF7DBFAA56BC2
:103490006DB3E66851462046FEF72CFEBBF1000FE7
:1034A00013D0E660606A50B104F1240000F000FB24
:1034B00028B1C8F80070BFF34F8FBFF36F8FFFF7CD
:1034C000FDFA012007B0BDE8F08F6D1EA5632069ED
:1034D0000028F4D004F1100000F0EAFA0028EED041
:1034E000C8F80070BFF34F8FBFF36F8FE7E7059801
:1034F00008B126B107E0FFF7E1FA0020E2E701A8F2
:10350000FFF724FD0126FFF7D9FAFFF78DFDFFF73E
:1035100099FA94F94400401C01D184F8449094F93C
:103520004500401C01D184F84590FFF7C7FA05A972
:1035300001A800F0BBF958B12046FFF719F900F0D7
:1035400053FB2046FEF752FF00289ED00020B9E72B
:103550002046FEF74BFF90B104F124000599FFF7D8
:103560005FFC2046FFF704F900F03EFB00288CD1F9
:10357000C8F80070BFF34F8FBFF36F8F85E7204609
:10358000FFF7F6F800F030FB7FE700002E2E5C46D8
:1035900072656552544F535C71756575652E630095
:1035A0004572726F723A2025732C2025640D0A0033
:1035B00004ED00E070B504460D46002C05D140F244
:1035C0001B121DA121A0FEF795FAFFF73BFAD4E9E3
:1035D0000F20216802FB001161600021A1632168B6
:1035E000A160E06B2268216C401E00FB0121E160BC
:1035F0004FF0FF3084F8440084F8450004F11000D7
:103600004DB1FFF7EDF904F12400FFF7E9F9FFF7F9
:1036100055FA012070BD21690029F8D000F048FA60
:103620000028F4D00D494FF080500860BFF34F8F51
:10363000BFF36F8FEBE700002E2E5C46726565527C
:10364000544F535C71756575652E63004572726FDA
:10365000723A2025732C2025640D0A0004ED00E049
:103660002DE9FF4782B004468A461E460025002CFD
:1036700005D140F2D9224EA152A0FEF73BFABAF191
:10368000000F07D1206C28B140F2DA2248A14DA0EA
:10369000FEF730FA022E08D1E06B012805D040F287
:1036A000DB2243A147A0FEF725FA00F077F938B9ED
:1036B000049828B140F2DE223DA142A0FEF71AFA9A
:1036C0004FF000094FF08057DFF80881FFF7BAF993
:1036D000A06BE16B884205D3022E03D0049808B397
:1036E00025B327E0324651462046FEF717FD616AB2
:1036F00059B104F1240000F0DBF968B1C8F800709A
:10370000BFF34F8FBFF36F8F06E028B1C8F800708A
:10371000BFF34F8FBFF36F8FFFF7D0F9012006B0D3
:10372000BDE8F087FFF7CAF90020F8E76846FFF721
:103730000DFC0125FFF7C2F9FFF776FCFFF782F9D0
:1037400094F94400401C01D184F8449094F9450058
:10375000401C01D184F84590FFF7B0F904A96846F0
:1037600000F0A4F830B12046FFF702F800F03CFA70
:103770000020D4E72046FEF746FE90B104F1100089
:103780000499FFF74DFB2046FEF7F2FF00F02CFAFC
:1037900000289BD1C8F80070BFF34F8FBFF36F8F25
:1037A00094E72046FEF7E4FF00F01EFA8EE70000E3
:1037B0002E2E5C4672656552544F535C717565756B
:1037C000652E63004572726F723A2025732C202596
:1037D000640D0A0004ED00E02DE9F0470446894637
:1037E00090461F46002C05D140F29F3226A12BA007
:1037F000FEF780F9B9F1000F07D1206C28B14FF422
:10380000687221A125A0FEF775F9022F08D1E06B9F
:10381000012805D040F2A1321BA120A0FEF76AF9D1
:10382000FFF7DEF95020EFF3118680F31188BFF324
:103830004F8FBFF36F8FA06BE16B884206D3022FCF
:1038400004D0002086F31188BDE8F08794F9455034
:103850003A4649462046FEF761FC681C04D06D1CC0
:1038600084F845500120EDE7606A0028FAD004F1A1
:10387000240000F01DF90028F4D0B8F1000FF1D0B9
:103880000120C8F80000EDE72E2E5C4672656552F7
:10389000544F535C71756575652E63004572726F88
:1038A000723A2025732C2025640D0A0070B5044659
:1038B0000D46002C05D140F6CB3216A11AA0FEF71A
:1038C00019F92DB940F6CC3212A117A0FEF712F962
:1038D000FFF7B8F8184AD06829684B1C08D023684D
:1038E000126A934206D06268824203D801240DE036
:1038F00000240BE06268801A884206D2081A286009
:103900002046FFF723FB002400E00124FFF7D6F850
:10391000204670BD2E2E5C4672656552544F535C36
:103920007461736B732E63004572726F723A202557
:10393000732C2025640D0A00100000202DE9FF5F84
:103940008146DDE90E788A4616469B46B000FEF7B2
:1039500045FF054628000AD05420FEF73FFF0446E5
:103960000CB1256304E02846FFF7DCF800E00024F2
:103970008CB10020CDE90240CDE900785B463246AB
:1039800051464846FEF760FC2046FEF71BFB01202F
:1039900004B0BDE8F09F4FF0FF30F9E705484169FA
:1039A000002903D0006B18B1002070470120704738
:1039B00002207047100000200148C06870470000D6
:1039C000100000202DE9F04100262E4F386B002812
:1039D00008D0B869401CB861F86900B101263046CA
:1039E000BDE8F081FD686D1CFD608DB9786B0068E5
:1039F00028B140F6D91224A128A0FEF77BF8786BF5
:103A0000B96B7963B863386A401C3862FEF7F8FD19
:103A1000B86ADFF8988085420DD3786B006838B1BA
:103A2000786BC068C468606885420ED2B86202E0F4
:103A30004FF0FF30B8623868C06A00EB800058F879
:103A400020000128C8D90126C6E7201DFEF7A8FFDF
:103A5000A06A18B104F11800FEF7A2FFE06A012184
:103A60003A6981401143396100EB800008EB800026
:103A7000211DFEF7DBFFE06A3968C96A8842CCD3B2
:103A80000126CAE7100000202E2E5C4672656552A2
:103A9000544F535C7461736B732E63004572726F85
:103AA000723A2025732C2025640D0A001002002094
:103AB0002DE9F041C068C468002C05D140F66132A0
:103AC00016A11BA0FEF716F804F118000746FEF732
:103AD00067FF1B4D2A6B012662B139461948FEF774
:103AE000A5FFE06A2968C96A884215D90120EE61FC
:103AF000BDE8F081201DFEF753FFE06A2A6906FA4F
:103B000000F111432961104900EB800001EB8000B6
:103B1000211DFEF78BFFE4E70020E9E72E2E5C462F
:103B200072656552544F535C7461736B732E6300FE
:103B30004572726F723A2025732C2025640D0A009D
:103B400010000020B80400201002002070B50646C6
:103B50000C461A4D286B002805D140F6993218A161
:103B60001CA0FDF7C7FF44F000403060F4682CB99A
:103B700040F6A13212A117A0FDF7BCFF3046FEF7B8
:103B80000FFF201DFEF70CFFE06A01262A6906FAE6
:103B900000F111432961134900EB800001EB800023
:103BA000211DFEF743FFE06A2968C96A884202D9ED
:103BB0000120EE6170BD002070BD000010000020EB
:103BC0002E2E5C4672656552544F535C7461736B64
:103BD000732E63004572726F723A2025732C202574
:103BE000640D0A00100200202DE9F0410024002796
:103BF0002B4D286B002805D14FF4FD6229A12EA082
:103C0000FDF778FFFEF71EFF286B401E2863286B28
:103C1000F0BBA868E0B3DFF8B08001261DE0D8F85B
:103C20000C00C46804F11800FEF7BAFE201DFEF770
:103C3000B7FEE06A2A6906FA00F1114329612349B7
:103C400000EB800001EB8000211DFEF7EFFEE06A33
:103C50002968C96A884200D3EE61D8F800000028BC
:103C6000DDD10CB1FEF7CCFCAC6944B1FFF7AAFE84
:103C700000B1EE61641E002CF8D10020A861E86953
:103C800030B10127124938070860BFF34F8F00E0B9
:103C900001E0BFF36F8FFEF711FF3846BDE8F081FA
:103CA000100000202E2E5C4672656552544F535C06
:103CB0007461736B732E63004572726F723A2025C4
:103CC000732C2025640D0A00B80400201002002087
:103CD00004ED00E01CB50024FEF7BAF90C480068BA
:103CE00060B10B481F21001DCDE9001000234FF4E7
:103CF000807208A10948FFF721FE04462CB940F262
:103D0000331207A10CA0FDF7F5FE20461CBD0000F4
:103D10004C000020546D7220537663005D2700082C
:103D20002E2E5C4672656552544F535C74696D6506
:103D300072732E63000000004572726F723A202584
:103D4000732C2025640D0A002DE9FF47DDF830A013
:103D500005460E46904699460027002D05D14FF4A2
:103D6000D37215A11AA0FDF7C5FE1D4C2068F8B14D
:103D70000096CDF804800295062E13DAFFF70EFEAA
:103D8000022807D000231A4669462068FFF768FC1E
:103D900007460DE00023524669462068FFF760FCA5
:103DA000074605E000234A466946FFF715FD07462A
:103DB00004B03846BDE8F0872E2E5C467265655229
:103DC000544F535C74696D6572732E63000000007C
:103DD0004572726F723A2025732C2025640D0A00FB
:103DE0004C0000207FB51D466FF001040094019047
:103DF00002910392044800232A4669460068FFF7AF
:103E0000EBFC04B070BD00004C000020000000007E
:103E1000000000000102030406070809000000007A
:103E200001020304443E0008000000209800000046
:103E3000341B0008DC3E0008980000208898000031
:103E4000441B00080000000000000000000000000B
:103E50000000000000000000000000000000000062
:103E60000000000000000000000000000000000052
:103E70000000000000000000000000000000000042
:103E80000000000000000000000000000000000032
:103E90000000000000000000000000000000000022
:103EA0000000000000000000AAAAAAAA000000006A
:103EB0000000000000000000000000000000000002
:103EC00000000000000000000100000010000000E1
:0C3ED000000000000024F40000000000CE
:0400000508000131BD
:00000001FF
